:020000040800F2
:10000000600B00208D02000895020008970200088E
:10001000990200089B0200089D02000800000000F1
:100020000000000000000000000000009F02000827
:10003000A102000800000000A3020008613F0008C0
:10004000A7020008A7020008A7020008A7020008EC
:10005000A7020008A7020008A7020008A7020008DC
:10006000A7020008A7020008A7020008A7020008CC
:10007000A7020008A7020008A7020008A7020008BC
:10008000A7020008A7020008A7020008A7020008AC
:10009000A7020008A7020008A7020008A70200089C
:1000A000A7020008A7020008A7020008A70200088C
:1000B000A7020008A7020008A7020008A70200087C
:1000C000A7020008A7020008A7020008A70200086C
:1000D000A702000821450008A7020008A70200089F
:1000E000A7020008A7020008A7020008A70200084C
:1000F000A7020008A7020008A7020008A70200083C
:10010000A7020008A7020008A7020008A70200082B
:10011000A7020008A7020008FD400008A702000887
:10012000A7020008A7020008A7020008A70200080B
:10013000A7020008A7020008A7020008A7020008FB
:10014000A7020008A7020008A7020008A7020008EB
:10015000A7020008A7020008A7020008A7020008DB
:10016000A7020008A7020008A7020008A7020008CB
:10017000A7020008A7020008A7020008A7020008BB
:10018000A7020008A702000800F002F800F06FF8CC
:100190000AA090E8000C82448344AAF10107DA45E2
:1001A00001D100F064F8AFF2090EBAE80F0013F0C5
:1001B000010F18BFFB1A43F001031847E88700003E
:1001C000088800000A444FF0000C10F8013B13F0BF
:1001D000070408BF10F8014B1D1108BF10F8015BA0
:1001E000641E05D010F8016B641E01F8016BF9D193
:1001F00013F0080F1EBF10F8014BAD1C0C1B09D1EA
:100200006D1E58BF01F801CBFAD505E014F8016B5B
:1002100001F8016B6D1EF9D59142D6D370470000ED
:100220000023002400250026103A28BF78C1FBD8FF
:10023000520728BF30C148BF0B607047662907F0DE
:10024000DE82002070471FB507F0CFFA00F0C4FB34
:1002500004000020002106F035FC401C60600020F6
:10026000002106F019FCE0601FBD10B510BD00F0C4
:10027000FFFC1146FFF7E7FF05F02EFE00F02BFD17
:1002800003B4FFF7F2FF03BC00F06EFD094880479E
:1002900009480047FEE7FEE7FEE7FEE7FEE7FEE768
:1002A000FEE7FEE7FEE7FEE704480549054A064B80
:1002B00070470000713F00088901000860050020B8
:1002C000600B002060070020600700200FB41CB501
:1002D000074B06AA7B4469460090059800F01FFB77
:1002E0000020694600F02EFB1CBC5DF814FB0000EA
:1002F0006D0600002DE9F05F894604464FF0000AC4
:10030000DFF824B1FB44C0F820A02046E16888470C
:1003100000287DD0252806D0D4E901219047206A05
:10032000401C2062F1E700255F462046E1688847CF
:100330002028064607DB312E05D2B81910F8200C0C
:1003400008B10543F1E7A80701D525F00405C4F875
:100350001CA00027C4F818A02A2E09D0304605F0AA
:1003600003F938B304EB8708303EC8F8186019E089
:1003700059F8041B204604EB87029161E168884725
:10038000012F064618D1E069002820DA25F0200563
:100390001DE0D8F8180000EB800006EB4000303874
:1003A000C8F818002046E1688847064605F0DCF8E2
:1003B0000028EED1012F0AD02E2E08D12046E16868
:1003C00088477F1C0646022F45F02005C4DBA06944
:1003D000002803DA404245F00105A061E80701D09A
:1003E00025F01005A6B1A6F14100192802D8203643
:1003F00045F400654A463146204625604D46FFF7E4
:100400001DFF60B1012807D0ED1D25F0070000E0B9
:1004100007E000F1080978E705F1040975E73046BF
:100420007AE7206ABDE8F09F6085000070B5064657
:1004300000F052F80468054630460A22002100F018
:1004400086FA2C6070BD10B5431C02E010F8011B49
:1004500071B18107FAD14FF0013202C88C1A8C4376
:1004600014EAC211F9D0C01A0A0603D0C01E10BD8A
:10047000C01A10BD0A0401D0801E10BD0902FCD0B4
:10048000401E10BD4FF0000200B51346944696463C
:10049000203922BFA0E80C50A0E80C50B1F1200197
:1004A000BFF4F7AF090728BFA0E80C5048BF0CC045
:1004B0005DF804EB890028BF40F8042B08BF7047A3
:1004C00048BF20F8022B11F0804F18BF00F8012B15
:1004D000704770477047704700487047FC04002021
:1004E00010B5FFF7F9FF006810BD10B50446FFF71F
:1004F000F3FF046010BD70472DE9FF4F0C461E4608
:100500004FF0FF378BB0D2E90001DDF860800A9030
:100510008A46C1F30A5505B93D46002108464FF009
:100520000000BAF1000F00F4400005DA00EB800093
:100530004FF4400101EA50004FEA9059B9F1010F20
:1005400000DDB9460A9850EA4A000ED044F6105031
:10055000A5F2FF3545432F14B8F1000F1ED07542A8
:10056000291E1EDDC9F100021CE0B8F1010F4FF099
:10057000000001D0302103E0F24305E02154401C8B
:10058000B042FBDB30460022002121540B99C1F818
:100590000880C1E900200FB0BDE8F08FBD1B6D1CC5
:1005A000DEE74A4600DA694206A800F0EFFA06AB39
:1005B00093E8070003AB83E8070050460A9900F070
:1005C000DAFB8DE80700A0F500501F380090039873
:1005D000002D0ADD42F21F014A460844002303A908
:1005E0000390684600F043FE09E0A0F500504A463B
:1005F0001F38002303A90390684600F04DFE8DE8E4
:1006000007000004000C03D04FF0FF30410800E069
:100610001046B8F1000F03D00022009215461EE0EC
:10062000751E05D400F0DCF9303262556D1EF9D527
:10063000B3460122084302D000227F1C04E0207848
:10064000302801D100227F1E002A099784D01DE0A6
:10065000112D07DA00F0C4F9303262556D1C50EAF2
:100660000102F5D1084302D00098C8B10EE0002184
:10067000681E05E0235C625C63542254401E491CE2
:100680008142F7DBAB46A81B401E0990002004F80E
:100690000B000B98099AC0F80880C0E9002B7AE794
:1006A00011264FF0000857E72DE9F04F8846044621
:1006B000D21D22F0070191B0D1E90001CDE90A0174
:1006C00004F03FF802460B98C00F01D02D2007E040
:1006D0002068810701D52B2002E0202101EAC0001B
:1006E000032A099001D0072A05DB0346414620462C
:1006F00000F0BCF90BE12078800601D5E06900E04C
:100700000620B8F1650F814606D0B8F1660F18D003
:10071000B8F1670F70D131E00020B9F1110F0090EE
:1007200001DB112301E009F101030AAA01A90CA8C8
:10073000FFF7E2FEDDE90C70002609F101058346B2
:1007400047E001204B4600904FF000470AAA01A95C
:100750000CA8FFF7D1FEDDE90DB00C995D4600262F
:1007600010B909F101000D18B9EB050003D4C0F16F
:10077000FF3609F10105A5EB09002BE0B9F1010FE6
:1007800001DA4FF001090020B9F1110F009048463D
:1007900001DD112300E003460AAA01A90CA8FFF716
:1007A000ABFEDDE90C704D4600268346207800073D
:1007B0000AD4AB4500DA5D4601A8012D04DD4119DC
:1007C00011F8011C302907D04F4502DA17F1040F48
:1007D00004DA012082460FE06D1EEEE7002F02DCF6
:1007E000ED1B3E4403E0781CA84200DD7D1CB81BD5
:1007F00000F1010A4FF000472078000703D4AA4512
:1008000001DB4FF0FF3A0021B7F1004F0DF1430833
:100810008DF8431024D002202B23002F01DA7F42D1
:100820002D230A21021EA0F1010000DC5FB197FB1D
:10083000F1FC97FBF1F201FB1C7C17460CF1300C2C
:1008400008F801CDEEE7A8F1010003702188090541
:1008500001D5452100E06521A0F1010800F8011C47
:1008600009980FA9A1EB0807FF1D00B1012041194C
:1008700001EBEA70A1693844081A401EA061207893
:10088000C00602D42046AFF30080099828B1D4E90D
:1008900001219047206A401C20622078C00622D5A2
:1008A0002046AFF300801EE0002E04DBB34502DDDE
:1008B00001A8805D00E03020D4E901219047206A42
:1008C000401C2062761CAAF101005FEA000A0AD1EE
:1008D00000F082F8C0680168405CD4E901219047CB
:1008E000206A401C2062281EA5F10105DCDC07E01F
:1008F000D4E9012118F8010B9047206A401C2062BE
:10090000381EA7F10107F3DC2046AFF30080032077
:1009100011B041E601694A1C02610878704700B5D0
:100920008FB0CDE901310021059105497944CDE928
:10093000031011466846FFF7DDFC0FB000BD000054
:10094000E5FFFFFF0A6802F8010B0A6070472DE916
:10095000F04791460F4680460446002614F8015B96
:100960002DB100F031F80068405DC007F6D12B2DA5
:1009700002D02D2D18D0641E4A463946204600F07C
:10098000B5F827B13968A14201D1C7F800804FF00E
:10099000020471050BD54042002803DDFFF79CFDE2
:1009A0000460A007BDE8F08746F48066E4E700280D
:1009B000F8DAFFF791FD04606FF00040F2E7000005
:1009C00000487047FC04002010B500F005F8001D39
:1009D00010BD00BFF1600000004870471C050020FA
:1009E00030B5B0F10A024FEA900E71F100034EEA01
:1009F000817EB0EB0E0061EB91014FEA101E4EEAD2
:100A0000017E10EB0E0041EB11114FEA102E4EEA61
:100A1000016E10EB0E0041EB11214FEA104E4EEA31
:100A2000014E10EB0E0041EB1141401841F1000165
:100A30004FEAD00040EA41704FEAD10110EB800547
:100A40004FEA810444EA907444EB01046D1944EBCD
:100A50000404521BA3414FF0000348BF0A3200D5E3
:100A600030BD401C41F1000130BD00002DE9F041D6
:100A70001F46044603260168072A01F4006004DBD0
:100A800008B116A505E016A503E008B115A500E01C
:100A900015A521F010002060A069C01EA0610FB153
:100AA000401EA0612046AFF300804FB1D4E9012180
:100AB00038469047206A401C2062C01C206206E035
:100AC000206AFAE7D4E9012115F8010B9047761E58
:100AD000F8D22046AFF30080BDE8F0814E414E00D1
:100AE0006E616E00494E4600696E66002DE9F05F4A
:100AF000824615468B4600270AF10104B946007864
:100B0000302801D09DB113E014F8010B012778289B
:100B100003D0582801D045B10AE00DB1102D07D1FE
:100B2000002714F8010B102502E0082500E00A2533
:100B30000026B0460EE005FB080005FB06F1012784
:100B40001FFA80F801EB1046B6F5803F00D3B94696
:100B500014F8010B294600F0B0F80028EBDABBF1DD
:100B6000000F05D00FB1641E00E05446CBF80040E2
:100B7000B9F1000F06D0FFF7AFFC02210160C81EDB
:100B8000BDE8F09F48EA0640FAE700002DE9F0478B
:100B9000814616468AB0354878440DC88DE80D0068
:100BA00032487844801C03AC0DC884E80D0041F63F
:100BB0009B300844372190FBF1F290FBF1F5A5F151
:100BC000800501FB12041B3C02D56442012000E0B9
:100BD0000020DFF898A080460027FA44AAF1BE0A58
:100BE0000EE0E0070AD03246684607EB47010123D2
:100BF0000AEB810100F050FB8DE8070064107F1CB8
:100C0000002CEED1194F7F44AE3F19E0E80715D014
:100C100007EB04100DF1180A90E80E008AE80E00A8
:100C2000C068F04201D1981908903246012306A904
:100C300003A800F031FB03AB83E807006D10641CD0
:100C4000002DE3D14FF0010332466946B8F1000FA1
:100C500003A802D000F00BFB01E000F01DFBC9E986
:100C60000001C9F808200AB0BDE8F087F07D000057
:100C70007546FFF7A5FEAE4605006946534620F0CF
:100C80000700854618B020B5FFF70EFBBDE82040F1
:100C90004FF000064FF000074FF000084FF0000B38
:100CA00021F00701AC46ACE8C009ACE8C009ACE8EB
:100CB000C009ACE8C0098D4670473A2800D23038E8
:100CC00020F02002412A01D3A2F13700884201D34B
:100CD0004FF0FF30704710B50446AFF30080204658
:100CE000BDE81040FFF7CCBA4FF0013C50F8042BA0
:100CF00051F8043B9A4221D1A2EB0C03934313EA2F
:100D0000CC1317D150F8042B51F8043B9A4215D15B
:100D1000A2EB0C03934313EACC130BD150F8042B32
:100D200051F8043B9A4209D1A2EB0C03934313EA16
:100D3000CC13DBD04FF00000704700BFD01A01BACF
:100D4000B1FA81F101F0180122FA01F0CB40C1F1B2
:100D50002001DBB2C0B2C01A2CFA01F3D11A9143C0
:100D600011EAC311E6D1704701491820ABBEFEE776
:100D70002600020070475FEA400C08BF91F0000FA8
:100D80004FEA8C234FEAC12243EA51514FEA1C50EB
:100D900018BF00F5F0404FEA300018BF41F00041A5
:100DA0005FEA6C5C00F02980BCF1FF3F08BF40F0B7
:100DB00080407047130C06BF12044FF0100C4FF028
:100DC000000C130E04BF12020CF1080C130F04BF29
:100DD00012010CF1040C930F04BF92000CF1020CF1
:100DE000D30F04BF52000CF1010C11464FF000026A
:100DF000A0F11F00A0EB0C00704711F0004F08BFDE
:100E0000704731F000413FF4D5AF0B0C06BF090429
:100E10004FF0100C4FF0000C0B0E04BF09020CF148
:100E2000080C0B0F04BF09010CF1040C8B0F04BF5D
:100E300089000CF1020CCB0F04BF49000CF1010C2E
:100E4000CCF12003A0EB0C0022FA03F302FA0CF21F
:100E500041EA030100F10100704720F07F4C80EA75
:100E6000030023F07F47ACEB070303F57C5300F04E
:100E7000004003F1FF032DE980494FEA154B09B407
:100E80004FEA144325EA0B4E24EA03480FF20426E6
:100E900006EB132749083E785FEA320203FB066738
:100EA000C7F5000707FB06F64FEA54374FEAD64668
:100EB00006F1020607FB066CCCF1005C4FEA1C470A
:100EC0002CEA074C07FB06F40CFB06F504EB154671
:100ED0004FEA961634BF00204FF000404FEAD1375A
:100EE00006FB07FC4FEA1C4C0CFB0BF7D21B03FB69
:100EF0000CF761EB07010CFB0EF7B0EB074072EB50
:100F000017420CFB08F734BFA2EB0742B2EB0742D3
:100F100061EB17414FEA0C444FEA910706FB07FCCF
:100F20004FEA1C4C0CFB0BF7B0EBC74072EB57328F
:100F300003FB0CF734BFA2EBC742B2EBC74261EB35
:100F400057310CFB0EF7B0EBC70072EB57720CFB7E
:100F500008F734BFA2EBC702B2EBC70261EB5771CF
:100F6000039F4FEA816141EA921104EBCC044FEAFE
:100F7000D1374FEA826206FB07FC42EA90124FEA41
:100F800080604FEA1C4C0CFB0BF7D21B03FB0CF7E9
:100F900061EB07010CFB0EF7B0EB074072EB174259
:100FA0000CFB08F734BFA2EB0742B2EB074261EB40
:100FB00017414FEA8C554FEA910704EB9C2406FB3E
:100FC00007FC4FEA1C4C0CFB0BF7B0EBC74072EB75
:100FD000573203FB0CF734BFA2EBC742B2EBC74258
:100FE00061EB57310CFB0EF7B0EBC70072EB577299
:100FF0000CFB08F734BFA2EBC702B2EBC70261EBF0
:10100000577115EB4C254FEA816141EA92114FEA85
:1010100082624FEAD13742EA901206FB07FC44F1A4
:1010200000044FEA80604FEA1C4C0CFB0BF7D21B0C
:1010300003FB0CF761EB07010CFB0EF7B0EB07406D
:1010400072EB17420CFB08F734BFA2EB0742B2EB7E
:10105000074261EB174115EB1C154FEA813141EA5C
:1010600092414FEA823242EA90424FEA80304FEAA0
:101070000C7644F1000448EA03434EEA0B484FF073
:10108000000EB2EB080C71EB030724BF6246394631
:101090004EEB0E0E4FF0000B0018524149414BEB46
:1010A0000B0BB2EB080C71EB03077BF1000B24BFB9
:1010B000624639464EEB0E0E4FF0000B00185241BF
:1010C00049414BEB0B0BB2EB080C71EB03077BF1C7
:1010D000000B24BF624639464EEB0E0E51EA020762
:1010E00018BF46F0010616EB0E7655F1000254F1DA
:1010F000000103D5BDE88901BDE80088BDE889018C
:10110000BDE80048B619524141EB0101A3F10103CA
:10111000704780807F7E7D7C7B7A79787776767564
:101120007473727171706F6E6E6D6C6C6B6A6A69DC
:101130006868676666656464636362616160605F76
:101140005F5E5E5D5D5C5C5B5B5A5A5959585857EF
:101150005756565555555454535352525251515057
:1011600050504F4F4F4E4E4D4D4D4C4C4C4B4B4BAA
:101170004A4A4A49494948484847474747464646F0
:10118000454545444444444343434342424242412B
:101190004141002B9C4630D477002BD01CB54FEA40
:1011A000370703B44FF010004FF01001BAF1000FF1
:1011B00006D0BCF1000FDCBF40F0080040F0080191
:1011C0004FF000000FBCBDE810400BF1010BBBF16C
:1011D000010F08BF5FEA170722BF12F1010211F1E8
:1011E00001014FF0004143F1000300F0004043EAE9
:1011F00000007047F9D35708D0E746EA064613F1D6
:10120000400F4FEA16461FDD13F1200FDFBF1643D4
:101210000A46002120335B42BED0C3F1200746EAD4
:10122000064602FA07F74FEA164646EA0706C3F1F2
:10123000200722FA03F201FA07F721FA03F14FF02F
:10124000000342EA0702A7E746EA020646EA064624
:101250004FEA164646EA0106BCBF46EA0646360C89
:101260004FF000034FF000024FF0000194E72DE92A
:10127000804C9A46934670B491E8380007C831EA2A
:10128000400C48BF34EA430C03D5FFF7E6FDFFF7F7
:1012900080FFF0BCBDE8008C2DE9804C9A46934657
:1012A00070B491E8380007C810F0804F08BF13F001
:1012B000804F03D100F005F8FFF76BFFF0BCBDE8ED
:1012C000008C20F07F4780EA030023F07F4C07EB7F
:1012D0000C03A3F57C5300F00040A3F1FE0392F051
:1012E000000F00F0B38095F0000F00F077802DE93B
:1012F00001494FEA11404FEA144621EA004800FB39
:1013000006FC24EA064708FB06F607FB08F800FB84
:1013100007F718EB06484CEB164C4FEA124B18EB4C
:1013200007484FEA15464CEB174022EA0B4E0BFBE1
:1013300006FC25EA06470EFB06F607FB0EFE0BFB36
:1013400007F71EEB064E4CEB164C4FF000061EEB5B
:10135000074E4CEB174B18EB0B0840F1000018EB55
:101360000E0B58EB000840F100008F1A4FF00001FF
:101370003CBFC943661B14BFB5EB040C00213CBF46
:10138000C943F61B4FEA17444EEA8E0E27EA04457E
:101390004FEA1C4704FB07622CEA074C05FB07F7E2
:1013A0000CFB05F604FB0CFC16EB074642EB174260
:1013B00016EB0C4642EB1C421BEB060658EB0202F6
:1013C000414146EA9E0601D5BDE80189B619524160
:1013D00041EB0101A3F10103BDE801894FEA144586
:1013E0004FEA114724EA054621EA074C05FB07F4BA
:1013F00006FB07F70CFB06F105FB0CFC11EB0741A4
:1014000044EB17444FEA124711EB0C4144EB1C44E8
:1014100022EA074C05FB07F206FB07F70CFB06F672
:1014200005FB0CFC16EB074642EB174216EB0C468D
:1014300042EB1C456A1854F1000148BF7047B619C9
:10144000524141EB0101A3F10103704795F0000FF8
:1014500037D04FEA11424FEA144721EA024624EA04
:10146000074C02FB07F106FB07F70CFB06F402FB37
:101470000CFC14EB074441EB17414FEA154714EB02
:101480000C4441EB1C4125EA074C02FB07F506FB27
:1014900007F70CFB06F602FB0CFC16EB074645EBC8
:1014A000174516EB0C4645EB1C42121951F1000191
:1014B00048BF7047B619524141EB0101A3F1010346
:1014C00070474FEA14454FEA114724EA054621EADE
:1014D000074C05FB07F106FB07F70CFB06F24FF084
:1014E000000605FB0CFC12EB074241EB174112EB27
:1014F0000C4251EB1C4148BF7047921841EB01016F
:10150000A3F10103704721B1826842F001028260B9
:1015100003E0826822F00102826070470021084ADD
:101520001168084A1140D0E900231A4383681A431E
:10153000C3681A431143044AC2F8041370470000F9
:1015400004230140E030FCFF0020014021B182680B
:1015500042F48072826003E0826822F480728260CA
:10156000704721B1826842F40072826003E08268B1
:1015700022F400728260704730B5024600200023DA
:101580005068104C20400D790C6844EA0524204333
:10159000506090680C4C2040D1E903542C438D6876
:1015A0002C434D7944EA450420439060D06A20F4EE
:1015B00070000C7D641EE4B2234340EA0350D06205
:1015C00030BD0000FFFEFFFCFDF7FFC0F0B5044694
:1015D0000D4600200021092D11DDE068A5F10A0665
:1015E00006EB4607072606FA07F18843A5F10A0627
:1015F00006EB460603FA06F10843E0600CE02069BA
:1016000005EB4507072606FA07F1884305EB450673
:1016100003FA06F108432061072A0FDA606B561EB1
:1016200006EB86071F2606FA07F18843561E06EBCF
:10163000860605FA06F10843606322E00D2A0FDAF8
:10164000206BD61F06EB86071F2606FA07F1884394
:10165000D61F06EB860605FA06F10843206310E064
:10166000E06AA2F10D0606EB86071F2606FA07F1CF
:101670008843A2F10D0606EB860605FA06F108433B
:10168000E062F0BD816841F08041816070470000F8
:101690001CB50121082002F04DF94FF48060009044
:1016A00001208DF8040000208DF8060002208DF83E
:1016B000050000208DF807006946074800F066FD28
:1016C0004FF48061044800F0CEFD0120034988708A
:1016D000032001F06DFC1CBD000C024078010020CD
:1016E00010B5012003F056FF832002F0C7F9002453
:1016F00006E0FF2002F0C2F905490855601CC4B29B
:10170000062CF6DB002003F045FF03F034FF10BD8C
:10171000C400002010B53248807800285FD03148DE
:101720000088401C2F4908802F4800682F4909680D
:1017300008442D490860084640682C494968084417
:1017400029494860084681682548B0F908000844DE
:101750002549886023480088322840DB00240FE0B8
:10176000214850F82400322190FBF1F000B22049CA
:1017700021F8140000201C4941F82400601CC4B268
:10178000032CEDDB002017490880154988701848A4
:10179000008810FB00F116484088154A528810FB5B
:1017A0000210C0F1807000EE900AF8EEE00AB0EE90
:1017B000600A02F0B7FBBDEEC00A10EE100A00B2DC
:1017C0000B49C8800846B0F90400B1F90610401A68
:1017D00000EE100AB8EEC00A064880ED020A10BDFD
:1017E0009C030020CA00002008040020F003002011
:1017F000CC000020D804002000B58DB001210420C9
:1018000002F098F80121080202F0B4F801F01CFB84
:1018100003208DF8300020200B9000208DF833003D
:101820000BA91B4800F0B2FC0020099007904FF470
:101830008030089000200A9007A8FFF76FFE002074
:1018400001908DF8080001208DF809000020039018
:10185000059001208DF8180001A90E48FFF78CFEB5
:10186000072301220F210B48FFF7B0FE0121094891
:10187000FFF777FE01210748FFF745FE01210548E4
:10188000FFF764FE0348FFF7FDFE0DB000BD00004A
:10189000000802400020014010B52DED028B4348A6
:1018A000D0ED060A90ED061AB7EE000A00EEC10A66
:1018B000B5EEC00AF1EE10FA02D89FED3D0A1BE02A
:1018C0003A48D0ED060A90ED061AB7EE000A00EE8F
:1018D000C10AF7EE000AB4EEE00AF1EE10FA02DDFA
:1018E000B7EE000A08E03148D0ED060A90ED061A7E
:1018F000B7EE000A00EEC10AB0EE408A2D4890ED26
:101900000F0AB5EEC00AF1EE10FA02DD90ED0F0AF3
:1019100004E0284890ED0F0AB1EE400ADFED260AF8
:10192000B4EEE00AF1EE10FA3DDDB0EE480A02F046
:10193000F9FAF0EE408A1D48D0ED060AB0EE600AD2
:10194000F0EE680A03F0F6FEB1EE400ADFED1B0A86
:1019500020EE200A174880ED050A144890ED081A79
:10196000F0EE410A90ED071AB0EE410A03F0E2FEF4
:10197000DFED120A20EE200A0E4880ED040A0B4823
:1019800090ED001AF0EE410A90ED031AB0EE410A14
:1019900003F0D0FEB1EE400ADFED080A20EE200A87
:1019A000044880ED060ABDEC028B10BD80040020C7
:1019B00000000000DC000020CDCC4C3D33336542FC
:1019C00010B503F0F9FD04F039FE04F063FF14488C
:1019D00090ED010ADFED130A80EE201A9FED120A46
:1019E00021EE000A114880ED000A0D4890ED020A30
:1019F000DFED0C0A80EE201A9FED0D0A21EE000AA1
:101A00000A4880ED010A90ED000AB5EEC00AF1EE39
:101A100010FA04D09FED070A074880ED040A10BDB4
:101A20009002002000004842000070425400002054
:101A300000409CC500000000FC0200209FED060A4B
:101A4000064880ED000A9FED040A80ED010A9FED33
:101A5000020A80ED020A7047000000001404002012
:101A600021B1026842F00102026003E0026822F044
:101A7000010202607047014600200A6802F001027C
:101A80000AB1012000E000207047000010B50022DC
:101A90000268134B1A40CC680B6823434C692343FC
:101AA0008C692343CC6923430C6A23434C6A234348
:101AB0008C6A23434C6B23438C6B23431A43026091
:101AC000426922F00702D1E90B3423431A434261F1
:101AD0000B6943604B6883608B68C36010BD000076
:101AE0003F801CF010B52DED048B0446C9480078EA
:101AF00028B92A2C03D10120C649087087E1C548BE
:101B00000078012819D1442C03D0542C01D0532C37
:101B100013D1442C04D0532C0AD0542C0CD103E004
:101B20000B20BC49087007E01520BA49087003E093
:101B30001F20B849087000BF69E1B64800780A283C
:101B400054DDB4480078142850DCB24800780B28E3
:101B500005D1582C03D10C20AE49087057E1AD488F
:101B600000780C2805D10D20AA490870AA480470F5
:101B70004DE1A84800780D280FD10E20A549087026
:101B8000A5484470FEF752FC323800EE100AB8EE59
:101B9000C00AA14880ED020A39E19E4800780E286B
:101BA00005D1592C03D10F209A4908702FE199488B
:101BB00000780F2805D110209649087096480470C7
:101BC00025E194480078102898D1002091490870A8
:101BD00091484470FEF72AFCC0F1320000EE100A72
:101BE000B8EEC00A8C4880ED010A10E189480078FF
:101BF00014287DDD874800781E2879DC8548007828
:101C000015280BD1422C03D1162082490870FEE022
:101C1000532C91D117207F490870F8E07D48007857
:101C200016286CD1312C06D0322C32D0332C19D05E
:101C3000342C5CD144E0794890ED000A10EE101A83
:101C4000084605F061FD41EC190B9FED750B53EC57
:101C5000102B04F08BFF41EC180B04F055FF6F497B
:101C6000086044E06D4890ED000A10EE101A084636
:101C700005F04AFD41EC190B9FED690B53EC102B5D
:101C800005F058FC41EC180B04F03EFF6349086076
:101C90002DE0624890ED020A10EE101A084605F099
:101CA00033FD41EC190B9FED600B53EC102B04F04E
:101CB0005DFF41EC180B04F027FF5849886016E0DF
:101CC000564890ED020A10EE101A084605F01CFD69
:101CD00041EC190B9FED540B53EC102B05F02AFC33
:101CE00041EC180B04F010FF4C49886000BF01E084
:101CF00073E004E000BF00204649087087E04548D3
:101D00000078172868D1312C06D0322C32D0332CF1
:101D100019D0342C5CD144E0454890ED000A10EE17
:101D2000101A084605F0F0FC41EC190B9FED410B31
:101D300053EC102B04F01AFF41EC180B04F0E4FEF6
:101D40003B49086044E03A4890ED000A10EE101A52
:101D5000084605F0D9FC41EC190B9FED360B53EC0E
:101D6000102B05F0E7FB41EC180B04F0CDFE3049D9
:101D700008602DE02E4890ED010A10EE101A08467A
:101D800005F0C2FC41EC190B9FED2C0B53EC102B12
:101D900004F0ECFE41EC180B04F0B6FE2449486058
:101DA00016E0234890ED010A10EE101A084605F0DF
:101DB000ABFC41EC190B9FED210B53EC102B05F004
:101DC000B9FB41EC180B04F09FFE1949486000BFB5
:101DD00000BF00200F49087019E00E4800781E2847
:101DE00012DD0C48007828280EDC432C03D101209A
:101DF0001449087204E0632C02D1002011490872D2
:101E000000200449087002E0002002490870BDEC7F
:101E1000048B10BD3600002090020020E00200205C
:101E200000000000000004409A9999999999B93FDF
:101E3000FC02002000000000000000409A999999DF
:101E40009999993FD00200204FF08041496A09B228
:101E5000114A126812B2891A00EE101AB8EEC00ABE
:101E60000E4981ED000A00214FF0804251620A4A7A
:101E700011600B4991ED030AD1ED030A074991ED79
:101E8000001A71EE600AB6EE001A01EE200A04494B
:101E900081ED030A70470000240400403800002050
:101EA000D002002030B10749096841F48061054A39
:101EB000116005E00349096821F48061014A11605D
:101EC00070470000003C024070B504460A460026F8
:101ED000092502B909E0012A01D1160205E0022A0A
:101EE00001D1160201E04FF4407600F09FF805465C
:101EF000092D28D11548006820F440701349086066
:101F000008460068304308600846006820F0F80082
:101F100008600846006844F0020108430B49086065
:101F20000846006840F48030086000F07FF80546FD
:101F30000648006820F0020004490860084600686E
:101F400020F0F8000860284670BD0000103C0240F8
:101F500009201349096801F48031B1F5803F01D1AE
:101F600001201CE00E49096801F0100109B10620AA
:101F700015E00B49096801F4807109B102200EE0F7
:101F80000749096801F0EF0109B1072007E004499A
:101F9000096801F0020109B1082000E0092070473A
:101FA0000C3C02400348006840F0004001490860D2
:101FB00070470000103C024030B502460C4609252F
:101FC00000F034F80546092D19D10E48006820F4B8
:101FD00040700C4908600846006840F400700860D2
:101FE0000846006840F001000860146000F01EF828
:101FF00005460448006820F00100024908602846B0
:1020000030BD0000103C02400548006800F0004070
:1020100028B1044802490C39086003480860704739
:10202000103C024023016745AB89EFCD08B509207C
:102030000090FFF78DFF009002E0FFF789FF00900E
:102040009DF800000128F8D09DF8000008BD0000B0
:1020500000B509221D491E4801F024FE1B4890EDE1
:10206000030A1C4880ED000A184890ED040A19483C
:1020700080ED010A154890ED050A164880ED020A28
:10208000124890ED000A134880ED030A0F4890EDC6
:10209000010A104880ED040A0C4890ED020A0D4830
:1020A00080ED050A094890ED060A0A4880ED060A07
:1020B000064890ED070A074880ED070A034890EDAF
:1020C000080A044880ED080A00BD0000340300201F
:1020D00000000E08D804002010B5044609220B4960
:1020E0000B4801F0DFFD94ED000A084880ED030A7B
:1020F00094ED010A80ED040A94ED020A80ED050AD0
:1021000009220146024801F0E1FD10BD3403002020
:1021100000000E0810B5044609220B490B4801F0D7
:10212000C1FD94ED030A084880ED000A94ED040A0D
:1021300080ED010A94ED050A80ED020A09220146AC
:10214000024801F0C3FD10BD3403002000000E085A
:1021500010B5044609220B490B4801F0A3FD94ED8C
:10216000060A084880ED060A94ED070A80ED070A82
:1021700094ED080A80ED080A09220146024801F0A0
:10218000A5FD10BD3403002000000E08F0B50A467E
:1021900000210023002400BF3DE0012505FA01F3E2
:1021A000156805EA03049C4234D105684F000326F4
:1021B000BE40B543056015794E00B540066835430D
:1021C00005601579012D02D01579022D16D185688B
:1021D0004F000326BE40B543856055794E00B5409B
:1021E000866835438560456801268E40B543456065
:1021F000456896798E40B6B235434560C5684F0054
:102200000326BE40B543C560D5794E00B540C668CB
:102210003543C560491C1029BFD3F0BDF0B500237C
:1022200000244D07ED0E02FA05F3CE1000F1200553
:1022300055F826504E07F70E0F26BE40B543CF1077
:1022400000F1200646F82750CE1000F1200555F881
:10225000265045EA0304CE1000F1200545F826403B
:10226000F0BD4183704701837047000010B52DED2C
:10227000068B82B004469FED180A184880ED000ACC
:102280009FED170A80ED010A9FED160A80ED020A04
:102290001548807811498873204604F0EFFE41EC20
:1022A0001A0B9FED120B53EC102B04F037FF41EC8F
:1022B000190B04F029FC08EE100A0E480E4B0F4AC9
:1022C000A2F10C0100900548B0EE480A00F018F8A1
:1022D00002B0BDEC068B10BD9A99993E28010020F2
:1022E0006F12033BCDCC4C3E78010020FCA9F1D20B
:1022F0004D62503FDC000020D0040020DC030020B1
:102300002DE9F0432DED0C8B83B0B0EE408A0746EB
:102310000E4690469946169C94ED000AD4ED010AAB
:1023200020EE200AF0EE409A94ED000AD4ED020A65
:1023300020EE200AB0EE40AA94ED010A20EE000A39
:10234000F0EE40AA94ED010AD4ED030A20EE200A33
:10235000B0EE40BA94ED020A20EE000AF0EE40BA68
:1023600094ED020AD4ED030A20EE200AB0EE40CA32
:1023700094ED030A20EE000AF0EE40CA94ED010A43
:10238000D4ED020A20EE200AB0EE40DA94ED000A05
:10239000D4ED030A20EE200AF0EE40DAD4ED000A74
:1023A00060EEA00A94ED011AD4ED011A41EE210A63
:1023B00094ED021AD4ED021A41EE210A94ED031AAB
:1023C000D4ED031A41EE210AB0EE600A00F074FD6C
:1023D000F0EE408A94ED000A20EE280A84ED000A0F
:1023E00094ED010A20EE280A84ED010A94ED020A18
:1023F00020EE280A84ED020A94ED030A20EE280A52
:1024000084ED030AD8F800004043D8F8041001FB1B
:102410000100D8F8081001FB010000EE900AF8EE68
:10242000E00AB0EE600A00F047FDB0EE409A98ED89
:10243000000AB8EEC00A20EE090A8DED000A98EDF8
:10244000010AB8EEC00A20EE090A8DED010A98EDE6
:10245000020AB8EEC00A20EE090A8DED020AB0EEBB
:10246000000A2BEE000AF0EE000A00EECA0A84ED24
:102470000D0AFD4880ED060AB0EE000A29EE800A3A
:10248000F0EE000A00EE8C0A84ED0E0A80ED070AD9
:10249000B0EE000A2AEE800AF0EE000A00EEAB0A67
:1024A000F7EE000A30EEC00A84ED0F0A80ED080A4C
:1024B0009DED010AD4ED0F0A20EE200ADDED020A9F
:1024C00094ED0E1A00EEC10AE84880ED000A9DED79
:1024D000020AD4ED0D0A20EE200ADDED000A94ED8B
:1024E0000F1A00EEC10A80ED010A9DED000AD4ED3D
:1024F0000E0A20EE200ADDED010A94ED0D1A00EE21
:10250000C10A80ED020AB0EE000A2BEE800AF0EE5E
:10251000000A00EEAC0AF7EE000A30EEC00A84EDC5
:10252000070AD14880ED000AB0EE000A2DEE000A3D
:10253000F0EE000A00EEED0A84ED080A80ED010AD3
:10254000B0EE000A2BEE000AF0EE000A00EE8A0A56
:1025500084ED090A80ED020AB0EE000A2DEE000AB1
:10256000F0EE000A00EEAD0A84ED0A0A80ED030ADF
:10257000B0EE000A2AEE800AF0EE000A00EEAC0A85
:10258000F7EE000A30EEC00A84ED0B0A80ED040A73
:10259000B0EE000A2CEE000AF0EE000A00EEE90AA6
:1025A00084ED0C0A80ED050A00250CE039F91500D0
:1025B00000EE100AB8EEC00AAD4800EB850080EDD1
:1025C000000A681CC5B2032DF0DBB9F8000028B979
:1025D000B9F8020010B9B9F8040080B304F1400260
:1025E00004F13401A248B0EE480A03F055FCD4EDE2
:1025F000060A30EE600A9F4880ED000A90ED000A5E
:10260000DFED9D0AB4EEE00AF1EE10FA06DD90ED82
:10261000000ADFED9A0A30EE600A14E0954890ED6A
:10262000000ADFED970AB4EEE00AF1EE10FA07D2E5
:1026300090ED000ADFED910A30EE200A03E005E09C
:102640008C4890ED000A8B4880ED000A002562E07E
:102650008C4800EB850090ED000A844800EB850073
:10266000D0ED000A9FED881AF4EEC10AF1EE10FADF
:1026700002D8DFED850A13E07C4800EB8500D0ED41
:10268000000A9FED821AF4EEC10AF1EE10FA02DDA3
:10269000DFED7E0A04E0754800EB8500D0ED000A0E
:1026A0007B4890ED001A60EE810A00EE880A7548BA
:1026B00000EB850080ED000A724800EB850090ED8C
:1026C000000A6A4800EB8500D0ED000A714890EDE1
:1026D000001A00EE810A06EB8500D0ED000A30EE0C
:1026E000200A04F1340000EB8500D0ED000A6148B7
:1026F00090ED001A60EE810A674890ED001A60EED6
:10270000810A9FED661A00EEC10A06EB850080ED96
:10271000000A681CC5B2032D9ADBB0EE000A88EEF1
:10272000001A94ED010AB1EE400AD6ED000A20EE3F
:10273000200AD4ED020AD6ED011A00EEE10AD4ED2A
:10274000030AD6ED021A00EEE10AD4ED000A40EECB
:10275000010AC4ED000AB0EE000A88EE001A94EDFA
:10276000000AD6ED000A20EE200AD4ED030AD6EDC9
:10277000011A00EEE10AD4ED020AD6ED021A00EECB
:10278000A10AD4ED010A40EE010AC4ED010AB0EE3F
:10279000000A88EE001A94ED030AD6ED000A20EE36
:1027A000200AD4ED000AD6ED011A00EEA10AD4EDFC
:1027B000010AD6ED021A00EEE10AD4ED020A40EE5B
:1027C000010AC4ED020AB0EE000A88EE001A94ED88
:1027D000020AB1EE400AD6ED000A20EE200AD4ED3E
:1027E000010AD6ED011A00EEA10AD4ED000AD6EDD9
:1027F000021A00EEA10AD4ED030A40EE010AC4ED6C
:10280000030AB87B38B99FED260A234880ED000AF9
:10281000002078734BE0787B28B3B1EE040A1E48A1
:1028200080ED000A134890ED000AB5EEC00AF1EE03
:1028300010FA3CD090ED000AB5EEC00AF1EE10FAA5
:1028400002DD90ED000A04E00A4890ED000AB1EEC6
:10285000400AF0EE000AB4EEE00AF1EE10FA26D2D9
:102860000020787323E01DE080040020B0040020E5
:10287000A40400204C010020000034430000B443B5
:10288000000034C3BC0400200AD723BC0AD7233C71
:1028900054010020500100205801002035FA8E3CE0
:1028A0000000000097ED020A3E4880ED000A387BE8
:1028B00050B997ED000A3C4880ED000A97ED010AF7
:1028C0003A4880ED000A67E0B2EE040A364880ED2F
:1028D000000A1FED0D0A354880ED000A344890EDDE
:1028E000000AB5EEC00AF1EE10FA02DD90ED000A22
:1028F00004E02F4890ED000AB1EE400A2C48D0EDDC
:10290000010AF5EEC00AF1EE10FA02DDD0ED010A7F
:1029100004E02748D0ED010AF1EE600A30EE200A0B
:10292000244880ED000A90ED000AB5EEC00AF1EEF1
:1029300010FA02D81FED260A0FE01E4890ED000A9B
:10294000F7EE000AB4EEE00AF1EE10FA02DDB7EE9F
:10295000000A02E0174890ED000A164880ED000AD0
:1029600090ED000ADFED140AB4EEE00AF1EE10FA81
:102970000FD2787B68B911480088801C0F49088005
:1029800008460088B0F5FA7F06DD0020088038731D
:1029900002E000200949088003B0BDEC0C8BBDE8C3
:1029A000F083000058010020500100205401002055
:1029B000B004002048010020CDCC4C3D4401002053
:1029C0001CB50121082000F0B5FF4FF48070009085
:1029D00001208DF8040000208DF8060002208DF8FB
:1029E000050000208DF8070069460448FFF7CEFB7C
:1029F0004FF480710148FFF736FC1CBD000C02400B
:102A000010B5034A0E213B2003F078F810BD0000FA
:102A10008C03002008B580216B2003F082F80A2087
:102A200002F0EEFD01216B2003F07BF80A2002F09A
:102A3000E7FD6A460121752003F060F89DF800006B
:102A4000122801D0002008BD0321682003F069F896
:102A50000A2002F0D5FD01216A2003F062F80A2065
:102A600002F0CEFD4021702003F05BF80A2002F056
:102A7000C7FD00216C2003F054F80A2002F0C0FDCD
:102A80000021192003F04DF80A2002F0B9FD0421BD
:102A90001A2003F046F80A2002F0B2FD18211B208C
:102AA00003F03FF80A2002F0ABFD10211C2003F0D8
:102AB00038F80A2002F0A4FD04211D2003F031F8AB
:102AC0000A2002F09DFD00211E2003F02AF80A20B2
:102AD00002F096FD0021232003F023F80A2002F0E3
:102AE0008FFDFEF7ABFF0120ADE7000070B52DEDC7
:102AF000028B05469FEDC70AB0EE408A4DB14FF4F8
:102B00007A7090FBF5F000EE100AB8EEC00AB0EE55
:102B1000408A284602F0F6FEBF484078BE49097850
:102B200040EA012000B2BD498880BB48C078BA495C
:102B3000897840EA012001B2B848C180B64840799E
:102B4000B549097940EA012001B2B4480181B2488F
:102B5000407AB149097A40EA012000B2AF49488180
:102B6000AD48C07AAC49897A40EA012001B2AB484D
:102B70008181A948407BA849097B40EA012001B234
:102B8000A648C181A448C079A349897940EA0120B7
:102B900000B2A249A1F84C000846B0F94C0000EE82
:102BA000100AB8EEC00A9FED9E1AC0EE010AB3EEFD
:102BB000090A30EE800A084680ED140A00242FE04E
:102BC0009648001D30F9140000EE100AB8EEC00A55
:102BD000944800EB8400D0ED000A30EE600ABDEEB0
:102BE000C00A10EE100A904941F824008B480A30C0
:102BF00030F9140000EE100AB8EEC00A89480C3013
:102C000000EB8400D0ED000A30EE600ABDEEC00A91
:102C100010EE100AE11C844A42F82100601CC4B284
:102C2000032CCDDBFEF776FD00243EE0E01C7E4960
:102C300051F8200000EE100AB8EEC00A7B4800EB05
:102C40008400D0ED000A70EE600A74481C3000EB7E
:102C5000840090ED000A9FED761A01EE200A6F487D
:102C60001C3000EB840080ED000A084650F8240078
:102C700000EE100AB8EEC00A6E4800EB8400D0EDFA
:102C8000000A70EE600A6548103000EB840090ED99
:102C9000000A9FED671A01EE200A6048103000EB31
:102CA000840080ED000A601CC4B2032CBEDB00244B
:102CB00030E05A481C3000EB840090ED000ADFED54
:102CC0005E0A20EE200A5D4800EB840080ED000AD9
:102CD0005A4800EB840090ED000A58480C3000EB95
:102CE0008400D0ED000A30EE600A20EE080A534856
:102CF000183000EB840080ED000A504800EB84009F
:102D000090ED000A4D480C3000EB840080ED000A85
:102D1000601CC4B2032CCCDB48480C3890ED0B0A85
:102D2000D0ED010A20EE200A80ED0C0A90ED090A90
:102D3000D0ED020A20EE200A80ED0D0A90ED0A0A7D
:102D4000D0ED000A20EE200A80ED0E0A002423E0D8
:102D500032481C3000EB840090ED000A334800EB51
:102D6000840080ED000A3548243000EB8400D0ED6B
:102D7000000A9FED331A80EE810A2848103000EBDC
:102D80008400D0ED000A30EEC00A2A4800EB84002F
:102D900080ED000A601CC4B2032CD9DB002433E0B0
:102DA0001E481C3000EB840090ED000ADFED250A80
:102DB00020EE200A1948283000EB840080ED000A3C
:102DC00016481C3000EB840090ED000ADFED1A0A73
:102DD00020EE200A1148343000EB840080ED000A18
:102DE0000E48103000EB840090ED000ADFED140A6D
:102DF00020EE200ABDEEC00A10EE100A074940314D
:102E000041F82400601CC4B2032CC9DBBDEC028B6A
:102E100070BD0000000000008C0300209C03002017
:102E20006666A343D8040020F00300206804002055
:102E30008FC2F53D7404002078978B3A200400205F
:102E40000F0B753EEF017A3D00B58FB0012188056B
:102E500000F070FD00BF1548FEF70DFE0028FAD106
:102E60000090134801901348029000200390012025
:102E700004900020059006904FF4006007908000B9
:102E8000089000010A904012099000200B90012048
:102E90000C9000200D900E9069460448FEF7F6FD58
:102EA00001210248FEF7DCFD0FB000BD10640240B6
:102EB0004C2001403C000020B6EE001A20EE011A22
:102EC000F0EE410A10EE100A0749A1EB600000EE97
:102ED000100A60EE801AB7EE081A01EEC01A21EE51
:102EE000001AB0EE410A7047865A375F10B500F0FD
:102EF00089FF0120FFF7FAFD0120FFF7B7F910BDA8
:102F000010B5FEF7C9FC10BD10B5FEF759FD00F075
:102F100089FA10BD00B52DED048B83B000F084FB61
:102F2000144890ED030A10EE101A084604F0ECFB6A
:102F300041EC180B104890ED050A10EE101A0846E7
:102F400004F0E2FB41EC190B8DED008B53EC192BD7
:102F50000AA10E48FDF7BAF90C48FDF774FA0C49BE
:102F6000087008460178094803F068FD03B0BDEC1D
:102F7000048B00BDD0020020DC0000202A47253051
:102F80002E32662C25302E32662A2000580300206F
:102F90006C0000207047704710B5142000F02EFA26
:102FA000142000F049FC1420FEF74EFF10BD000075
:102FB0000146012908D14FF60C62154B9A804FF457
:102FC000FA72144B9A8022E0022910D100200BE003
:102FD0004FF60C620E4B23F810204FF4FA720D4B93
:102FE00023F81020421CD0B20228F1DB0FE00020B1
:102FF0000BE04FF60C62064B23F810204FF4FA72E8
:10300000044B23F81020421CD0B20328F1DB704798
:103010006201002068010020002025E0144931F9F8
:103020001010144A32F91020914203DB104931F993
:10303000101002E00F4931F910100D4A22F810105B
:103040000D4931F910100B4A32F91020914203DA80
:10305000094931F9101002E0064931F91010064A09
:1030600022F81010411CC8B20228D7DB70470000BC
:10307000620100205C010020680100201148B0F9C5
:1030800004001149B1F90410884203DB0D48B0F97E
:10309000040002E00C48B0F904000A4988800B489B
:1030A000B0F904000849B1F90410884203DA07486E
:1030B000B0F9040002E00448B0F904000349888034
:1030C00070470000620100205C01002068010020C0
:1030D00070B52DED0E8B0546B0EE408AF0EE608A9D
:1030E000002417E09F4830F9140000EE100AB8EEF3
:1030F000C00A9D4800EB8400D0ED000A30EE600A63
:10310000BDEEC00A10EE100A01B2984820F8141063
:10311000601CC4B2032CE5DB944808380078002812
:1031200070D092480838407802286CD003DC38B15F
:10313000012869D16AE00A2867D00B28F9D1D5E0C7
:10314000FFF76AFF8A4890ED0F0ADFED8A0AB4EEB6
:10315000E00AF1EE10FA04D20A20844908394870D6
:103160004FE018EE900A04F0CFFA41EC1C0B284611
:1031700003F084FF41EC1E0B9FED7F0B53EC102BF3
:1031800003F0CCFF41EC1D0B53EC1C2B03F0C6FFEE
:1031900041EC1A0B7A4890ED000A10EE101A08461E
:1031A00004F0B2FA41EC1B0B53EC1A2B03F0DEFCDB
:1031B00041EC190B03F0A8FC71490860084690ED3A
:1031C000000AB5EEC00AF1EE10FA02DD90ED000A39
:1031D00004E06B4890ED000AB1EE400ADFED690AA9
:1031E000B4EEE00AF1EE10FA0BDD9FED670A6448D9
:1031F00080ED000A01205D490839487000206349CC
:10320000088088E0A6E032E084E062E0FFF736FF65
:103210005B48D0ED010A00EE105AB8EE400A9FED6F
:103220005C1A20EE010A40EE080AC0ED010A90ED9A
:10323000010AB5EEC00AF1EE10FA02DD90ED010AC6
:1032400004E04F4890ED010AB1EE400ADFED4D0A6F
:10325000B4EEE00AF1EE10FA08DD9FED4B0A4848A3
:1032600080ED010A022041490839487053E00024EA
:1032700015E0484830F91400474931F91410084462
:1032800000EE100AB8EEC00AF6EE000A20EE200AA0
:10329000354800EB840080ED000A601CC4B2032CAA
:1032A000E7DB31481838FEF753FF0320FFF780FEB5
:1032B0009FED350A324880ED000A9FED330A80ED1C
:1032C000010A002029490839487008702F490880F0
:1032D00021E00220FFF76CFE9FED2B0A284880EDCD
:1032E000000A002021490839487014E00320FFF744
:1032F0005FFE9FED250A224880ED000A9FED220A1D
:1033000080ED010A002019490839487008701F49EA
:10331000088000E000BF00BF14480838407820B1A2
:10332000124808384078012810D11848008843F620
:103330009821884205DA15480088284413490880F6
:103340000CE00B2009490839487007E000200F49BC
:10335000088003E00020054908394870BDEC0E8B59
:1033600070BD00005C010020F0040020D0040020AB
:10337000DC000020F6287C3FFCA9F1D24D62503FD2
:10338000700100200000B443000000006E01002026
:103390006F12833A6201002068010020144800780F
:1033A0001349497840EA012000B212494880104888
:1033B00080780F49C97840EA012001B20D48818028
:1033C0000B4800790A49497940EA012001B20948CD
:1033D000C18040880849088006488088404200B281
:1033E00048800448C088404200B28880704700008E
:1033F000C4000020C80400205C01002010B5044671
:10340000FFF7CCFF064890ED0C1AF0EE410A90ED64
:103410000A1AB0EE410A2046FFF75AFE10BD00001E
:103420009C0300204F4890ED060A4F48D0ED060A55
:1034300030EE200A4D48D0ED060A30EE200A4C4806
:1034400080ED000A474890ED060A4748D0ED060A8D
:1034500030EE200A4548D0ED060A30EE600A4448B6
:1034600080ED010A434890ED050AB5EEC00AF1EE81
:1034700010FA02DD90ED050A04E03E4890ED050AE1
:10348000B1EE400ADFED3C0AB4EEE00AF1EE10FACC
:1034900064D23748007A012860D13849086034483E
:1034A00090ED000AB5EEC00AF1EE10FA02DD90EDE3
:1034B000000A04E02E4890ED000AB1EE400ABCEE8E
:1034C000C00A10EE100A2E494863294890ED010AFF
:1034D000B5EEC00AF1EE10FA02DD90ED010A04E04B
:1034E000234890ED010AB1EE400ABCEEC00A10EE8E
:1034F000100A234908641E4890ED000AB5EEC00A80
:10350000F1EE10FA08DD00201C4914390860012092
:103510001C49C1F8AC0207E00120184914390860C1
:1035200000201849C1F8AC02114890ED010AB5EE2F
:10353000C00AF1EE10FA08DD002010490C390860CD
:1035400001201049C1F8B4020BE001200B490C39ED
:10355000086000200B49C1F8B40202E000200749CE
:1035600008607047E0020020FC02002018030020E1
:10357000D0020020DC00002000008C42BC0242424D
:10358000000001400000424270B504460D4605F1BE
:10359000B001C8B2002100F00FF8102141EA141068
:1035A000002100F009F804F00F0141F001000021B2
:1035B00000F002F870BD000070B504460E4626B15A
:1035C00020211848FEF74FFE03E020211548FEF7A2
:1035D00048FE40211348FEF744FE002517E0042171
:1035E0001048FEF73EFE04F0800020B108210D488F
:1035F000FEF739FE03E008210A48FEF732FE0421F7
:103600000848FEF730FE6006040E681CC5B2082D9F
:10361000E5DB40210348FEF726FE20210148FEF7A6
:1036200022FE70BD0010024010B52DED028B5948EE
:10363000007800BB58A20021084602F069FF57A29B
:103640000221002002F064FF55A20421002002F0B4
:103650005FFF54A20621002002F05AFF52A200216F
:10366000482002F055FF51A20421482002F050FFEB
:10367000012048490870082338220021202002F048
:10368000C1FD4B4890ED000A10EE101A084604F0F8
:103690003BF841EC180B0122B0EE480AF0EE680A44
:1036A0000021182002F018FE414890ED020A10EEA9
:1036B000101A084604F028F841EC180B0122B0EE6D
:1036C000480AF0EE680A0221182002F005FE394887
:1036D00090ED000A10EE101A084604F015F841ECBF
:1036E000180B0122B0EE480AF0EE680A04211820F7
:1036F00002F0F2FD2F4890ED010A10EE101A084674
:1037000004F002F841EC180B0322B0EE480AF0EE88
:10371000680A0621182002F0DFFD274890ED050A0F
:1037200010EE101A084603F0EFFF41EC180B0422CC
:10373000B0EE480AF0EE680A0021582002F0CCFDF5
:103740001C4890ED040A10EE101A084603F0DCFF46
:1037500041EC180B0422B0EE480AF0EE680A06218C
:10376000582002F0B9FD154890ED000A10EE101A2D
:10377000084603F0C9FF41EC180B0422B0EE480ADA
:10378000F0EE680A1146582002F0A6FDBDEC028B4F
:1037900010BD00003400002042703A0042643A003C
:1037A00053703A0053693A00503D0000563D000006
:1037B000E0020020FC020020DC000020400000208D
:1037C0009FED130A134880ED000A9FED130A80ED68
:1037D000010A9FED120A80ED020A9FED110A1148BD
:1037E00080ED000A9FED100A80ED010A9FED0A0AA4
:1037F00080ED020A9FED0D0A0D4880ED000A9FED55
:10380000060A80ED010A9FED0B0A80ED020A70475F
:1038100000005C43E0020020000000003333B33FAF
:103820000000B442FC020020CDCCCC3D3333333F0A
:10383000180300209A99993E35490978491C344A61
:1038400011703449098800EE901AF8EE600A9FED75
:10385000321A60EE810AB0EE600A3049D1ED000AFA
:1038600091ED001A30EE411A2D49D1ED001A41EECA
:10387000810A2A49C1ED000A114609780A2291FB02
:10388000F2F302FB1311C1B32449D1ED000A25491B
:1038900091ED001A70EEC10AF5EEC00AF1EE10FAD1
:1038A00008DD1E49D1ED000A1E4991ED001A70EEA7
:1038B000C10A09E01949D1ED000AF1EE600A19497F
:1038C00091ED001A70EEC10A9FED171AF4EEC10ACD
:1038D000F1EE10FA15D2DFED150A1149C1ED000A1B
:1038E0000E49D1ED000A9FED121AF4EEC10AF1EE75
:1038F00010FA03D20121094A117102E00021074A9E
:1039000011710649D1ED000A0649C1ED000A704760
:103910004C0000203C000020EF03103C4000002041
:103920004800002050000020CDCCCC3D0AD7233CDD
:103930006666364129B1064A12680243044B1A6092
:1039400004E0034A12688243014B1A60704700008A
:103950003038024029B1064A12680243044B1A600B
:1039600004E0034A12688243014B1A60704700006A
:103970004038024029B1064A12680243044B1A60DB
:1039800004E0034A12688243014B1A60704700004A
:1039900044380240F0B50021002200240225002610
:1039A0000223324F3F6807F00C0121B1042905D0F2
:1039B000082937D105E02E4F076036E02D4F07600C
:1039C00033E02A4F3F1F3F68C7F38056274F3F1F02
:1039D0003F6807F03F036EB1264FB7FBF3F7DFF800
:1039E0008CC0ACF1040CDCF800C0CCF3881C07FBE5
:1039F0000CF40CE01E4FB7FBF3F7DFF870C0ACF12E
:103A0000040CDCF800C0CCF3881C07FB0CF4174F47
:103A10003F1F3F68C7F301477F1C7D00B4FBF5F7EC
:103A2000076002E0124F076000BF00BF0F4F3F6802
:103A300007F0F0010909104F7A5C0768D74047602A
:103A40000A4F3F6807F4E051890A0B4F7A5C4768D8
:103A5000D7408760054F3F6807F46041490B064F28
:103A60007A5C4768D740C760F0BD00000838024064
:103A70000024F40000127A007D01002010B50446F5
:103A800000BF02210A4800F091F80028F9D0214631
:103A9000074800F097F800BF0121054800F086F8BC
:103AA0000028F9D0024800F08AF8C0B210BD00002A
:103AB0000038004070B505460E46002405E00020A1
:103AC000FFF7DCFF2855601C84B2B442F7DB70BD01
:103AD00000B587B001210220FFF72CFF05220D2140
:103AE0002A48FEF79BFB05220E212848FEF796FB8D
:103AF00005220F212548FEF791FB02208DF80400D6
:103B000003208DF8050000208DF8060001208DF8B7
:103B100007004003009069461C48FEF737FB4FF44E
:103B20008040009069461948FEF730FB4FF4004092
:103B3000009069461548FEF729FB01218803FFF72D
:103B400009FF0020ADF808004FF48270ADF80A00BC
:103B50000020ADF80C000220ADF80E000120ADF8F9
:103B600010004002ADF812000020ADF81400ADF8CE
:103B700016000720ADF8180002A9054800F024F847
:103B80000121034800F006F807B000BD0004024020
:103B90000038004021B1028842F04002028004E077
:103BA00002884FF6BF731A40028070470246002019
:103BB00013890B400BB1012000E000207047014643
:103BC000888970478181704710B50022028802F40D
:103BD00041520B884C8823438C882343CC88234351
:103BE0000C8923434C8923438C892343CC89234369
:103BF0001A430280838B4FF2FF74234083830B8A26
:103C0000038210BD01461C48814201D2002070474A
:103C10001A48814201D20820F9E71948814201D2AD
:103C20001020F4E71748814201D21820EFE7164828
:103C3000814201D22020EAE71448814201D22820A3
:103C4000E5E71348814201D23020E0E71148814284
:103C500001D23820DBE71048814201D24020D6E76C
:103C60000E48814201D24820D1E70D48814201D25D
:103C70005020CCE75820CAE7004000080080000828
:103C800000C000080000010800000208000004084D
:103C9000000006080000080800000A0800000C08E0
:103CA00000000E0830B503460C461546002207E01A
:103CB000184600F008F844F822001B1D501CC2B240
:103CC000AA42F5D330BD0146086870472DE9F04798
:103CD00004460E4617464FF009080025A946B4F1E0
:103CE000006F02D304F0030008B1BDE8F087FEF7CF
:103CF0008BF90020FEF7D6F8254604EB8709184813
:103D0000854215D211E02846FFF7DDFF401C58B16F
:103D10002846FFF777FF82460221FEF7D5F8804656
:103D2000B8F1090F01D002E02D1D4D45EBD300BFC6
:103D3000B8F1090F0CD108E020463168FEF73CF9D4
:103D4000092800D003E0361D241D4C45F4D300BFE4
:103D50000120FEF7A7F8FEF725F900BFC5E7000030
:103D60000000FF1F70B5002400BF1EE001F0AAFD97
:103D7000054604EB44000E4901EB80008068281AD8
:103D800004EB44010A4A02EB8101C98888420AD344
:103D900004EB4400114601EB8000856004EB440114
:103DA00052F821008047601CC4B2072CDED370BDDE
:103DB00070000020002000BF1FE000EB4001104A0F
:103DC00002EB810189884FF47A7292FBF1F100EBEA
:103DD00040020B4B03EB8202D18000EB40011A46FC
:103DE00002EB8101C988012905DA012100EB4002BB
:103DF00003EB8202D180411CC8B20728DDD3704793
:103E00007000002010B5FEF7FBFD0A480078401C4A
:103E10000849087008460078142190FBF1F201FB74
:103E20001200044908700846007808B9FDF758FCEC
:103E300010BD0000DA0000200CB5002001900090B9
:103E40003448006840F480303249086000BF31488F
:103E5000006800F4003000900198401C0190009828
:103E600018B90198B0F5A04FF1D12A48006800F4C4
:103E7000003010B10120009001E000200090009877
:103E8000012846D123484030006840F08050214945
:103E9000403108602048006840F440401E490860F6
:103EA0001C48083000681B49083108600846006853
:103EB00040F4004008600846006840F4A0500860E4
:103EC0001648091F0860081F006840F08070091F2D
:103ED000086000BF0F48006800F000700028F9D0AB
:103EE00040F205700E4908600A480830006820F06A
:103EF00003000849083108600846006840F00200E5
:103F0000086000BF03480830006800F00C00082873
:103F1000F8D10CBD00380240007000400854400742
:103F2000003C024000B5B0EE402AB0EE420AFEF777
:103F3000C3FF20EE020A00BD042808D14FF0E021A3
:103F4000096941F004014FF0E022116107E04FF0F0
:103F5000E021096921F004014FF0E022116170476E
:103F600002480068401C01490860704700000020BA
:103F700010B51548006840F47000134908601348F4
:103F8000006840F001001149086000200F49083125
:103F900008600E4800680E4908400C4908600D484A
:103FA000091D0860081F006820F48020091F0860B0
:103FB000002006490C310860FFF73EFF4FF000601B
:103FC00001498039086010BD88ED00E000380240EA
:103FD000FFFFF6FE10300024F0B50C461546002118
:103FE0000022068C4FF6FE773E400684018B028C41
:103FF0004FF60C7631407E1C06EA03162E43314301
:104000004FF6F576324044F00106324301830284D4
:10401000F0BDF0B50C461546002100220026078CA5
:104020004FF6EF7C07EA0C070784018B028C4FF6F2
:10403000FF7707EA041640F6FF4739404FF6FF774F
:1040400007EA033739434FF6FF7707EA0527394375
:104050004FF65F773A4046F010073A4301830284F7
:10406000F0BDF0B50C461546002100220026078C55
:104070004FF6FF6C07EA0C070784818B028C4FF622
:10408000FF7707EA04264FF60C7739404FF6FF77A3
:1040900007EA03172F4339434FF2FF573A4046F4DC
:1040A00080773A4381830284F0BDF0B50C46154613
:1040B000002100220026078C4EF6FF7C07EA0C0741
:1040C0000784818B028C4FF6FF7707EA043640F6AF
:1040D000FF4739404FF6FF7707EA052739434FF688
:1040E000FF7707EA0337394345F6FF773A4046F44E
:1040F00080573A4381830284F0BD000010B501214E
:104100000E4800F0D4F8B8B101210C4800F090F846
:104110000B480068401C0A49086001F027FE084867
:1041200000683221B0FBF1F201FB1200012803D13B
:104130009FED040A01F05EFE10BD0000001000407B
:1041400030000020000048422DE9FE4F04460D4695
:1041500001211020FFF7FEFB601E0190681E80B257
:10416000ADF800000020ADF80800ADF80200694687
:104170002C4800F093F936200322022617461346F6
:10418000C3F10709B9F1040F02D94FF0040901E0A6
:10419000C3F10709C84603F10409B9F1070F02D2B8
:1041A0004FF0000901E0A3F10309CC464FF00109EB
:1041B00009FA08F9A9F1010909EA060909FA0CF94D
:1041C0004FF0010A0AFA0CFAAAF1010A0AEA070AF0
:1041D00049EA0A0100BF002807DA0A07160E124A48
:1041E00000F00F031B1FD65403E00A07130E0F4AFB
:1041F000135400BF362000F01F02012191404209F4
:10420000920002F1E022C2F8001100BF0122114623
:10421000044800F094F80121024800F00CF8BDE8D1
:10422000FE8F00000010004018ED00E000E400E008
:10423000CA430282704721B1028842F00102028023
:1042400004E002884FF6FE731A400280704731B1D5
:10425000B0F8442042F40042A0F8442005E0B0F851
:104260004420C2F30E02A0F844207047F0B50C467B
:1042700015461E460021002200230189028B038C73
:104280004FF6F877394021434FF6FC473A4040F269
:1042900001173A434FF6DD773B404FF6FF7707EAC9
:1042A00006172F433B43018102830384F0BD30B5E1
:1042B0000246002000230024158A05EA010395899F
:1042C00005EA010413B10CB1012000E0002030BD6B
:1042D00070B505460C46208850B92389A2886188AC
:1042E0002846FFF779FEE188284600F0ABF825E084
:1042F000208804280AD12389A28861882846FFF7EC
:1043000088FEE188284600F0A6F817E020880828F3
:104310000AD12389A28861882846FFF7A2FEE18896
:10432000284600F0A5F809E02389A288618828467C
:10433000FFF7BBFEE188284600F0A3F870BD1AB174
:1043400083890B43838102E083898B438381704798
:1043500070B5002400220023058C4FF6FE76354010
:104360000584028C8388048B4FF68F752C40B51E14
:104370002C400D882C43751E2A408D892A434D8878
:104380002A43104DA84202D00F4DA84213D14FF638
:10439000F7752A40CD892A434FF6FB752A408D8850
:1043A0002A434FF6FF652B404FF6FF552B400D8AF1
:1043B0002B434D8A2B43838004838D68456302849D
:1043C00070BD0000000001400004014070B50022F3
:1043D00000230024058C4EF6FF7635400584038CBF
:1043E0008488828B48F6FF752A404FF6FF452A40A5
:1043F0000D884FF6FF7606EA05252A434DF6FF7530
:104400002B408D8906EA05352B434D8806EA053594
:104410002B430A4DA84202D0094DA84208D14BF6C1
:10442000FF752C400D8A4FF6FF7606EA85152C4362
:10443000848082838D680564038470BD0000014020
:1044400000040140028B4FF6F3731A400283028B83
:104450000A4302837047028B4FF2FF331A400283F4
:10446000028B4FF6FF7303EA01231A43028370475E
:10447000828B4FF6F3731A408283828B0A438283C6
:104480007047828B4FF2FF331A408283828B4FF644
:10449000FF7303EA01231A438283704700220288D4
:1044A000184B98420ED0184B98420BD0B0F1804F69
:1044B00008D0164B984205D0154B984202D0154BA8
:1044C000984204D14FF68F731A404B881A43124B0F
:1044D000984207D0114B984204D04FF6FF431A4040
:1044E0000B891A4302804B68C3620B880385054B16
:1044F000984202D0044B984201D18B7A0386012363
:104500008382704700000140000401400004004025
:1045100000080040000C0040001000400014004063
:1045200010B540F22771164800F04DF8A8B11548B3
:1045300001780078401C134A10701348405C104901
:1045400088801046007811490978884205D10C48C6
:10455000808920F080000A49888140F2255108486E
:1045600000F031F858B140F22551054800F010F83C
:10457000034800F0E1F8C4B22046FDF7B3FA10BDDD
:10458000001001403700002090010020350000207D
:1045900010B50022002340F66A14A14200D100BFEA
:1045A0000A1201249440A3B2DC43048010BD21B15F
:1045B000828942F40052828104E082894DF6FF73C1
:1045C0001A408281704770B50246002400230025FE
:1045D000002040F66A16B14200D100BFC1F3421577
:1045E00001F01F03012606FA03F3012D02D196897B
:1045F000334006E0022D02D1168A334001E0968A4C
:1046000033400C12012606FA04F41688344013B124
:104610000CB1012000E0002070BDF0B5034600247D
:1046200000260025002040F66A17B94200D100BFDD
:104630001846C1F3421401F01F06012707FA06F5D8
:10464000012C01D10C3004E0022C01D1103000E02B
:1046500014301AB107682F43076002E00768AF43C0
:104660000760F0BD2DE9FF4705460E460024A14630
:1046700000BFA046B08900B100BF2C8A24F440548A
:10468000F08804432C82AC8941F20C608443B088EA
:1046900031890843718908430443AC81AC8A24F40E
:1046A0004074B0890443AC826846FFF773F9204830
:1046B000854202D01F48854202D1DDF80C9001E00E
:1046C000DDF80890A88900F4004040B109EBC9006A
:1046D00000EB091031684900B0FBF1F707E009EB86
:1046E000C90000EB091031688900B0FBF1F76420C4
:1046F000B7FBF0F004012009642101FB1078A889C0
:1047000000F4004040B1322000EBC800B0FBF1F0F3
:1047100000F00700044308E0322000EB0810642199
:10472000B0FBF1F000F00F0004432C81BDE8FF87DF
:10473000001001400014014001468888C0F30800C1
:10474000704703B401984100009850EAC12018BF97
:1047500004204A0D18BF40F0010040F2FF72B2EB96
:10476000515F08BF40F00200012808BF052002B0D9
:1047700070470000000000002DE9F04D2DED040B06
:104780002DED0E8B96B0DDE92550279CDDF890A02D
:1047900025F0004624F00048BAF1000F14BF0121B3
:1047A000002101EB4502FC4953184A1093422AD3D9
:1047B000002814BF0123002303EB44030B44F749F3
:1047C0008B4220D358EA00019FEDF59B76D0DFF8AD
:1047D000D8B35D4503D1BAF1000F05D188E0BAF135
:1047E000000F08BF002100D0012101EB450111F5A8
:1047F000001F08D8002814BF0121002101EB44014B
:1048000011F5001F0BD99DED261B9DED240B16B055
:10481000BDEC0E8B04B0BDE8F04D00F069BE002782
:10482000002DBCBFE149884521DAE1498845A8BF90
:1048300002271CDAC3451ADCDE4901EB2851142992
:1048400008DDC1F1340220FA02F101FA02F28242DB
:104850000DD108E058B9C1F1140228FA02F101FAA9
:1048600002F2424503D101F00101C1F1020756EA0B
:104870000A0124D1002C22DA002D18BF022F01D00A
:10488000012F0AD00220FBF730FE16B0BDEC0E8BD4
:1048900004B0BDE8F04D00F013BE0220FBF725FE8A
:1048A00000F00EFE51EC100B02F022F941EC100B5F
:1048B00016B0BDEC0E8B04B0BDE8F08D18E09FED96
:1048C000BEAB9FEDBF8B002871D1B848804522D187
:1048D00005F1804010F5801008BFBAF1000F07D035
:1048E000B3450ADC002CA8BF9DED260BE0DA0DE0F5
:1048F000B0EE490AF0EE690ADAE7002C06DA9DED1F
:10490000260B51EC100B02F0F3F86FE0AE48784440
:1049100090ED000BCCE7D8454DD1002C48DA2EB1F4
:1049200086423AD1BAF1000F42D126E0BAF1000F27
:1049300013D00220FBF7D9FD00F0F6FD8DED020B40
:104940009DED240B8DED000B10EE900A039961F3A1
:104950001E0003909DED020BAAE78DED02AB9DEDCD
:10496000240B1AEE901A10EE900A8DED000B61F3F5
:104970001E0003909DED020B9AE78DED028B9DEDDD
:10498000240B18EE901A10EE900A8DED000B61F3D7
:104990001E0003909DED020B8AE709DA9DED240BC2
:1049A00051EC190B53EC102B02F09CF91EE020E0A7
:1049B0009DED240B7CE786421BDAB4F1804F0DD0CD
:1049C000A4F10050B0F1FF5013D1002D11DB9DED8B
:1049D000240B51EC100B01F0CFFE07E09DED240BF2
:1049E00053EC102B51EC100B00F0C2BC41EC100B3F
:1049F0005EE79DED240B51EC100B00F08FFEBAF139
:104A0000000FCDE90E0142D19FED710B46B3A6F127
:104A1000E040B0F17F600CD05E4538D1002D00DA67
:104A2000A7B3022F0CBF01204FF0FF3002F00FFBA5
:104A3000DCE7002D01DD002C0DDA002D01DD002C5E
:104A40001FDB002D16DA002C14DB012F08BF9FEDB1
:104A5000620B3FF42DAFB0EE4A0AF0EE6A0A27E788
:104A6000022F18BF002D0CD0012F0AD1002DFFF608
:104A70001FAF06E0002DB8BF002C08DA012F3FF46D
:104A800017AFB0EE480AF0EE680A11E71BE001200C
:104A900000EBE57050EA070115D0791EB0EE498AA7
:104AA000F0EE698A084308BF9FED4D8B4E48002504
:104AB000804570DD4D494E48884514DDB0420DDB20
:104AC000002C19DB2FE00120FBF70FFD16B0BDEC29
:104AD0000E8B04B0BDE8F04D00F016BDB34502DC0E
:104AE000002C09DC1FE0864202DA002C1BDA03E00E
:104AF0005E452BDD002C16DD0220FBF7F6FC00F0F6
:104B000013FD8DED020B53EC1A2B51EC180B02F038
:104B100005FBCDE900010399019861F31E000390A4
:104B20009DED020BC4E60220FBF7DFFC00F00CFD5C
:104B300010EE901A18EE900A8DED020B8DED008BA1
:104B400061F31E0003909DED020BB1E69DED0E0B8F
:104B500053EC192B51EC100B02F0ECFC9FED260BE3
:104B6000CDE9080153EC102B9DED080B51EC100B17
:104B700002F0D4FA9FED221B53EC112B02F002FC41
:104B80009DED081B53EC112B02F0C8FA9FED1E1B84
:104B900053EC112B3CE08CE0FFFF1F00FFFF0F00E8
:104BA000000000000000F03F0000F03F0000F07F38
:104BB0000000404301FCFFFF000000000000F07F08
:104BC0000000000000000000F63F000000000000B0
:104BD0000000000000000080000000000000F0FF66
:104BE000000000000000F0BF0000E0410000F043C2
:104BF000FFFFEF3F00000000000000000000D03F7A
:104C0000555555555555D53F000000000000E03F73
:104C100002F0B8FB9DED080B41EC1A0B53EC102B86
:104C200051EC100B02F07AFA53EC1A2B02F076FAE0
:104C300041EC1A0B9FEDFE0B53EC102B9DED080B76
:104C400051EC100B02F06AFA41EC1B0B9FEDFA0BD2
:104C500051EC1A0B53EC102B02F060FA41EC1A0BDA
:104C60009FEDF70B53EC102B9DED080B51EC100B47
:104C700002F054FA53EC1A2B02F05CFC41EC1A0BD4
:104C800051EC1B0B53EC1A2B01F070FF0690CDE991
:104C900006519DED060B53EC1B2B51EC100B02F053
:104CA00049FC53EC1A2B02F06DFB41EC100B00F0A9
:104CB000A1B90020B6F5801F0EDA9FEDE30B53EC8F
:104CC000102B9DED0E0B51EC100B02F027FACDE9E5
:104CD0000E016FF034000E4600EB2650A0F2FF37B5
:104CE000C6F31300DA4940F07F6646F0405688422A
:104CF000D8BF002408DDD7498142C8BF012403DCA6
:104D00000024A6F580167F1CD348784400EBC4002D
:104D10000F9690ED00CB9DED0E0B53EC1C2B51EC40
:104D2000100B02F007FC9DED0E0B41EC1B0B53EC3E
:104D30001C2B51EC100B01F019FF41EC100B51EC46
:104D4000190B53EC102B01F0CDFF41EC1D0B51EC76
:104D50001B0B53EC1D2B02F0E1F941EC1A0BBF4881
:104D60008DED10AB7844109590ED000B4FF0005096
:104D700040EA660000EB84408DED080B00F5002052
:104D800009909DED080B53EC1C2B51EC100B02F01D
:104D9000D1FB9DED0E1B53EC112B02F0F3FA41EC0D
:104DA000100B53EC102B9DED100B51EC100B02F07F
:104DB000B5F99DED080B41EC1C0B53EC102B9DED50
:104DC000100B51EC100B02F0A9F953EC1B2B02F065
:104DD000D9FA53EC1C2B02F0ADFB53EC1D2B02F067
:104DE0009DF941EC1C0B53EC1A2B51EC1A0B02F001
:104DF00095F941EC1B0B9A480621B0EE4B0AF0EEF8
:104E00006B0A784400F0E0FAB0EE401AF0EE601A57
:104E1000B0EE41DAF0EE61DA53EC1B2B51EC1B0BD8
:104E200002F07CF953EC1D2B02F078F99DED100B8C
:104E300041EC1B0B53EC1A2B51EC100B01F096FEBE
:104E400053EC1C2B02F06AF953EC1B2B01F08EFE85
:104E50009DED100B41EC1B0B53EC102B51EC100B88
:104E600002F05CF941EC1D0B9FED7FEB53EC1E2B28
:104E700001F07CFE53EC1B2B01F078FE0890CDE98D
:104E800008519DED080B53EC1E2B51EC100B02F05A
:104E900051FB53EC1D2B02F04DFB53EC1B2B02F08E
:104EA00071FA9DED080B41EC1D0B53EC102B9DEDA1
:104EB000100B51EC100B02F031F941EC1B0B53ECD1
:104EC0001A2B51EC1D0B02F029F99DED080B41EC5A
:104ED0001A0B53EC102B51EC1C0B02F01FF953EC86
:104EE0001A2B01F043FE41EC1A0B51EC1B0B53EC57
:104EF0001A2B01F03BFE0C90CDE90C519DED0C0BF3
:104F000053EC1B2B51EC100B02F014FB53EC1A2B3F
:104F100002F038FA41EC1B0B9FED550B53EC102BB4
:104F20009DED0C0B51EC100B02F0F8F841EC1A0B54
:104F30009FED510B51EC1B0B53EC102B02F0EEF8D4
:104F400041EC1B0B9FED4E0B53EC102B9DED0C0B0E
:104F500051EC100B02F0E2F853EC1B2B01F006FEB3
:104F600041EC100B4848784400EBC40090ED001B66
:104F700051EC100B53EC112B01F0F8FD41EC1B0B25
:104F8000384602F064F8CDE9080153EC1B2B51ECD4
:104F90001A0B01F0EBFD41EC100B3C48784400EBA0
:104FA000C40090ED00CB51EC100B53EC1C2B01F026
:104FB000DDFD9DED081B53EC112B01F0D7FD069094
:104FC000CDE906519DED080B53EC102B9DED060B22
:104FD00051EC100B02F0AEFA53EC1C2B02F0AAFAC3
:104FE00053EC1A2B02F0A6FA53EC1B2B02F0CAF971
:104FF00041EC100B9DED261B53EC102B8DED001B8F
:1050000000959DED260B51EC100B02F087F89DEDFD
:10501000000B41EC1A0B53EC102B9DED260B51ECC1
:10502000100B02F087FA9DED061B53EC112B2FE0BD
:10503000000000604715F73FFE822B654715F73FDC
:1050400044DF5DF80BAE543E00000000000040431A
:105050008E9803007AB60B00723B0000A03B000064
:10506000AA3A000000000000000000000000084014
:10507000000000E009C7EE3FFD033ADC09C7EE3F40
:10508000F5015B14E02F3EBE36390000F038000019
:1050900002F044F853EC1A2B01F068FD9DED060B6D
:1050A00041EC1A0B53EC102B9DED000B51EC100B47
:1050B00002F034F8CDE90C019DED0C0B51EC1A0B0C
:1050C00053EC102B01F052FDCDE902010C46AA4928
:1050D0008C422FDB611A084318D19DED0C0B53EC69
:1050E000102B9DED020B51EC100B02F023FA41EC5A
:1050F0001B0B9FEDA30B51EC1A0B53EC102B01F083
:1051000035FD53EC1B2B02F007F92DD20220FBF7E3
:10511000ECF900F009FA10EE901A18EE900A8DEDF5
:10512000020B8DED008B61F31E0003909DED020BD1
:10513000FFF7BEBB944A24F00041914214D3934937
:10514000214408437FF4EFAC9DED0C0B53EC102B86
:105150009DED020B51EC100B02F0ECF953EC1A2B05
:1051600002F0DAF87FF6DFAC24F000408849894A83
:10517000002601EB205182422BDA481C4FF48011AB
:1051800021FA00F02044844AC0F30A517A44A1F283
:10519000FF3192ED000B814A8DED080BCA4020EAE9
:1051A0000202C0F3130040F48010C1F1140120FA90
:1051B00001F60992002CB8BF76429DED080B53EC26
:1051C000102B9DED0C0B51EC100B02F0B3F9CDE957
:1051D0000C019DED0C0B51EC1A0B53EC102B01F054
:1051E000C5FC9FED6F0B0890CDE9085153EC102BD7
:1051F0009DED080B51EC100B01F090FF41EC1B0BE7
:105200009FED690B53EC102B9DED080B51EC100B2F
:1052100001F084FF9DED0C0B41EC1C0B53EC102BAB
:105220009DED080B51EC100B02F084F953EC1A2B96
:1052300002F0A8F89FED5E1B53EC112B01F06EFFFE
:1052400053EC1C2B01F092FC41EC1A0B51EC1B0BA4
:1052500053EC1A2B01F08AFCCDE902019DED020B03
:1052600053EC1B2B51EC100B02F064F953EC1A2B8E
:1052700002F088F89DED020B41EC1A0B53EC102B59
:1052800051EC100B01F04AFFCDE908014A489DEDB1
:10529000080B0521784400F097F89DED081B51ECB0
:1052A000100B53EC112B01F039FF9DED021B53EC59
:1052B000112B02F067F8CDE906019DED020B53ECCE
:1052C0001A2B51EC100B01F029FF53EC1A2B01F0B3
:1052D0004DFC9FED3B0B41EC1A0B53EC102B9DED5D
:1052E000060B51EC100B02F025F99DED060B41EC7D
:1052F0001B0B53EC102B9DED020B51EC100B01F02E
:105300000DFF53EC1B2B01F0EDFC53EC1A2B02F0BC
:1053100011F99DED021B53EC112B02F00BF953EC2C
:10532000192B02F02FF8CDE9020101EB065001150F
:105330000029C8BF039015DC9DED020B324651ECED
:10534000100B02F090FAFFF7FCF9042808BF00F0F8
:10535000FBF832469DED020B51EC100B02F083FA84
:10536000CDE902019DED020B51EC180B53EC102B13
:1053700001F0D4FEFFF73ABB0000904000000000AF
:10538000FE822B654715973C00CC904000346F3F60
:1053900001FCFFFF0000E03F78370000FFFF0F0037
:1053A00000000000432EE63F396CA80C615C20BE73
:1053B000EF39FAFE422EE63F4836000000000000BA
:1053C000000000000000004070B504462DED028B87
:1053D0004D1E00EBC500B0EE408AF0EE608A90ED05
:1053E000000B35F0060017D053EC182B51EC100BC6
:1053F00001F094FE41EC100B6D1E04EBC50090ED26
:10540000001B51EC100B53EC112B01F0AFFB41ECE6
:10541000100B35F00600E7D1022D36D0042D1CD03C
:10542000062D1CBFBDEC028B70BD53EC182B51EC4C
:10543000100B01F073FE94ED0A1B53EC112B01F0DD
:1054400095FB53EC182B01F069FE94ED081B53EC0F
:10545000112B01F08BFB41EC100B53EC182B51EC92
:10546000100B01F05BFE94ED061B53EC112B01F0C9
:105470007DFB53EC182B01F051FE94ED040B53EC23
:10548000102B01F073FB41EC100B53EC182B51EC7B
:10549000100B01F043FE94ED021B53EC112B01F0B5
:1054A00065FB53EC182B01F039FE94ED001B53EC17
:1054B000112B01F05BFBBDEC028B41EC100B70BDBE
:1054C0009FED070B10B553EC102B9FED070B51EC24
:1054D000100B01F007FC41EC100B10BD00000000A8
:1054E0000000000000000000000000000000F03F8D
:1054F00010B553EC112B51EC100B01F037FB41ECC4
:10550000100B10BD000000009FED050B10B553EC13
:10551000102B51EC100B01F0E5FB41EC100B10BD12
:1055200000000000000000009FED050B10B553ECDB
:10553000102B51EC100B01F0F1FD41EC100B10BDE4
:1055400000000000000000709FED050B10B553EC4B
:10555000102B51EC100B01F0E1FD41EC100B10BDD4
:10556000000000000000001030380A2801D201209D
:1055700070470020704710B5012000F00BF80A209A
:10558000FEF77CFA0120FEF779FA002000F002F81D
:1055900010BD000010B504462CB14FF480610548E1
:1055A000FCF75FFE04E04FF480610248FCF75BFE0D
:1055B00010BD0000000C02400D4890ED050ADFED23
:1055C0000D0A30EE600A0C4880ED030A90ED030AE4
:1055D000D0ED000A20EE200A0848D0ED080A06485F
:1055E00090ED021A00EE810A80ED060A7047000075
:1055F000DC00002000000000E00200209C030020EE
:1056000010B5044603E04FF47A7000F005F8201E50
:10561000A4F10104F7D110BD10B5034600F058F90C
:10562000044600BF00F054F9001B9842FAD310BDA5
:1056300000B589B001210846FEF78CF9012102204E
:10564000FEF788F901210846FEF774F9C320079098
:1056500002208DF8200003208DF8210001208DF814
:1056600022008DF8230007A92A48FCF78FFD0122AC
:1056700000212848FCF7D2FD012211462548FCF7FD
:10568000CDFD022206212348FCF7C8FD0222072196
:105690002048FCF7C3FD4FF6FF7005900020ADF8E1
:1056A0001000ADF81200ADF8180004A94FF08040CA
:1056B000FEF7F4FE04A91848FEF7F0FE00204FF0B4
:1056C000804148621449243108600A231A460321A4
:1056D0005807FEF7CBFD1420ADF80C0001A9000718
:1056E000FEF7F6FD0A231A4603210B48FEF7BEFD1E
:1056F0001420ADF80C0001A90748FEF7E9FD0121CF
:105700008807FEF798FD01210348FEF794FD09B0D4
:1057100000BD0000000002400004004082B0CDE95E
:10572000000121F0004001909DED000B02B051EC12
:10573000100B7047B0EE401AF0EE601AB5EEC01ACA
:10574000F1EE10FA04D0F5EEC01AF1EE10FA02D123
:105750009FED550AA7E0B5EEC01AF1EE10FA02DD92
:10576000B0EE414A01E0B1EE414AF0EE442AF5EED6
:10577000C01AF1EE10FA02DDB0EE614A01E0B1EEBE
:10578000614AB0EE442AF4EEC22AF1EE10FA02D2D7
:1057900082EE824A01E082EE224AB0EE443A9FED68
:1057A000434AB4EEC43AF1EE10FA02D2F0EE430AE4
:1057B0002DE0DFED3F4AB6EE004A13EE244AF0EE4C
:1057C000443ABDEEE34A14EE100A04EE100AB8EEB5
:1057D000C44A33EEC44AF0EE443A364901EB800144
:1057E00091ED004AF0EE440A324A411C02EB81017D
:1057F00091ED004A114601EB8001D1ED004A74EEB3
:10580000644AB0EE604A04EEA34AF0EE440AB4EEF5
:10581000E22AF1EE10FA20DDF5EEC01AF1EE10FAF0
:105820000ADBB5EEC01AF1EE10FA02DBB0EE600A48
:1058300039E0B1EE600A36E09FED1F0AB5EEC01AFE
:10584000F1EE10FA04DB30EE604AB0EE440A2AE0D2
:1058500030EEC04AB0EE440A25E0B5EEC01AF1EED3
:1058600010FA10DB9FED150AF5EEC01AF1EE10FAF2
:1058700004DB30EE604AB0EE440A14E030EE204A19
:10588000B0EE440A0FE09FED0E0AF5EEC01AF1EEFD
:1058900010FA04DB30EE204AB0EE440A03E030EEAA
:1058A000604AB0EE440A7047000000008180803BEF
:1058B0000000804364840008DB0F4940DB0FC93FD0
:1058C000DB0FC9BF014800687047000000000020DE
:1058D0004FF0E02040694FF0E0218969401A4FF015
:1058E000E0214969B0FBF1F04FF47A714843044973
:1058F000096801EB4102C2EBC11100EBC100704726
:105900000000002070B50546284600F0EBFA684814
:10591000407830B96648007818B965488078002822
:105920007ED06448C07828B16148B0F90800B0F56D
:10593000FA6F18DA002060490880604908806049E1
:10594000088000240DE00021E01C5E4A42F820108F
:105950000020114641F824005B4941F82400601CF6
:10596000C4B2032CEFDB59480078401C574908703B
:10597000084600780A2853DB002008704C4840781D
:10598000002845D04D480088401C4C490880002420
:105990000EE0E01C4B4951F8201045480A3030F920
:1059A00014000144E01C474A42F82010601CC4B2B5
:1059B000032CEEDB41480088322829DB002417E065
:1059C000E01C404951F8200000EE100AB8EEC00A71
:1059D000DFED3F0A80EE201A3E4800EB840080EDA8
:1059E000001A0021E01C374A42F82010601CC4B2A3
:1059F000032CE5DB0020314908802D484078012840
:105A000003D134480C38FCF785FB00202849487046
:105A100027480078012849D127480088401C00E029
:105A200044E025490880274800682149B1F904105D
:105A3000084424490860084641681D48B0F906003A
:105A4000084420494860084681681948B0F90800B0
:105A5000A0F5805008441B49886017480088322808
:105A600024DB002416E0174850F8240000EE100A4A
:105A7000B8EEC00ADFED160A80EE201A15480C3881
:105A800000EB840080ED001A00200E4941F824004C
:105A9000601CC4B2032CE6DB0020074908800D48D7
:105AA0000C38FCF719FB00200149087070BD00009C
:105AB0009C03002078010020D6000020D8000020A0
:105AC000CA0000205004002008040020D400002058
:105AD00000004842E404002010B504462CB14FF405
