:020000040800F2
:10000000C00A00206902000871020008730200089B
:10001000750200087702000879020008000000005D
:100020000000000000000000000000007B0200084B
:100030007D020008000000007F0200086927000818
:10004000830200088302000883020008830200087C
:10005000830200088302000883020008830200086C
:10006000830200088302000883020008830200085C
:10007000830200088302000883020008830200084C
:10008000830200088302000883020008830200083C
:10009000830200088302000883020008830200082C
:1000A000830200088302000883020008830200081C
:1000B000830200088302000883020008830200080C
:1000C00083020008830200088302000883020008FC
:1000D00083020008292D000883020008830200081B
:1000E00083020008830200088302000883020008DC
:1000F00083020008830200088302000883020008CC
:1001000083020008830200088302000883020008BB
:100110008302000883020008052900088302000802
:10012000830200088302000883020008830200089B
:10013000830200088302000883020008830200088B
:10014000830200088302000883020008830200087B
:10015000830200088302000883020008830200086B
:10016000830200088302000883020008830200085B
:10017000830200088302000883020008830200084B
:10018000830200088302000800F002F800F05CF827
:100190000AA090E8000C82448344AAF10107DA45E2
:1001A00001D100F051F8AFF2090EBAE80F0013F0D8
:1001B000010F18BFFB1A43F0010318477C6D0000C4
:1001C0009C6D00000A444FF0000C10F8013B13F046
:1001D000070408BF10F8014B1D1108BF10F8015BA0
:1001E000641E05D010F8016B641E01F8016BF9D193
:1001F00013F0080F1EBF10F8014BAD1C0C1B09D1EA
:100200006D1E58BF01F801CBFAD505E014F8016B5B
:1002100001F8016B6D1EF9D59142D6D370470000ED
:100220000023002400250026103A28BF78C1FBD8FF
:10023000520728BF30C148BF0B6070471FB505F09B
:10024000F6FD1FBD10B510BD00F06CF81146FFF7AC
:10025000F5FF04F0F7F900F08AF803B4FFF7F2FFB6
:1002600003BC00F08DF800000948804709480047AA
:10027000FEE7FEE7FEE7FEE7FEE7FEE7FEE7FEE756
:10028000FEE7FEE704480549054A064B70470000B3
:100290007927000889010008C0040020C00A002056
:1002A000C0060020C00600204FF0000200B5134633
:1002B00094469646203922BFA0E80C50A0E80C5086
:1002C000B1F12001BFF4F7AF090728BFA0E80C5037
:1002D00048BF0CC05DF804EB890028BF40F8042B30
:1002E00008BF704748BF20F8022B11F0804F18BF9D
:1002F00000F8012B704770477047704710B500F049
:1003000009F8006810BD10B5044600F003F8046059
:1003100010BD0000004870475C0400200048704792
:100320005C0400207546FFF7F9FFAE4605006946FC
:10033000534620F00700854618B020B5FFF7A2FF0E
:10034000BDE820404FF000064FF000074FF00008D6
:100350004FF0000B21F00701AC46ACE8C009ACE857
:10036000C009ACE8C009ACE8C0098D46704710B5BB
:100370000446AFF300802046BDE81040FFF76DBF94
:1003800001491820ABBEFEE726000200704721B1EC
:10039000826842F00102826003E0826822F001027A
:1003A000826070470021084A1168084A1140D0E96C
:1003B00000231A4383681A43C3681A431143044A4B
:1003C000C2F804137047000004230140E030FCFF32
:1003D0000020014021B1826842F48072826003E013
:1003E000826822F480728260704721B1826842F490
:1003F0000072826003E0826822F4007282607047BB
:1004000030B50246002000235068104C20400D7982
:100410000C6844EA05242043506090680C4C20404E
:10042000D1E903542C438D682C434D7944EA4504AB
:1004300020439060D06A20F470000C7D641EE4B20A
:10044000234340EA0350D06230BD0000FFFEFFFCB2
:10045000FDF7FFC0F0B504460D4600200021092D30
:1004600011DDE068A5F10A0606EB4607072606FA45
:1004700007F18843A5F10A0606EB460603FA06F1E2
:100480000843E0600CE0206905EB4507072606FA03
:1004900007F1884305EB450603FA06F1084320619E
:1004A000072A0FDA606B561E06EB86071F2606FA30
:1004B00007F18843561E06EB860605FA06F1084347
:1004C000606322E00D2A0FDA206BD61F06EB860749
:1004D0001F2606FA07F18843D61F06EB860605FAA3
:1004E00006F10843206310E0E06AA2F10D0606EB76
:1004F00086071F2606FA07F18843A2F10D0606EBD0
:10050000860605FA06F10843E062F0BD816841F015
:1005100080418160704700001CB50121082001F076
:100520000DFE4FF48060009001208DF80400002043
:100530008DF8060002208DF8050000208DF80700D8
:100540006946074800F05EFB4FF48061044800F004
:10055000C6FB012003498870032001F029FA1CBD65
:10056000000C02406401002010B5012003F00EFCD5
:10057000832001F087FE002406E0FF2001F082FEC8
:1005800005490855601CC4B2062CF6DB002003F0B8
:10059000FDFB03F0EDFB10BDB000002010B53248AC
:1005A000807800285FD031480088401C2F4908809F
:1005B0002F4800682F49096808442D4908600846FB
:1005C00040682C49496808442949486008468168C0
:1005D0002548B0F908000844254988602348008868
:1005E000322840DB00240FE0214850F8240032215B
:1005F00090FBF1F000B2204921F8140000201C49C2
:1006000041F82400601CC4B2032CEDDB0020174924
:100610000880154988701848008810FB00F11648BA
:100620004088154A528810FB0210C0F1807000EE1D
:10063000900AF8EEE00AB0EE600A02F077F8BDEE3C
:10064000C00A10EE100A00B20B49C8800846B0F983
:100650000400B1F90610401A00EE100AB8EEC00A04
:10066000064880ED020A10BDFC020020B600002002
:100670006803002050030020B80000203804002048
:1006800000B58DB00121042001F058FD01210802C0
:1006900001F074FD01F01AF903208DF830002020DC
:1006A0000B9000208DF833000BA91B4800F0AAFA2C
:1006B0000020099007904FF48030089000200A90A5
:1006C00007A8FFF76FFE002001908DF808000120B9
:1006D0008DF8090000200390059001208DF8180086
:1006E00001A90E48FFF78CFE072301220F210B48BA
:1006F000FFF7B0FE01210948FFF777FE0121074807
:10070000FFF745FE01210548FFF764FE0348FFF7A8
:10071000FDFE0DB000BD00000008024000200140B9
:1007200010B52DED028B4248D0ED060A90ED061A69
:10073000B7EE000A00EEC10AB5EEC00AF1EE10FAFB
:1007400002D89FED3C0A1BE03948D0ED060A90ED37
:10075000061AB7EE000A00EEC10AF7EE000AB4EE80
:10076000E00AF1EE10FA02DDB7EE000A08E03048C8
:10077000D0ED060A90ED061AB7EE000A00EEC10AA7
:10078000B0EE408A2C4890ED0F0AB5EEC00AF1EEAB
:1007900010FA02DD90ED0F0A04E0274890ED0F0AF1
:1007A000B1EE400ADFED250AB4EEE00AF1EE10FAF0
:1007B0003BDDB0EE480A01F0B9FFF0EE408A1C487C
:1007C000D0ED060AB0EE600AF0EE680A03F08AFB8C
:1007D000DFED1B0A20EE200A174880ED050A1448B9
:1007E00090ED081AF0EE410A90ED071AB0EE410ABA
:1007F00003F078FBDFED120A20EE200A0E4880EDB0
:10080000040A0B4890ED001AF0EE410A90ED031A2D
:10081000B0EE410A03F066FBB1EE400ADFED080AD4
:1008200020EE200A044880ED060ABDEC028B10BDC4
:10083000E003002000000000C8000020CDCC4C3DAB
:10084000333365429FED060A064880ED000A9FEDAE
:10085000040A80ED010A9FED020A80ED020A70474A
:10086000000000007403002021B1026842F0010280
:10087000026003E0026822F0010202607047014654
:1008800000200A6802F001020AB1012000E0002005
:100890007047000010B500220268134B1A40CC6864
:1008A0000B6823434C6923438C692343CC6923435E
:1008B0000C6A23434C6A23438C6A23434C6B2343C7
:1008C0008C6B23431A430260426922F00702D1E98C
:1008D0000B3423431A4342610B6943604B688360C6
:1008E0008B68C36010BD00003F801CF04FF080415A
:1008F000496A09B2064A11800649096809B2064ADE
:10090000118000214FF080425162024A116070470D
:1009100056000020240400405800002030B1074950
:10092000096841F48061054A116005E003490968DE
:1009300021F48061014A116070470000003C0240D0
:1009400070B504460A460026092502B909E0012AC5
:1009500001D1160205E0022A01D1160201E04FF48E
:10096000407600F09FF80546092D28D1154800680B
:1009700020F440701349086008460068304308605E
:100980000846006820F0F80008600846006844F057
:10099000020108430B4908600846006840F48030B3
:1009A000086000F07FF805460648006820F0020065
:1009B000044908600846006820F0F80008602846EE
:1009C00070BD0000103C024009201349096801F481
:1009D0008031B1F5803F01D101201CE00E4909684A
:1009E00001F0100109B1062015E00B49096801F476
:1009F000807109B102200EE00749096801F0EF019A
:100A000009B1072007E00449096801F0020109B1B2
:100A1000082000E0092070470C3C024003480068B1
:100A200040F000400149086070470000103C02405F
:100A300030B502460C46092500F034F80546092D6C
:100A400019D10E48006820F440700C49086008462F
:100A5000006840F4007008600846006840F001003B
:100A60000860146000F01EF805460448006820F095
:100A7000010002490860284630BD0000103C0240D9
:100A80000548006800F0004028B1044802490C39CC
:100A90000860034808607047103C02402301674526
:100AA000AB89EFCD08B509200090FFF78DFF0090CE
:100AB00002E0FFF789FF00909DF800000128F8D0C0
:100AC0009DF8000008BD000000B509221D491E4820
:100AD00001F0ECFC1B4890ED000A1C4880ED030A75
:100AE000184890ED010A194880ED040A154890ED68
:100AF000020A164880ED050A124890ED030A1348D1
:100B000080ED000A0F4890ED040A104880ED010ABC
:100B10000C4890ED050A0D4880ED020A094890ED59
:100B2000060A0A4880ED060A064890ED070A0748BB
:100B300080ED070A034890ED080A044880ED080A92
:100B400000BD0000C802002000000E08380400208C
:100B500010B5044609220B490B4801F0A7FC94ED9F
:100B6000000A084880ED030A94ED010A80ED040AAA
:100B700094ED020A80ED050A09220146024801F0BF
:100B8000A9FC10BDC802002000000E0810B50446E4
:100B900009220B490B4801F089FC94ED030A08482F
:100BA00080ED000A94ED040A80ED010A94ED050A37
:100BB00080ED020A09220146024801F08BFC10BDBB
:100BC000C802002000000E0810B5044609220B4997
:100BD0000B4801F06BFC94ED060A084880ED060A0C
:100BE00094ED070A80ED070A94ED080A80ED080AE3
:100BF00009220146024801F06DFC10BDC802002028
:100C000000000E08F0B50A4600210023002400BFB2
:100C10003DE0012505FA01F3156805EA03049C424D
:100C200034D105684F000326BE40B54305601579F1
:100C30004E00B5400668354305601579012D02D098
:100C40001579022D16D185684F000326BE40B543A5
:100C5000856055794E00B5408668354385604568A6
:100C600001268E40B5434560456896798E40B6B200
:100C700035434560C5684F000326BE40B543C56097
:100C8000D5794E00B540C6683543C560491C10296A
:100C9000BFD3F0BDF0B5002300244D07ED0E02FADE
:100CA00005F3CE1000F1200555F826504E07F70E3B
:100CB0000F26BE40B543CF1000F1200646F827505E
:100CC000CE1000F1200555F8265045EA0304CE1059
:100CD00000F1200545F82640F0BD418370470183AF
:100CE0007047000010B52DED068B82B004469FEDD5
:100CF000180A184880ED000A9FED170A80ED010AD6
:100D00009FED160A80ED020A154880781149887314
:100D1000204604F0D5FC41EC1A0B9FED120B53EC6E
:100D2000102B04F01DFD41EC190B04F00FFA08EE36
:100D3000100A0E480E4B0F4AA2F10C010090054814
:100D4000B0EE480A00F018F802B0BDEC068B10BDFA
:100D50009A99993E140100206F12033BCDCC4C3E72
:100D600064010020FCA9F1D24D62503FC800002070
:100D7000300400203C0300202DE9F0432DED0C8BC6
:100D800083B0B0EE408A07460E4690469946169CC0
:100D900094ED000AD4ED010A20EE200AF0EE409A0C
:100DA00094ED000AD4ED020A20EE200AB0EE40AA2B
:100DB00094ED010A20EE000AF0EE40AA94ED010A3B
:100DC000D4ED030A20EE200AB0EE40BA94ED020AF8
:100DD00020EE000AF0EE40BA94ED020AD4ED030AC8
:100DE00020EE200AB0EE40CA94ED030A20EE000A7D
:100DF000F0EE40CA94ED010AD4ED020A20EE200A7A
:100E0000B0EE40DA94ED000AD4ED030A20EE200A99
:100E1000F0EE40DAD4ED000A60EEA00A94ED011A7B
:100E2000D4ED011A41EE210A94ED021AD4ED021A12
:100E300041EE210A94ED031AD4ED031A41EE210A82
:100E4000B0EE600A00F07AFDF0EE408A94ED000A00
:100E500020EE280A84ED000A94ED010A20EE280A0B
:100E600084ED010A94ED020A20EE280A84ED020ABC
:100E700094ED030A20EE280A84ED030AD8F8000056
:100E80004043D8F8041001FB0100D8F8081001FB1A
:100E9000010000EE900AF8EEE00AB0EE600A00F001
:100EA0004DFDB0EE409A98ED000AB8EEC00A20EE73
:100EB000090A8DED000A98ED010AB8EEC00A20EE8D
:100EC000090A8DED010A98ED020AB8EEC00A20EE7B
:100ED000090A8DED020AB0EE000A2BEE000AF0EED0
:100EE000000A00EECA0A84ED0D0AFD4880ED060AEC
:100EF000B0EE000A29EE800AF0EE000A00EE8C0A3D
:100F000084ED0E0A80ED070AB0EE000A2AEE800A90
:100F1000F0EE000A00EEAB0AF7EE000A30EEC00A6F
:100F200084ED0F0A80ED080A9DED010AD4ED0F0A49
:100F300020EE200ADDED020A94ED0E1A00EEC10A41
:100F4000E84880ED000A9DED020AD4ED0D0A20EE7E
:100F5000200ADDED000A94ED0F1A00EEC10A80EDC3
:100F6000010A9DED000AD4ED0E0A20EE200ADDED07
:100F7000010A94ED0D1A00EEC10A80ED020AB0EEEE
:100F8000000A2BEE800AF0EE000A00EEAC0AF7EE43
:100F9000000A30EEC00A84ED070AD14880ED000A4D
:100FA000B0EE000A2DEE000AF0EE000A00EEED0AA7
:100FB00084ED080A80ED010AB0EE000A2BEE000A6B
:100FC000F0EE000A00EE8A0A84ED090A80ED020ABA
:100FD000B0EE000A2DEE000AF0EE000A00EEAD0AB7
:100FE00084ED0A0A80ED030AB0EE000A2AEE800AB8
:100FF000F0EE000A00EEAC0AF7EE000A30EEC00A8E
:1010000084ED0B0A80ED040AB0EE000A2CEE000A13
:10101000F0EE000A00EEE90A84ED0C0A80ED050A04
:1010200000250CE039F9150000EE100AB8EEC00AF0
:10103000AD4800EB850080ED000A681CC5B2032DA9
:10104000F0DBB9F8000028B9B9F8020010B9B9F816
:10105000040080B304F1400204F13401A248B0EE70
:10106000480A03F0CFFAD4ED060A30EE600A9F4832
:1010700080ED000A90ED000ADFED9D0AB4EEE00A73
:10108000F1EE10FA06DD90ED000ADFED9A0A30EE7F
:10109000600A14E0954890ED000ADFED970AB4EE7F
:1010A000E00AF1EE10FA07D290ED000ADFED910AA6
:1010B00030EE200A03E005E08C4890ED000A8B48F2
:1010C00080ED000A002562E08C4800EB850090ED81
:1010D000000A844800EB8500D0ED000A9FED881AD5
:1010E000F4EEC10AF1EE10FA02D8DFED850A13E042
:1010F0007C4800EB8500D0ED000A9FED821AF4EEEB
:10110000C10AF1EE10FA02DDDFED7E0A04E0754857
:1011100000EB8500D0ED000A7B4890ED001A60EEF0
:10112000810A00EE880A754800EB850080ED000A10
:10113000724800EB850090ED000A6A4800EB8500DC
:10114000D0ED000A714890ED001A00EE810A06EB1E
:101150008500D0ED000A30EE200A04F1340000EBE7
:101160008500D0ED000A614890ED001A60EE810A1A
:10117000674890ED001A60EE810A9FED661A00EE56
:10118000C10A06EB850080ED000A681CC5B2032D7C
:101190009ADBB0EE000A88EE001A94ED010AB1EE77
:1011A000400AD6ED000A20EE200AD4ED020AD6ED60
:1011B000011A00EEE10AD4ED030AD6ED021A00EEA0
:1011C000E10AD4ED000A40EE010AC4ED000AB0EED7
:1011D000000A88EE001A94ED000AD6ED000A20EE0F
:1011E000200AD4ED030AD6ED011A00EEE10AD4ED8F
:1011F000020AD6ED021A00EEA10AD4ED010A40EE71
:10120000010AC4ED010AB0EE000A88EE001A94ED5E
:10121000030AD6ED000A20EE200AD4ED000AD6ED2E
:10122000011A00EEA10AD4ED010AD6ED021A00EE71
:10123000E10AD4ED020A40EE010AC4ED020AB0EE62
:10124000000A88EE001A94ED020AB1EE400AD6EDCB
:10125000000A20EE200AD4ED010AD6ED011A00EEB4
:10126000A10AD4ED000AD6ED021A00EEA10AD4EDCF
:10127000030A40EE010AC4ED030AB87B38B99FEDBA
:10128000260A234880ED000A002078734BE0787B23
:1012900028B3B1EE040A1E4880ED000A134890ED11
:1012A000000AB5EEC00AF1EE10FA3CD090ED000A4B
:1012B000B5EEC00AF1EE10FA02DD90ED000A04E08E
:1012C0000A4890ED000AB1EE400AF0EE000AB4EED2
:1012D000E00AF1EE10FA26D20020787323E01DE038
:1012E000E003002010040020040400203801002046
:1012F000000034430000B443000034C31C04002049
:101300000AD723BC0AD7233C400100203C0100201F
:101310004401002035FA8E3C0000000097ED020ADF
:101320003E4880ED000A387B50B997ED000A3C48F2
:1013300080ED000A97ED010A3A4880ED000A67E067
:10134000B2EE040A364880ED000A1FED0D0A35485A
:1013500080ED000A344890ED000AB5EEC00AF1EEC7
:1013600010FA02DD90ED000A04E02F4890ED000A2B
:10137000B1EE400A2C48D0ED010AF5EEC00AF1EEBC
:1013800010FA02DDD0ED010A04E02748D0ED010A91
:10139000F1EE600A30EE200A244880ED000A90ED5C
:1013A000000AB5EEC00AF1EE10FA02D81FED260AC7
:1013B0000FE01E4890ED000AF7EE000AB4EEE00AD6
:1013C000F1EE10FA02DDB7EE000A02E0174890EDE8
:1013D000000A164880ED000A90ED000ADFED140ABD
:1013E000B4EEE00AF1EE10FA0FD2787B68B911483A
:1013F0000088801C0F49088008460088B0F5FA7FF5
:1014000006DD00200880387302E0002009490880CA
:1014100003B0BDEC0C8BBDE8F0830000440100205C
:101420003C01002040010020100400203401002075
:10143000CDCC4C3D300100201CB50121082000F02E
:101440007DFE4FF48070009001208DF80400002094
:101450008DF8060002208DF8050000208DF80700A9
:1014600069460448FFF7CEFB4FF480710148FFF74F
:1014700036FC1CBD000C024010B5034A0E213B2077
:1014800002F014FF10BD0000EC02002008B580211E
:101490006B2002F01EFF0A2002F08AFC01216B2063
:1014A00002F017FF0A2002F083FC6A460121752032
:1014B00002F0FCFE9DF80000122801D0002008BDBB
:1014C0000321682002F005FF0A2002F071FC0121CF
:1014D0006A2002F0FEFE0A2002F06AFC4021702021
:1014E00002F0F7FE0A2002F063FC00216C2002F0FB
:1014F000F0FE0A2002F05CFC0021192002F0E9FE57
:101500000A2002F055FC04211A2002F0E2FE0A2013
:1015100002F04EFC18211B2002F0DBFE0A2002F034
:1015200047FC10211C2002F0D4FE0A2002F040FCEF
:1015300004211D2002F0CDFE0A2002F039FC00211A
:101540001E2002F0C6FE0A2002F032FC00212320F9
:1015500002F0BFFE0A2002F02BFCFFF773F9012016
:1015600002498870022048700120A8E7FC02002090
:1015700070B52DED028B05469FEDC70AB0EE408A8F
:101580004DB14FF47A7090FBF5F000EE100AB8EE12
:10159000C00AB0EE408A284602F08CFDBF48407871
:1015A000BE49097840EA012000B2BD498880BB48A5
:1015B000C078BA49897840EA012001B2B848C180B0
:1015C000B6484079B549097940EA012001B2B448EA
:1015D0000181B248407AB149097A40EA012000B25B
:1015E000AF494881AD48C07AAC49897A40EA0120C8
:1015F00001B2AB488181A948407BA849097B40EAF8
:10160000012001B2A648C181A448C079A3498979C3
:1016100040EA012000B2A249A1F84C000846B0F906
:101620004C0000EE100AB8EEC00A9FED9E1AC0EE04
:10163000010AB3EE090A30EE800A084680ED140A6A
:1016400000242FE09648001D30F9140000EE100A27
:10165000B8EEC00A944800EB8400D0ED000A30EEEA
:10166000600ABDEEC00A10EE100A904941F824004D
:101670008B480A3030F9140000EE100AB8EEC00AA8
:1016800089480C3000EB8400D0ED000A30EE600A8F
:10169000BDEEC00A10EE100AE11C844A42F8210097
:1016A000601CC4B2032CCDDBFEF778FF00243EE0C3
:1016B000E01C7E4951F8200000EE100AB8EEC00A86
:1016C0007B4800EB8400D0ED000A70EE600A74489D
:1016D0001C3000EB840090ED000A9FED761A01EEBD
:1016E000200A6F481C3000EB840080ED000A084699
:1016F00050F8240000EE100AB8EEC00A6E4800EB65
:101700008400D0ED000A70EE600A6548103000EBEE
:10171000840090ED000A9FED671A01EE200A6048F0
:10172000103000EB840080ED000A601CC4B2032C72
:10173000BEDB002430E05A481C3000EB840090ED02
:10174000000ADFED5E0A20EE200A5D4800EB84000F
:1017500080ED000A5A4800EB840090ED000A5848DA
:101760000C3000EB8400D0ED000A30EE600A20EE71
:10177000080A5348183000EB840080ED000A5048F6
:1017800000EB840090ED000A4D480C3000EB840023
:1017900080ED000A601CC4B2032CCCDB48480C3836
:1017A00090ED0B0AD0ED010A20EE200A80ED0C0A24
:1017B00090ED090AD0ED020A20EE200A80ED0D0A14
:1017C00090ED0A0AD0ED000A20EE200A80ED0E0A04
:1017D000002423E032481C3000EB840090ED000A26
:1017E000334800EB840080ED000A3548243000EBDC
:1017F0008400D0ED000A9FED331A80EE810A28485C
:10180000103000EB8400D0ED000A30EEC00A2A4808
:1018100000EB840080ED000A601CC4B2032CD9DB0D
:10182000002433E01E481C3000EB840090ED000AD9
:10183000DFED250A20EE200A1948283000EB84004D
:1018400080ED000A16481C3000EB840090ED000A81
:10185000DFED1A0A20EE200A1148343000EB840034
:1018600080ED000A0E48103000EB840090ED000A75
:10187000DFED140A20EE200ABDEEC00A10EE100AB9
:101880000749403141F82400601CC4B2032CC9DB75
:10189000BDEC028B70BD000000000000EC020020D7
:1018A000FC0200206666A343380400205003002099
:1018B000C80300208FC2F53DD403002078978B3AEF
:1018C000800300200F0B753EEF017A3D00B58FB00D
:1018D0000121880500F032FC00BF1548FEF7CFFF5C
:1018E0000028FAD10090134801901348029000207C
:1018F0000390012004900020059006904FF40060B2
:1019000007908000089000010A9040120990002082
:101910000B9001200C9000200D900E906946044819
:10192000FEF7B8FF01210248FEF79EFF0FB000BD91
:10193000106402404C20014048000020B6EE001A1E
:1019400020EE011AF0EE410A10EE100A0749A1EB51
:10195000600000EE100A60EE801AB7EE081A01EE81
:10196000C01A21EE001AB0EE410A7047865A375F5E
:1019700010B500F04BFE0120FFF7FAFD0120FFF744
:10198000B1F910BD10B5FEF7CBFE0A20FEF7AEFF91
:1019900010BD704710B500F0A9FA10BD7047704730
:1019A00010B5142000F02AFA142000F00FFB10BD2F
:1019B0000146012908D14FF60C62154B9A804FF46D
:1019C000FA72144B9A8022E0022910D100200BE019
:1019D0004FF60C620E4B23F810204FF4FA720D4BA9
:1019E00023F81020421CD0B20228F1DB0FE00020C7
:1019F0000BE04FF60C62064B23F810204FF4FA72FE
:101A0000044B23F81020421CD0B20328F1DB7047AE
:101A10004E01002054010020002025E0144931F936
:101A20001010144A32F91020914203DB104931F9A9
:101A3000101002E00F4931F910100D4A22F8101071
:101A40000D4931F910100B4A32F91020914203DA96
:101A5000094931F9101002E0064931F91010064A1F
:101A600022F81010411CC8B20228D7DB70470000D2
:101A70004E01002048010020540100201148B0F917
:101A800004001149B1F90410884203DB0D48B0F994
:101A9000040002E00C48B0F904000A4988800B48B1
:101AA000B0F904000849B1F90410884203DA074884
:101AB000B0F9040002E00448B0F90400034988804A
:101AC000704700004E010020480100205401002012
:101AD00070B52DED0E8B0546B0EE408AF0EE608AB3
:101AE000002417E09F4830F9140000EE100AB8EE09
:101AF000C00A9D4800EB8400D0ED000A30EE600A79
:101B0000BDEEC00A10EE100A01B2984820F8141079
:101B1000601CC4B2032CE5DB944808380078002828
:101B200070D092480838407802286CD003DC38B175
:101B3000012869D16AE00A2867D00B28F9D1D5E0DD
:101B4000FFF76AFF8A4890ED0F0ADFED8A0AB4EECC
:101B5000E00AF1EE10FA04D20A20844908394870EC
:101B60004FE018EE900A04F0F1F841EC1C0B284607
:101B700003F0A6FD41EC1E0B9FED7F0B53EC102BE9
:101B800003F0EEFD41EC1D0B53EC1C2B03F0E8FDC4
:101B900041EC1A0B7A4890ED000A10EE101A084634
:101BA00004F0D4F841EC1B0B53EC1A2B03F000FBB0
:101BB00041EC190B03F0CAFA71490860084690ED30
:101BC000000AB5EEC00AF1EE10FA02DD90ED000A4F
:101BD00004E06B4890ED000AB1EE400ADFED690ABF
:101BE000B4EEE00AF1EE10FA0BDD9FED670A6448EF
:101BF00080ED000A01205D490839487000206349E2
:101C0000088088E0A6E032E084E062E0FFF736FF7B
:101C10005B48D0ED010A00EE105AB8EE400A9FED85
:101C20005C1A20EE010A40EE080AC0ED010A90EDB0
:101C3000010AB5EEC00AF1EE10FA02DD90ED010ADC
:101C400004E04F4890ED010AB1EE400ADFED4D0A85
:101C5000B4EEE00AF1EE10FA08DD9FED4B0A4848B9
:101C600080ED010A022041490839487053E0002400
:101C700015E0484830F91400474931F91410084478
:101C800000EE100AB8EEC00AF6EE000A20EE200AB6
:101C9000354800EB840080ED000A601CC4B2032CC0
:101CA000E7DB31481838FEF78FFF0320FFF780FE8F
:101CB0009FED350A324880ED000A9FED330A80ED32
:101CC000010A002029490839487008702F49088006
:101CD00021E00220FFF76CFE9FED2B0A284880EDE3
:101CE000000A002021490839487014E00320FFF75A
:101CF0005FFE9FED250A224880ED000A9FED220A33
:101D000080ED010A002019490839487008701F4900
:101D1000088000E000BF00BF14480838407820B1B8
:101D2000124808384078012810D11848008843F636
:101D30009821884205DA154800882844134908800C
:101D40000CE00B2009490839487007E000200F49D2
:101D5000088003E00020054908394870BDEC0E8B6F
:101D600070BD000048010020500400203004002015
:101D7000C8000020F6287C3FFCA9F1D24D62503FFC
:101D80005C0100200000B443000000005A01002064
:101D90006F12833A4E01002054010020144800784D
:101DA0001349497840EA012000B21249488010489E
:101DB00080780F49C97840EA012001B20D4881803E
:101DC0000B4800790A49497940EA012001B20948E3
:101DD000C18040880849088006488088404200B297
:101DE00048800448C088404200B2888070470000A4
:101DF000B0000020280400204801002010B504464F
:101E0000FFF7CCFF064890ED0C1AF0EE410A90ED7A
:101E10000A1AB0EE410A2046FFF75AFE10BD000034
:101E2000FC02002070B504460D4605F1B001C8B2B1
:101E3000002100F00FF8102141EA1410002100F0F9
:101E400009F804F00F0141F00100002100F002F850
:101E500070BD000070B504460E4626B1202118481A
:101E6000FEF73DFF03E020211548FEF736FF402135
:101E70001348FEF732FF002517E004211048FEF753
:101E80002CFF04F0800020B108210D48FEF727FF49
:101E900003E008210A48FEF720FF04210848FEF766
:101EA0001EFF6006040E681CC5B2082DE5DB40214C
:101EB0000348FEF714FF20210148FEF710FF70BD14
:101EC0000010024010B506A203211E2002F09EFE63
:101ED0004FF4FA6001F06CFF02F02CFD10BD000021
:101EE000482045204C204C204F00000010B52DED1F
:101EF000028B3048007888B92FA20021282002F0F8
:101F000085FE2EA20221282002F080FE2CA20421B0
:101F1000282002F07BFE012026490870294890ED18
:101F2000050A10EE101A084603F010FF41EC180BDA
:101F30000522B0EE480AF0EE680A0021502002F0B7
:101F400049FD204890ED040A10EE101A084603F0EF
:101F5000FDFE41EC180B0522B0EE480AF0EE680ACF
:101F60000221502002F036FD164890ED060A10EED0
:101F7000101A084603F0EAFE41EC180B0522B0EEF9
:101F8000480AF0EE680A0421502002F023FD0E48B2
:101F9000006803F0DBFE41EC180B0122B0EE480AAA
:101FA000F0EE680A0621002002F014FDBDEC028B61
:101FB00010BD00002400002050495400524F4C0036
:101FC00059415700C80000204C00002001464E4AED
:101FD000128800EE902AF8EE600A9FED4C1A60EE2F
:101FE000810AFDEEE00A10EE902A10B2484A1278FB
:101FF000B2BBB0EE000A474AD2ED000A9FED461A86
:10200000F4EEC10AF1EE10FA2DDD00EE900AF8EEC2
:10201000E00A92ED001A70EEC10AF5EEC00AF1EE88
:1020200010FA08DD00EE900AF8EEE00A92ED001AD0
:1020300070EEC10A09E0424200EE902AF8EEE00A92
:10204000344A92ED001A70EEC10A9FED341AF4EE94
:10205000C10AF1EE10FA06D201222D4B1A7002E0ED
:10206000FFE79FED2F0ADFED2F0A20EE201A00EE8A
:10207000901AF8EE600A61EE200A9FED2B1A60EECE
:10208000810AF7EE001A81EEA01AF7EE000A71EE4F
:10209000200AF7EE001A81EEA01A00EE900AF8EE80
:1020A000E00A1C4AD2ED001A70EEE11AD2ED000AE5
:1020B00041EE210AC2ED000AD2ED000A9FED1A1A84
:1020C00060EE810A194AC2ED000AD2ED000A9FEDC6
:1020D000181AF4EEC10AF1EE10FA03D20222154BDF
:1020E0001A7110E0114AD2ED000A9FED131AF4EEB6
:1020F000C10AF1EE10FA03D201220E4B1A7102E06E
:1021000000220C4B1A7170474800002045D80D4141
:1021100054000020500000200000FA440000484312
:102120000AD7A33CC3F5C8406F12833A4C00002085
:102130009A993141640100203208384129B1064A98
:1021400012680243044B1A6004E0034A1268824397
:10215000014B1A60704700003038024029B1064A2E
:1021600012680243044B1A6004E0034A1268824377
:10217000014B1A60704700004038024029B1064AFE
:1021800012680243044B1A6004E0034A1268824357
:10219000014B1A607047000044380240F0B500213E
:1021A00000220024022500260223324F3F6807F058
:1021B0000C0121B1042905D0082937D105E02E4FA3
:1021C000076036E02D4F076033E02A4F3F1F3F681E
:1021D000C7F38056274F3F1F3F6807F03F036EB19C
:1021E000264FB7FBF3F7DFF88CC0ACF1040CDCF83A
:1021F00000C0CCF3881C07FB0CF40CE01E4FB7FBAF
:10220000F3F7DFF870C0ACF1040CDCF800C0CCF3DD
:10221000881C07FB0CF4174F3F1F3F68C7F30147AB
:102220007F1C7D00B4FBF5F7076002E0124F0760EA
:1022300000BF00BF0F4F3F6807F0F0010909104FC2
:102240007A5C0768D74047600A4F3F6807F4E0515F
:10225000890A0B4F7A5C4768D7408760054F3F6813
:1022600007F46041490B064F7A5C4768D740C76066
:10227000F0BD0000083802400024F40000127A008B
:102280006901002010B5044600BF02210A4800F091
:1022900091F80028F9D02146074800F097F800BFD0
:1022A0000121054800F086F80028F9D0024800F026
:1022B0008AF8C0B210BD00000038004070B5054675
:1022C0000E46002405E00020FFF7DCFF2855601CC7
:1022D00084B2B442F7DB70BD00B587B001210220A3
:1022E000FFF72CFF05220D212A48FEF7D3FC05221B
:1022F0000E212848FEF7CEFC05220F212548FEF7C7
:10230000C9FC02208DF8040003208DF80500002090
:102310008DF8060001208DF8070040030090694603
:102320001C48FEF76FFC4FF4804000906946194846
:10233000FEF768FC4FF40040009069461548FEF730
:1023400061FC01218803FFF709FF0020ADF80800B8
:102350004FF48270ADF80A000020ADF80C000220A6
:10236000ADF80E000120ADF810004002ADF81200EB
:102370000020ADF81400ADF816000720ADF81800E5
:1023800002A9054800F024F80121034800F006F8EE
:1023900007B000BD000402400038004021B10288AF
:1023A00042F04002028004E002884FF6BF731A40F8
:1023B000028070470246002013890B400BB10120B8
:1023C00000E000207047014688897047818170478E
:1023D00010B50022028802F441520B884C88234336
:1023E0008C882343CC8823430C8923434C89234383
:1023F0008C892343CC8923431A430280838B4FF279
:10240000FF74234083830B8A038210BD01461C485E
:10241000814201D2002070471A48814201D208202F
:10242000F9E71948814201D21020F4E717488142A8
:1024300001D21820EFE71648814201D22020EAE7B6
:102440001448814201D22820E5E71348814201D295
:102450003020E0E71148814201D23820DBE7104804
:10246000814201D24020D6E70E48814201D2482065
:10247000D1E70D48814201D25020CCE75820CAE76D
:10248000004000080080000800C0000800000108AB
:102490000000020800000408000006080000080808
:1024A00000000A0800000C0800000E0830B50346C2
:1024B0000C461546002207E0184600F008F844F8DC
:1024C00022001B1D501CC2B2AA42F5D330BD0146EA
:1024D000086870472DE9F04704460E4617464FF04E
:1024E00009080025A946B4F1006F02D304F00300E7
:1024F00008B1BDE8F087FEF7C3FA0020FEF70EFA38
:10250000254604EB87091848854215D211E0284674
:10251000FFF7DDFF401C58B12846FFF777FF8246E2
:102520000221FEF70DFA8046B8F1090F01D002E052
:102530002D1D4D45EBD300BFB8F1090F0CD108E0BC
:1025400020463168FEF774FA092800D003E0361DF2
:10255000241D4C45F4D300BF0120FEF7DFF9FEF740
:102560005DFA00BFC5E700000000FF1F70B5002442
:1025700000BF1EE001F07EFD054604EB44000E495D
:1025800001EB80008068281A04EB44010A4A02EB40
:102590008101C98888420AD304EB4400114601EB4B
:1025A0008000856004EB440152F821008047601CE4
:1025B000C4B2072CDED370BD5C000020002000BF39
:1025C0001FE000EB4001104A02EB810189884FF4C3
:1025D0007A7292FBF1F100EB40020B4B03EB8202AB
:1025E000D18000EB40011A4602EB8101C988012924
:1025F00005DA012100EB400203EB8202D180411C8D
:10260000C8B20728DDD370475C00002010B5FEF784
:1026100033FF0A480078401C0849087008460078D3
:10262000142190FBF1F201FB1200044908700846E6
:10263000007808B9FDF798FF10BD0000C600002023
:102640000CB50020019000903448006840F48030C0
:102650003249086000BF3148006800F40030009043
:102660000198401C0190009818B90198B0F5A04F4E
:10267000F1D12A48006800F4003010B10120009028
:1026800001E0002000900098012846D12348403006
:10269000006840F0805021494031086020480068BF
:1026A00040F440401E4908601C48083000681B493F
:1026B000083108600846006840F400400860084699
:1026C000006840F4A05008601648091F0860081F01
:1026D000006840F08070091F086000BF0F48006864
:1026E00000F000700028F9D040F205700E49086033
:1026F0000A480830006820F00300084908310860E3
:102700000846006840F00200086000BF0348083037
:10271000006800F00C000828F8D10CBD0038024019
:102720000070004008544007003C024000B5B0EE85
:10273000402AB0EE420AFFF701F920EE020A00BD7E
:10274000042808D14FF0E021096941F004014FF05D
:10275000E022116107E04FF0E021096921F0040156
:102760004FF0E0221161704702480068401C0149A7
:10277000086070470000002010B51548006840F45C
:102780007000134908601348006840F001001149C7
:10279000086000200F49083108600E4800680E49A3
:1027A00008400C4908600D48091D0860081F0068B2
:1027B00020F48020091F0860002006490C310860C1
:1027C000FFF73EFF4FF0006001498039086010BDFF
:1027D00088ED00E000380240FFFFF6FE10300024D4
:1027E000F0B50C46154600210022068C4FF6FE7708
:1027F0003E400684018B028C4FF60C7631407E1CE5
:1028000006EA03162E4331434FF6F576324044F084
:102810000106324301830284F0BDF0B50C46154633
:10282000002100220026078C4FF6EF7C07EA0C07F8
:102830000784018B028C4FF6FF7707EA041640F6F7
:10284000FF4739404FF6FF7707EA033739434FF622
:10285000FF7707EA052739434FF65F773A4046F09E
:1028600010073A4301830284F0BDF0B50C461546CB
:10287000002100220026078C4FF6FF6C07EA0C07A8
:102880000784818B028C4FF6FF7707EA04264FF608
:102890000C7739404FF6FF7707EA03172F43394388
:1028A0004FF2FF573A4046F480773A4381830284DF
:1028B000F0BDF0B50C461546002100220026078C1D
:1028C0004EF6FF7C07EA0C070784818B028C4FF6DB
:1028D000FF7707EA043640F6FF4739404FF6FF77A7
:1028E00007EA052739434FF6FF7707EA03373943ED
:1028F00045F6FF773A4046F480573A438183028495
:10290000F0BD000010B501210E4800F0D4F8B8B1B8
:1029100001210C4800F090F80B480068401C0A495F
:10292000086001F0E5FD084800683221B0FBF1F2D3
:1029300001FB1200012803D19FED040A01F008FEFB
:1029400010BD0000001000402000002000004842A0
:102950002DE9FE4F04460D4601211020FFF7FEFB36
:10296000601E0190681E80B2ADF800000020ADF836
:102970000800ADF8020069462C4800F093F93620B3
:102980000322022617461346C3F10709B9F1040FC3
:1029900002D94FF0040901E0C3F10709C84603F169
:1029A0000409B9F1070F02D24FF0000901E0A3F1C9
:1029B0000309CC464FF0010909FA08F9A9F1010908
:1029C00009EA060909FA0CF94FF0010A0AFA0CFAA9
:1029D000AAF1010A0AEA070A49EA0A0100BF002827
:1029E00007DA0A07160E124A00F00F031B1FD6540F
:1029F00003E00A07130E0F4A135400BF362000F0FD
:102A00001F02012191404209920002F1E022C2F826
:102A1000001100BF01221146044800F094F8012182
:102A2000024800F00CF8BDE8FE8F000000100040E6
:102A300018ED00E000E400E0CA430282704721B1D3
:102A4000028842F00102028004E002884FF6FE7321
:102A50001A400280704731B1B0F8442042F400427D
:102A6000A0F8442005E0B0F84420C2F30E02A0F81C
:102A700044207047F0B50C4615461E460021002242
:102A800000230189028B038C4FF6F87739402143EC
:102A90004FF6FC473A4040F201173A434FF6DD77D4
:102AA0003B404FF6FF7707EA06172F433B43018170
:102AB00002830384F0BD30B50246002000230024C9
:102AC000158A05EA0103958905EA010413B10CB1E1
:102AD000012000E0002030BD70B505460C4620887E
:102AE00050B92389A28861882846FFF779FEE188DA
:102AF000284600F0ABF825E0208804280AD1238975
:102B0000A28861882846FFF788FEE188284600F001
:102B1000A6F817E0208808280AD12389A2886188AE
:102B20002846FFF7A2FEE188284600F0A5F809E054
:102B30002389A28861882846FFF7BBFEE1882846E2
:102B400000F0A3F870BD1AB183890B43838102E0C2
:102B500083898B438381704770B500240022002352
:102B6000058C4FF6FE7635400584028C8388048BF5
:102B70004FF68F752C40B51E2C400D882C43751ECA
:102B80002A408D892A434D882A43104DA84202D0FD
:102B90000F4DA84213D14FF6F7752A40CD892A432D
:102BA0004FF6FB752A408D882A434FF6FF652B4070
:102BB0004FF6FF552B400D8A2B434D8A2B438380C4
:102BC00004838D684563028470BD000000000140ED
:102BD0000004014070B5002200230024058C4EF64D
:102BE000FF7635400584038C8488828B48F6FF7518
:102BF0002A404FF6FF452A400D884FF6FF7606EA39
:102C000005252A434DF6FF752B408D8906EA0535CB
:102C10002B434D8806EA05352B430A4DA84202D0C6
:102C2000094DA84208D14BF6FF752C400D8A4FF68E
:102C3000FF7606EA85152C43848082838D680564BF
:102C4000038470BD0000014000040140028B4FF678
:102C5000F3731A400283028B0A4302837047028B8C
:102C60004FF2FF331A400283028B4FF6FF7303EAE1
:102C700001231A4302837047828B4FF6F3731A4085
:102C80008283828B0A4382837047828B4FF2FF33A9
:102C90001A408283828B4FF6FF7303EA01231A43A3
:102CA0008283704700220288184B98420ED0184B3E
:102CB00098420BD0B0F1804F08D0164B984205D007
:102CC000154B984202D0154B984204D14FF68F73A2
:102CD0001A404B881A43124B984207D0114B984226
:102CE00004D04FF6FF431A400B891A4302804B6809
:102CF000C3620B880385054B984202D0044B98426F
:102D000001D18B7A03860123838270470000014042
:102D1000000401400004004000080040000C004096
:102D2000001000400014004010B540F22771164812
:102D300000F04DF8A8B1154801780078401C134AFE
:102D400010701348405C1049888010460078114983
:102D50000978884205D10C48808920F080000A4912
:102D6000888140F22551084800F031F858B140F20E
:102D70002551054800F010F8034800F0E1F8C4B20E
:102D8000204602F045F910BD001001402800002047
:102D9000AE0100202900002010B50022002340F6DB
:102DA0006A14A14200D100BF0A1201249440A3B2C8
:102DB000DC43048010BD21B1828942F4005282813B
:102DC00004E082894DF6FF731A408281704770B526
:102DD0000246002400230025002040F66A16B14276
:102DE00000D100BFC1F3421501F01F03012606FA0E
:102DF00003F3012D02D19689334006E0022D02D162
:102E0000168A334001E0968A33400C12012606FAF6
:102E100004F41688344013B10CB1012000E0002006
:102E200070BDF0B50346002400260025002040F6C2
:102E30006A17B94200D100BF1846C1F3421401F02D
:102E40001F06012707FA06F5012C01D10C3004E01A
:102E5000022C01D1103000E014301AB107682F4362
:102E6000076002E00768AF430760F0BD2DE9FF4748
:102E700005460E460024A14600BFA046B08900B119
:102E800000BF2C8A24F44054F08804432C82AC897F
:102E900041F20C608443B08831890843718908434A
:102EA0000443AC81AC8A24F44074B0890443AC82FE
:102EB0006846FFF773F92048854202D01F488542D3
:102EC00002D1DDF80C9001E0DDF80890A88900F44B
:102ED000004040B109EBC90000EB0910316849001E
:102EE000B0FBF1F707E009EBC90000EB091031680E
:102EF0008900B0FBF1F76420B7FBF0F00401200972
:102F0000642101FB1078A88900F4004040B1322010
:102F100000EBC800B0FBF1F000F00700044308E04C
:102F2000322000EB08106421B0FBF1F000F00F003C
:102F300004432C81BDE8FF870010014000140140CC
:102F400001468888C0F30800704703B40198410027
:102F5000009850EAC12018BF04204A0D18BF40F065
:102F6000010040F2FF72B2EB515F08BF40F0020077
:102F7000012808BF052002B07047000000000000D3
:102F80002DE9F04D2DED040B2DED0E8B96B0DDE906
:102F90002550279CDDF890A025F0004624F000483D
:102FA000BAF1000F14BF0121002101EB4502FC49D9
:102FB00053184A1093422AD3002814BF0123002338
:102FC00003EB44030B44F7498B4220D358EA00013A
:102FD0009FEDF59B76D0DFF8D8B35D4503D1BAF10C
:102FE000000F05D188E0BAF1000F08BF002100D022
:102FF000012101EB450111F5001F08D8002814BF7D
:103000000121002101EB440111F5001F0BD99DEDB9
:10301000261B9DED240B16B0BDEC0E8B04B0BDE855
:10302000F04D00F069BE0027002DBCBFE149884586
:1030300021DAE1498845A8BF02271CDAC3451ADC1A
:10304000DE4901EB2851142908DDC1F1340220FAD0
:1030500002F101FA02F282420DD108E058B9C1F141
:10306000140228FA02F101FA02F2424503D101F0FA
:103070000101C1F1020756EA0A0124D1002C22DA2B
:10308000002D18BF022F01D0012F0AD00220FDF71A
:103090003AF916B0BDEC0E8B04B0BDE8F04D00F06F
:1030A00013BE0220FDF72FF900F00EFE51EC100BBD
:1030B00002F040F841EC100B16B0BDEC0E8B04B0E2
:1030C000BDE8F08D18E09FEDBEAB9FEDBF8B0028F3
:1030D00071D1B848804522D105F1804010F58010AB
:1030E00008BFBAF1000F07D0B3450ADC002CA8BF17
:1030F0009DED260BE0DA0DE0B0EE490AF0EE690A2C
:10310000DAE7002C06DA9DED260B51EC100B02F0ED
:1031100011F86FE0AE48784490ED000BCCE7D8454D
:103120004DD1002C48DA2EB186423AD1BAF1000FC7
:1031300042D126E0BAF1000F13D00220FDF7E3F8E8
:1031400000F0F6FD8DED020B9DED240B8DED000BD7
:1031500010EE900A039961F31E0003909DED020B9F
:10316000AAE78DED02AB9DED240B1AEE901A10EE3E
:10317000900A8DED000B61F31E0003909DED020B94
:103180009AE78DED028B9DED240B18EE901A10EE50
:10319000900A8DED000B61F31E0003909DED020B74
:1031A0008AE709DA9DED240B51EC190B53EC102B37
:1031B00002F0BAF81EE020E09DED240B7CE7864289
:1031C0001BDAB4F1804F0DD0A4F10050B0F1FF50E4
:1031D00013D1002D11DB9DED240B51EC100B01F0F0
:1031E000ABFD07E09DED240B53EC102B51EC100BC5
:1031F00000F0C2BC41EC100B5EE79DED240B51ECDE
:10320000100B00F063FEBAF1000FCDE90E0142D1C0
:103210009FED710B46B3A6F1E040B0F17F600CD09A
:103220005E4538D1002D00DAA7B3022F0CBF012074
:103230004FF0FF3002F02DFADCE7002D01DD002C0D
:103240000DDA002D01DD002C1FDB002D16DA002C1D
:1032500014DB012F08BF9FED620B3FF42DAFB0EEE2
:103260004A0AF0EE6A0A27E7022F18BF002D0CD099
:10327000012F0AD1002DFFF61FAF06E0002DB8BFC9
:10328000002C08DA012F3FF417AFB0EE480AF0EE39
:10329000680A11E71BE0012000EBE57050EA070126
:1032A00015D0791EB0EE498AF0EE698A084308BF4E
:1032B0009FED4D8B4E480025804570DD4D494E48B1
:1032C000884514DDB0420DDB002C19DB2FE0012016
:1032D000FDF719F816B0BDEC0E8B04B0BDE8F04D4B
:1032E00000F016BDB34502DC002C09DC1FE086426D
:1032F00002DA002C1BDA03E05E452BDD002C16DD24
:103300000220FDF700F800F013FD8DED020B53ECE9
:103310001A2B51EC180B02F023FACDE900010399A6
:10332000019861F31E0003909DED020BC4E602209C
:10333000FCF7E9FF00F00CFD10EE901A18EE900A71
:103340008DED020B8DED008B61F31E0003909DED62
:10335000020BB1E69DED0E0B53EC192B51EC100B4B
:1033600002F00AFC9FED260BCDE9080153EC102B6F
:103370009DED080B51EC100B02F0F2F99FED221BB2
:1033800053EC112B02F020FB9DED081B53EC112B8D
:1033900002F0E6F99FED1E1B53EC112B3CE08CE094
:1033A000FFFF1F00FFFF0F00000000000000F03FC4
:1033B0000000F03F0000F07F0000404301FCFFFFF1
:1033C000000000000000F07F00000000000000008E
:1033D000163E000000000000000000000000008019
:1033E000000000000000F0FF000000000000F0BF3F
:1033F0000000E0410000F043FFFFEF3F000000004D
:10340000000000000000D03F555555555555D53F9B
:10341000000000000000E03F02F0D6FA9DED080B2E
:1034200041EC1A0B53EC102B51EC100B02F098F9F5
:1034300053EC1A2B02F094F941EC1A0B9FEDFE0BA2
:1034400053EC102B9DED080B51EC100B02F088F99A
:1034500041EC1B0B9FEDFA0B51EC1A0B53EC102BAC
:1034600002F07EF941EC1A0B9FEDF70B53EC102B99
:103470009DED080B51EC100B02F072F953EC1A2B76
:1034800002F07AFB41EC1A0B51EC1B0B53EC1A2B9C
:1034900001F08EFE0690CDE906519DED060B53EC32
:1034A0001B2B51EC100B02F067FB53EC1A2B02F0B4
:1034B0008BFA41EC100B00F0A1B90020B6F5801F8B
:1034C0000EDA9FEDE30B53EC102B9DED0E0B51EC40
:1034D000100B02F045F9CDE90E016FF034000E46F5
:1034E00000EB2650A0F2FF37C6F31300DA4940F094
:1034F0007F6646F040568842D8BF002408DDD74991
:103500008142C8BF012403DC0024A6F580167F1C7D
:10351000D348784400EBC4000F9690ED00CB9DEDAE
:103520000E0B53EC1C2B51EC100B02F025FB9DED08
:103530000E0B41EC1B0B53EC1C2B51EC100B01F050
:1035400037FE41EC100B51EC190B53EC102B01F032
:10355000EBFE41EC1D0B51EC1B0B53EC1D2B02F051
:10356000FFF841EC1A0BBF488DED10AB7844109575
:1035700090ED000B4FF0005040EA660000EB8440F5
:103580008DED080B00F5002009909DED080B53EC24
:103590001C2B51EC100B02F0EFFA9DED0E1B53ECBF
:1035A000112B02F011FA41EC100B53EC102B9DED96
:1035B000100B51EC100B02F0D3F89DED080B41EC11
:1035C0001C0B53EC102B9DED100B51EC100B02F06B
:1035D000C7F853EC1B2B02F0F7F953EC1C2B02F04D
:1035E000CBFA53EC1D2B02F0BBF841EC1C0B53EC57
:1035F0001A2B51EC1A0B02F0B3F841EC1B0B9A4852
:103600000621B0EE4B0AF0EE6B0A784400F0E0FAC7
:10361000B0EE401AF0EE601AB0EE41DAF0EE61DA88
:1036200053EC1B2B51EC1B0B02F09AF853EC1D2BA7
:1036300002F096F89DED100B41EC1B0B53EC1A2B8E
:1036400051EC100B01F0B4FD53EC1C2B02F088F888
:1036500053EC1B2B01F0ACFD9DED100B41EC1B0B53
:1036600053EC102B51EC100B02F07AF841EC1D0BCF
:103670009FED7FEB53EC1E2B01F09AFD53EC1B2BBF
:1036800001F096FD0890CDE908519DED080B53EC33
:103690001E2B51EC100B02F06FFA53EC1D2B02F0B5
:1036A0006BFA53EC1B2B02F08FF99DED080B41ECEC
:1036B0001D0B53EC102B9DED100B51EC100B02F079
:1036C0004FF841EC1B0B53EC1A2B51EC1D0B02F085
:1036D00047F89DED080B41EC1A0B53EC102B51EC05
:1036E0001C0B02F03DF853EC1A2B01F061FD41EC8C
:1036F0001A0B51EC1B0B53EC1A2B01F059FD0C90DB
:10370000CDE90C519DED0C0B53EC1B2B51EC100B28
:1037100002F032FA53EC1A2B02F056F941EC1B0B73
:103720009FED550B53EC102B9DED0C0B51EC100B3A
:1037300002F016F841EC1A0B9FED510B51EC1B0BEC
:1037400053EC102B02F00CF841EC1B0B9FED4E0BD1
:1037500053EC102B9DED0C0B51EC100B02F000F80C
:1037600053EC1B2B01F024FD41EC100B484878442E
:1037700000EBC40090ED001B51EC100B53EC112B2F
:1037800001F016FD41EC1B0B384601F082FFCDE93C
:10379000080153EC1B2B51EC1A0B01F009FD41EC15
:1037A000100B3C48784400EBC40090ED00CB51EC8A
:1037B000100B53EC1C2B01F0FBFC9DED081B53EC94
:1037C000112B01F0F5FC0690CDE906519DED080B9B
:1037D00053EC102B9DED060B51EC100B02F0CCF9C5
:1037E00053EC1C2B02F0C8F953EC1A2B02F0C4F96D
:1037F00053EC1B2B02F0E8F841EC100B9DED261B5F
:1038000053EC102B8DED001B00959DED260B51EC1C
:10381000100B01F0A5FF9DED000B41EC1A0B53ECD2
:10382000102B9DED260B51EC100B02F0A5F99DED30
:10383000061B53EC112B2FE0000000604715F73FEB
:10384000FE822B654715F73F44DF5DF80BAE543E13
:1038500000000000000040438E9803007AB60B0081
:1038600092390000C0390000CA3800000000000092
:103870000000000000000840000000E009C7EE3F23
:10388000FD033ADC09C7EE3FF5015B14E02F3EBEB5
:10389000563700001037000001F062FF53EC1A2B7E
:1038A00001F086FC9DED060B41EC1A0B53EC102B3E
:1038B0009DED000B51EC100B01F052FFCDE90C0116
:1038C0009DED0C0B51EC1A0B53EC102B01F070FC1E
:1038D000CDE902010C46AA498C422FDB611A08434C
:1038E00018D19DED0C0B53EC102B9DED020B51EC00
:1038F000100B02F041F941EC1B0B9FEDA30B51ECB7
:103900001A0B53EC102B01F053FC53EC1B2B02F061
:1039100025F82DD20220FCF7F6FC00F009FA10EE93
:10392000901A18EE900A8DED020B8DED008B61F36D
:103930001E0003909DED020BFFF7BEBB944A24F0DE
:103940000041914214D39349214408437FF4EFACE2
:103950009DED0C0B53EC102B9DED020B51EC100B5D
:1039600002F00AF953EC1A2B01F0F8FF7FF6DFACF6
:1039700024F000408849894A002601EB2051824208
:103980002BDA481C4FF4801121FA00F02044844ABD
:10399000C0F30A517A44A1F2FF3192ED000B814A43
:1039A0008DED080BCA4020EA0202C0F3130040F478
:1039B0008010C1F1140120FA01F60992002CB8BF61
:1039C00076429DED080B53EC102B9DED0C0B51EC4A
:1039D000100B02F0D1F8CDE90C019DED0C0B51EC70
:1039E0001A0B53EC102B01F0E3FB9FED6F0B0890CB
:1039F000CDE9085153EC102B9DED080B51EC100B49
:103A000001F0AEFE41EC1B0B9FED690B53EC102B4C
:103A10009DED080B51EC100B01F0A2FE9DED0C0B7F
:103A200041EC1C0B53EC102B9DED080B51EC100BD3
:103A300002F0A2F853EC1A2B01F0C6FF9FED5E1BBB
:103A400053EC112B01F08CFE53EC1C2B01F0B0FB5E
:103A500041EC1A0B51EC1B0B53EC1A2B01F0A8FB99
:103A6000CDE902019DED020B53EC1B2B51EC100B29
:103A700002F082F853EC1A2B01F0A6FF9DED020B29
:103A800041EC1A0B53EC102B51EC100B01F068FEBB
:103A9000CDE908014A489DED080B0521784400F066
:103AA00097F89DED081B51EC100B53EC112B01F016
:103AB00057FE9DED021B53EC112B01F085FFCDE964
:103AC00006019DED020B53EC1A2B51EC100B01F08B
:103AD00047FE53EC1A2B01F06BFB9FED3B0B41ECC7
:103AE0001A0B53EC102B9DED060B51EC100B02F052
:103AF00043F89DED060B41EC1B0B53EC102B9DED99
:103B0000020B51EC100B01F02BFE53EC1B2B01F0C0
:103B10000BFC53EC1A2B02F02FF89DED021B53EC1B
:103B2000112B02F029F853EC192B01F04DFFCDE9D0
:103B3000020101EB065001150029C8BF039015DCF6
:103B40009DED020B324651EC100B02F0ACF9FFF781
:103B5000FCF9042808BF00F0FBF832469DED020B8B
:103B600051EC100B02F09FF9CDE902019DED020B23
:103B700051EC180B53EC102B01F0F2FDFFF73ABBA0
:103B80000000904000000000FE822B654715973C26
:103B900000CC904000346F3F01FCFFFF0000E03F8D
:103BA00098350000FFFF0F0000000000432EE63FA5
:103BB000396CA80C615C20BEEF39FAFE422EE63F5C
:103BC0006834000000000000000000000000004019
:103BD00070B504462DED028B4D1E00EBC500B0EE16
:103BE000408AF0EE608A90ED000B35F0060017D0A9
:103BF00053EC182B51EC100B01F0B2FD41EC100B03
:103C00006D1E04EBC50090ED001B51EC100B53EC46
:103C1000112B01F0CDFA41EC100B35F00600E7D185
:103C2000022D36D0042D1CD0062D1CBFBDEC028BFE
:103C300070BD53EC182B51EC100B01F091FD94ED7D
:103C40000A1B53EC112B01F0B3FA53EC182B01F0C3
:103C500087FD94ED081B53EC112B01F0A9FA41EC00
:103C6000100B53EC182B51EC100B01F079FD94ED77
:103C7000061B53EC112B01F09BFA53EC182B01F0AF
:103C80006FFD94ED040B53EC102B01F091FA41EC15
:103C9000100B53EC182B51EC100B01F061FD94ED5F
:103CA000021B53EC112B01F083FA53EC182B01F09B
:103CB00057FD94ED001B53EC112B01F079FABDEC8C
:103CC000028B41EC100B70BD9FED070B10B553EC50
:103CD000102B9FED070B51EC100B01F025FB41EC75
:103CE000100B10BD000000000000000000000000EC
:103CF000000000000000F03F10B553EC112B51EC18
:103D0000100B01F055FA41EC100B10BD0000000043
:103D10009FED050B10B553EC102B51EC100B01F07F
:103D200003FB41EC100B10BD000000000000000080
:103D30009FED050B10B553EC102B51EC100B01F05F
:103D40000FFD41EC100B10BD0000000000000070E2
:103D50009FED050B10B553EC102B51EC100B01F03F
:103D6000FFFC41EC100B10BD000000000000001033
:103D700010B5012000F00AF80A20FEF783FA0120AE
:103D8000FEF780FA002000F001F810BD10B50446DF
:103D90002CB14FF480610548FCF79FFF04E04FF41D
:103DA00080610248FCF79BFF10BD0000000C024040
:103DB00010B5044603E04FF47A7000F005F8201EB9
:103DC000A4F10104F7D110BD10B5034600F058F975
:103DD000044600BF00F054F9001B9842FAD310BD0E
:103DE00000B589B001210846FEF7B8F9012102208B
:103DF000FEF7B4F901210846FEF7A0F9C3200790A9
:103E000002208DF8200003208DF8210001208DF87C
:103E100022008DF8230007A92A48FCF7F3FE0122AF
:103E200000212848FCF736FF012211462548FCF7FF
:103E300031FF022206212348FCF72CFF0222072132
:103E40002048FCF727FF4FF6FF7005900020ADF8E3
:103E50001000ADF81200ADF8180004A94FF0804032
:103E6000FEF720FF04A91848FEF71CFF00204FF0C2
:103E7000804148621449243108600A231A4603210C
:103E80005807FEF7F7FD0A20ADF80C0001A940071E
:103E9000FEF722FE0A231A4603210B48FEF7EAFD2D
:103EA0000A20ADF80C0001A90748FEF715FE012114
:103EB0008807FEF7C4FD01210348FEF7C0FD09B0E5
:103EC00000BD0000000002400004004082B0CDE9C7
:103ED000000121F0004001909DED000B02B051EC7B
:103EE000100B7047B0EE401AF0EE601AB5EEC01A33
:103EF000F1EE10FA04D0F5EEC01AF1EE10FA02D18C
:103F00009FED550AA7E0B5EEC01AF1EE10FA02DDFA
:103F1000B0EE414A01E0B1EE414AF0EE442AF5EE3E
:103F2000C01AF1EE10FA02DDB0EE614A01E0B1EE26
:103F3000614AB0EE442AF4EEC22AF1EE10FA02D23F
:103F400082EE824A01E082EE224AB0EE443A9FEDD0
:103F5000434AB4EEC43AF1EE10FA02D2F0EE430A4C
:103F60002DE0DFED3F4AB6EE004A13EE244AF0EEB4
:103F7000443ABDEEE34A14EE100A04EE100AB8EE1D
:103F8000C44A33EEC44AF0EE443A364901EB8001AC
:103F900091ED004AF0EE440A324A411C02EB8101E5
:103FA00091ED004A114601EB8001D1ED004A74EE1B
:103FB000644AB0EE604A04EEA34AF0EE440AB4EE5E
:103FC000E22AF1EE10FA20DDF5EEC01AF1EE10FA59
:103FD0000ADBB5EEC01AF1EE10FA02DBB0EE600AB1
:103FE00039E0B1EE600A36E09FED1F0AB5EEC01A67
:103FF000F1EE10FA04DB30EE604AB0EE440A2AE03B
:1040000030EEC04AB0EE440A25E0B5EEC01AF1EE3B
:1040100010FA10DB9FED150AF5EEC01AF1EE10FA5A
:1040200004DB30EE604AB0EE440A14E030EE204A81
:10403000B0EE440A0FE09FED0E0AF5EEC01AF1EE65
:1040400010FA04DB30EE204AB0EE440A03E030EE12
:10405000604AB0EE440A7047000000008180803B57
:1040600000008043A46A0008DB0F4940DB0FC93F12
:10407000DB0FC9BF01480068704700000000002046
:104080004FF0E02040694FF0E0218969401A4FF07D
:10409000E0214969B0FBF1F04FF47A7148430449DB
:1040A000096801EB4102C2EBC11100EBC10070478E
:1040B0000000002070B50546284600F0C9FA68489F
:1040C000407830B96648007818B96548807800288B
:1040D0007ED06448C07828B16148B0F90800B0F5D6
:1040E000FA6F18DA0020604908806049088060494A
:1040F000088000240DE00021E01C5E4A42F82010F8
:104100000020114641F824005B4941F82400601C5E
:10411000C4B2032CEFDB59480078401C57490870A3
:10412000084600780A2853DB002008704C48407885
:10413000002845D04D480088401C4C490880002488
:104140000EE0E01C4B4951F8201045480A3030F988
:1041500014000144E01C474A42F82010601CC4B21D
:10416000032CEEDB41480088322829DB002417E0CD
:10417000E01C404951F8200000EE100AB8EEC00AD9
:10418000DFED3F0A80EE201A3E4800EB840080ED10
:10419000001A0021E01C374A42F82010601CC4B20B
:1041A000032CE5DB0020314908802D4840780128A8
:1041B00003D134480C38FCF7E9FC0020284948704A
:1041C00027480078012849D127480088401C00E092
:1041D00044E025490880274800682149B1F90410C6
:1041E000084424490860084641681D48B0F90600A3
:1041F000084420494860084681681948B0F9080019
:10420000A0F5805008441B49886017480088322870
:1042100024DB002416E0174850F8240000EE100AB2
:10422000B8EEC00ADFED160A80EE201A15480C38E9
:1042300000EB840080ED001A00200E4941F82400B4
:10424000601CC4B2032CE6DB0020074908800D483F
:104250000C38FCF77DFC00200149087070BD00009F
:10426000FC02002064010020C2000020C4000020E5
:10427000B6000020B003002068030020C00000202A
:10428000000048424404002010B504462CB14FF40D
:1042900080710548FCF721FD04E04FF4807102486D
:1042A000FCF71DFD10BD0000000C024070B5044677
:1042B0000E4615460120FFF7E7FF44F08000FDF7AA
:1042C000E1FF31462846FDF7F9FF0020FFF7DCFF4C
:1042D00070BD70B505460C460120FFF7D5FF284696
:1042E000FDF7D0FF06462046FDF7CCFF0020FFF784
:1042F000CBFF304670BD00001CB504462449606801
:10430000884203D101210846FDF718FF2149606862
:10431000884203D101210220FDF710FF1E49606889
:10432000884203D101210420FDF708FF1B49606882
:10433000884203D101210820FDF700FF1849606879
:10434000884203D101211020FDF7F8FE154960686D
:10435000884203D101212020FDF7F0FE1249606858
:10436000884203D101214020FDF7E8FE208900901A
:1043700001208DF8040003208DF8050000208DF841
:1043800006008DF8070069466068FCF73BFC1CBD21
:10439000000002400004024000080240000C0240FD
:1043A00000100240001402400018024010B50748F7
:1043B000FFF7A2FF054A11895068FCF78EFC5421D3
:1043C0004FF47A70FEF7C4FA10BD0000040000201C
:1043D00030B503460020132900DD1321294CE45C8D
:1043E000944229DA284C04EB830494ED002AB4EEBD
:1043F000C02AF1EE10FA02D2244CE15435E0224CEE
:1044000004EB830494ED002A70EE202AB4EEE22A35
:10441000F1EE10FA03D200241C4DEC5425E09FED80
:104420001C2A194C04EB830484ED002A154CE45C2F
:10443000641C144DEC5418E0134C04EB830494ED0D
:10444000002AB4EEC12AF1EE10FA03D200240F4D77
:10445000EC540AE09FED0E2A0B4C04EB830484ED30
:10446000002A0024074DEC540120074C04EB830480
:1044700094ED002A32EE212A034C04EB830484EDF0
:10448000002A30BD18000020140000201000002079
:104490000000000000B50648007806490978884207
:1044A00005D0034800780349087000F005F800BD06
:1044B000190000201A00002000200DE09FED080ADE
:1044C000084901EB800181ED000A0021064A1154E0
:1044D000064A1154411CC8B20128EFDB70470000A6
:1044E0000000000014000020100000201800002030
:1044F00010B5002422E01348005D1349095D88428D
:1045000007DA2CB9114A11895068FCF7E6FB00BFA5
:1045100007E02CB90D4A11895068FCF7E0FB00BF99
:1045200000BF0848015D005D401C064A1055132974
:1045300002DD002011460855601CC4B2012CDADBF4
:1045400010BD00001B00002010000020040000200F
:1045500000B5B0EE403AFFF79DFF2448007870B1F7
:104560002248407818B90120214908700AE01F4804
:104570004078012806D102201D49087002E0002081
:104580001B4908701A48007820B1012810D0022871
:104590002AD11BE0DFED171A9FED171ADFED170A7E
:1045A0009FED160A012214210020FFF711FF1BE0E6
:1045B000DFED101A9FED121ADFED100A9FED0F0AC2
:1045C000012214210020FFF703FF0DE0DFED091A9F
:1045D0009FED0A1ADFED090A9FED080A0122142156
:1045E0000020FFF7F5FE00BF00BF00BD280400203B
:1045F000190000200000484200401C450000C8424D
:104600000000FA4370B52DED028BB0EE408A0546EE
:104610000E46144622462946304600F081FD94EDB0
:10462000001AF0EE410A94ED011AB0EE410AFFF7CC
:1046300059FCDFED030A20EE200ABDEC028B70BDB1
:104640003333654200F0B0FB01E0FDF78FFFFCE77C
:104650000246002014E00E4931F91010002903DD54
:104660000B4931F9101003E0094931F910104942A2
:10467000322903DD0021074BD9707047411CC8B2B5
:104680000328E8DB0121034BD97000BFF5E70000E8
:10469000060300206401002030B58BB005460C46AF
:1046A00001211020FDF74AFD01210846FDF766FDB6
:1046B000012209212348FCF7EDFA01220E212148AD
:1046C000FCF7E8FA4FF48440099002208DF82800A6
:1046D00000208DF82B008DF82A0003208DF829008A
:1046E00009A91848FCF78EFA681E0790601E80B270
:1046F000ADF818000020ADF82000ADF81A0006A9AA
:104700001148FEF7CFFA6020ADF804000020ADF8A4
:1047100010000120ADF806000020039001A90A480E
:10472000FEF71AFA01A90848FEF754FA01210648D3
:10473000FEF791F901210448FEF781F900F006F82F
:104740000BB030BD00100240000001401CB501213B
:104750001020FDF7F3FC4FF44060009001208DF82D
:10476000040000208DF807008DF8060003208DF866
:10477000050069461548FCF745FA4FF400400090E3
:1047800001208DF8040000208DF807008DF8060048
:1047900003208DF8050069460C48FCF733FA4FF406
:1047A0004050009001208DF8040000208DF8070093
:1047B0008DF8060003208DF8050069460348FCF7D4
:1047C00021FA0020024908601CBD000000100240D0
:1047D000BC0242421CB501211020FDF7AFFC7C2039
:1047E000009001208DF8040000208DF806000120C3
:1047F0008DF8070003208DF8050069464C48FCF74A
:1048000001FA7C214A48FCF76AFA10214848FCF773
:1048100066FA6420FFF7CCFA10214548FCF75DFAF0
:104820006420FFF7C5FA10214148FCF758FA6420CC
:10483000FFF7BEFA0021AE20FDF70CFB0021084671
:10484000FDF708FB00211020FDF704FB00214020AC
:10485000FDF700FB00218120FDF7FCFA0021CF20AD
:10486000FDF7F8FA0021A120FDF7F4FA0021C82095
:10487000FDF7F0FA0021A620FDF7ECFA0021A820B0
:10488000FDF7E8FA00213F20FDF7E4FA0021D320EC
:10489000FDF7E0FA00210846FDF7DCFA0021D520FB
:1048A000FDF7D8FA00218020FDF7D4FA0021D920A5
:1048B000FDF7D0FA0021F120FDF7CCFA0021DA2033
:1048C000FDF7C8FA00211220FDF7C4FA0021DB2011
:1048D000FDF7C0FA00214020FDF7BCFA002120209E
:1048E000FDF7B8FA00210220FDF7B4FA00218D206F
:1048F000FDF7B0FA00211420FDF7ACFA0021A42046
:10490000FDF7A8FA0021A620FDF7A4FA0021AF20A8
:10491000FDF7A0FA0021AF20FDF79CFA00F00AF89D
:1049200000210846FDF77EFAFDF7CCFA1CBD000019
:104930000010024070B5002419E004F1B001C8B2C3
:104940000021FDF787FA00210846FDF783FA0021D0
:104950001020FDF77FFA002505E001210020FDF77A
:1049600079FA681CC5B2802DF7DB601CC4B2082C34
:10497000E3DB70BD2DE9F04180460E461746A7F1F6
:104980002000C5B231464046FDF74CFA002408E04D
:1049900004EB05110E4A505C0121FDF75BFA601C27
:1049A000C4B2082CF4DB701CC1B24046FDF73AFAE1
:1049B000002409E004EB05110831054A505C01218F
:1049C000FDF748FA601CC4B2082CF3DBBDE8F081A7
:1049D000325F00082DE9F74F2DED020B2DED0C8B0A
:1049E0008AB0B0EE408AF0EE608A9246142105A8A3
:1049F000FBF75AFC4FF00008002001900290039052
:104A00000024B0EE489AF0EE689A9FED7C0B53ECD0
:104A1000102B51EC180B00F067FE09D253EC182B49
:104A20009FED760B51EC100B01F0A6F841EC180B42
:104A3000BAF1090F01DD4FF0090A51EC180B00F033
:104A4000FBFD0646B346504600F03AFE41EC1D0B16
:104A5000B0EE4D1AF0EE6D1A9FED6A0BFEF790FA6C
:104A6000B0EE40BAF0EE60BA304600F012FE41EC13
:104A70001D0B53EC182B00F0A7FF41EC1C0B53EC63
:104A80001B2B00F06DFE41EC1A0B00F0A5FD074654
:104A900000BF0A2096FBF0F100FB1160C2B2204675
:104AA000611CCCB201A90A540A2096FBF0F6002E34
:104AB000EFDC9FED520B53EC102B51EC190B00F077
:104AC00013FE05D2FD222046611CCCB201A90A5476
:104AD000A146601EC4B200BF2046611ECCB201A92F
:104AE000085C3030C2B24046411C01F0FF0805A905
:104AF0000A54C845F0DBBAF1000F71D0002467B941
:104B0000002507E000222046611CCCB201A90A540E
:104B1000681CC5B25545F5DB44E000BF0A2097FB91
:104B2000F0F100FB1170C2B22146601CC4B201A8B2
:104B300042540A2097FBF0F7002FEFDC01252FE00D
:104B4000284600F0BDFD41EC1D0BB0EE4D1AF0EE15
:104B50006D1A9FED2C0BFEF713FAB0EE40BAF0EE93
:104B600060BA584600F095FD41EC1D0B53EC182B34
:104B700000F02AFF41EC1C0B53EC1B2B00F0F0FD66
:104B800041EC1A0B00F058FD80B240B9681CC5B268
:104B900000222046611CCCB201A90A5400E0002585
:104BA000002DCDD1FE222046611CCCB201A90A54B1
:104BB000A14608EB0900C0B20490601EC4B200BF59
:104BC0002046611ECCB201A9085C3030C2B240461A
:104BD000411C01F0FF0805A90A5404988045EFDB49
:104BE000199AD1B2189AD0B205AA00F00FF80AB0FB
:104BF000BDEC0C8B05B0BDE8F08F0000000000009C
:104C00000000000000000000000024402DE9F041F9
:104C100004460F46154600260CE0AA5D394620469C
:104C2000FFF7A8FE04F10800C4B2701CC6B2782CCD
:104C300000DD02E0A85D0028EFD100BFBDE8F081F3
:104C400070B504460D461646D4ED020A60EEA00A81
:104C500094ED011AD4ED011A41EE210AB0EE600A7A
:104C6000FDF764FD314880ED000AD4ED020A60EEE4
:104C7000A00A94ED001AD4ED001A41EE210AB0EE1C
:104C8000600AFDF753FD2A4880ED000A94ED020A00
:104C9000B5EEC00AF1EE10FA02D24FF0FF3000E09C
:104CA00001202449087095ED000A2048D0ED000A43
:104CB00020EE200A94ED001A0846007800EE900AD3
:104CC000F8EE600A61EE200A95ED021A00EEC10AC4
:104CD00086ED000A0846007800EE100AB8EE400A99
:104CE0001348D0ED000A20EE200AD5ED010A20EE8F
:104CF000200AD4ED010A95ED021A00EEC10A86EDF4
:104D0000010A94ED000AD5ED000A20EE200AD4ED48
:104D1000010A95ED011A00EE810AD4ED020A95ED23
:104D2000021A00EE810A86ED020A70BD28010020F9
:104D30002C0100202401002000B52DED048B83B050
:104D400041EC190B00F04CFE41EC180B18EE100A68
:104D500018EE901A8DED008B002818BF0120084333
:104D600020F00040C0F17F6000F1E040C00F14D09F
:104D700019EE101A19EE900A8DED009B002918BF4C
:104D80000121084320F00040C0F17F6000F1E040C5
:104D9000C00F04BF0120FBF7B6FA51EC180B03B0AB
:104DA000BDEC048B00BD000010B500F023F8FFF748
:104DB000FDFA4FF4E13000F04BF8FDF78DFAFBF708
:104DC0005FFCFFF70DF8022141F26800FFF764FC79
:104DD000FCF732FBFBF7A0FBFCF758FB04494870DB
:104DE0000870FBF771FEFFF7F5FCFDF7E7FB10BD60
:104DF0006401002070B545F20821481EB0F1807FA3
:104E000000D31BE0481E4FF0E022506150170F22E4
:104E1000002807DA13071D0E0B4B00F00F04241FA8
:104E20001D5503E013071C0E084B1C5400BF002047
:104E30004FF0E02290610720106100BF6FF0040086
:104E4000FDF77EFC70BD000018ED00E000E400E01E
:104E50002DE9F04387B0044601211020FDF78EF9BB
:104E600001210220FDF76AF9072206214348FBF7DA
:104E700011FF072211464148FBF70CFFC0200590A7
:104E800002208DF8180000208DF81B008DF81A0004
:104E900003208DF8190005A93848FBF7B3FE0194EB
:104EA0000020ADF80C00ADF80A00ADF80800ADF830
:104EB00010000C20ADF80E0001A93148FDF7D6FF17
:104EC000012240F225512E48FDF7ABFF002240F2AF
:104ED00027712B48FDF7A5FF2520022201252E462C
:104EE0001346C3F10708B8F1040F02D94FF00408C4
:104EF00001E0C3F10708C44603F10408B8F1070F45
:104F000002D24FF0000801E0A3F1030847464FF03A
:104F1000010808FA0CF8A8F1010808EA050808FADF
:104F200007F84FF0010909FA07F9A9F1010909EA9F
:104F3000060948EA090100BF002807DA0A07150E2A
:104F4000104A00F00F031B1FD55403E00A07130E8D
:104F50000D4A135400BF252000F01F02012191408B
:104F60004209920002F1E022C2F8001100BF0121C3
:104F70000348FDF720FF07B0BDE8F08300040240BE
:104F80000010014018ED00E000E400E002780D2A76
:104F900008D142780A2A05D1827E0A2A02D1C27E2D
:104FA0000D2A00D07047134A92ED000A124A82ED92
:104FB000000A104A92ED010A104A82ED000A0D4AD9
:104FC00092ED020A0E4A82ED000A0A4A92ED030AA5
:104FD0000C4A82ED000A074A92ED040A0A4A82ED61
:104FE000000A044A92ED050A084A82ED000A00BF51
:104FF000D8E70000B0020020340000203800002074
:105000003C0000202C000020300000204000002048
:1050100000B503463C48007880B90D2B0ED1002026
:105020003A490870012038490870384801780078FA
:10503000401C364A10703648435463E032480078CA
:10504000012813D10A2B11D102202F49087000200A
:10505000304908701820304908702C4801780078D1
:10506000401C2A4A10702A4843544BE026480078D6
:1050700002281FD12848007800281BDD2648007828
:10508000401E25490870234801780078401C214AB9
:105090001070224843541D4801780078401C1B4A78
:1050A00010701B4843541C48007838BB0320164935
:1050B000087027E01448007803280DD10A2B0BD183
:1050C000042011490870114801780078401C0F4AEB
:1050D00010700F48435415E00B48007804280ED197
:1050E0000D2B0CD1002008490870094807490978A0
:1050F0004354064801780648FFF748FF02E00020C5
:105100000149087000BD0000470000204500002054
:105110007C0100204600002044000020B002002056
:1051200070B504460D461646324629462046FFF71E
:1051300087FD70BD81F00041704780F000407047EE
:1051400021F00041704720F00040704721F00042FC
:10515000A2F16052B2F5801F01F0004328BFD2F1E6
:105160007F6C0BD95FEA001C43EAC20242EB50702D
:1051700018BF704728BF20F001007047B2F5801FAC
:10518000BCBF184670474FEA410C1CF5001F02D205
:10519000084600F051BE70B500F08CFB000000899D
:1051A000FFF7F6BF4FF00040A0F580007047000009
:1051B00010B591EA030F48BF83F0004300F1E48487
:1051C000841A71EB030C05D2121943EB0C03001B7C
:1051D00061EB0C01DFF824E14FEA1154A4EB135CFE
:1051E0001EEA430F18BF9EEA445F73D023EA0E0302
:1051F000DCF1200E21EA045143F4801332D322FA69
:105200000CFE10EB0E0023FA0CFE41EB0E01CCF16C
:10521000200E03FA0EFE10EB0E0051F10001B1F565
:10522000801FCCF1200E32D201EB045112FA0EF2A3
:10523000BDE8104058BF7047401C38BF5FEA4202CB
:1052400018BF7047002814BF20F0010041F1000191
:105250004FEA410313F5001F38BF7047A1F1C04169
:1052600000F076BB012A43EB0302ACF1200CDCF129
:105270001F0E32BF4FF0000E23FA0CF310EB0300A9
:1052800041EB0451B4EB115FD0D0A1EB045101F517
:10529000801149085FEA300001EB04510ED350F150
:1052A000000038BF12FA0EFE08D1BDE81040C9E771
:1052B000401C38BF5FEA4202CAD1C3E7BDE81040D4
:1052C0004FEA410313F5001F38BF7047A1F1C041F9
:1052D00000F03EBB9EEA445F08D011EA5E0FBDE8D5
:1052E000104004BF01F0004100207047BDE81040AD
:1052F00070B500F0DFFA00BF64FBBE3E0000E0FFC7
:1053000002494FF0000000F09CBD00BF0000F87F94
:10531000491058BFC1F140415B1058BFC3F1404331
:105320008B42EFF3008070472DE9C04130B4DFF8C5
:10533000A0C23CEA111418BF3CEA131400F0EC8040
:1053400081EA03051CEA111444EAD57418BF1CEA6B
:10535000131500F0C780A4EB05044FF0004545EAA3
:10536000C12145EAC32341EA505143EA525304F1B3
:105370007F74994204F500344FEAC0204FEAC222FC
:1053800008BF904200F09C804FEA13650FF2401670
:10539000765D4FEA134506FB05F7C7F1807706FBFC
:1053A00007F74FEAD737A7FB03687642C8F580387E
:1053B000A7FB06CE38BFA8F1010807FB08E64FF0AF
:1053C000000EA6FB028CE6FB03CEDCF1000CCEF156
:1053D000004E38BFAEF1010EA6FB0C584FF000078F
:1053E0004FF00005E6FB0E87A1FB08C6A0FB07CE29
:1053F00016EB0E0645F10005E1FB076515F1E04EE1
:105400007EBFA4F580345FEA46066D4116F1800741
:1054100045F100054FEA17274FEA066647EA056798
:10542000A6F1DE46B6F1805F4FEA15251FD9384652
:1054300024F0010C05EBC471BCF1FE6F01EB0C1103
:1054400002D8F0BCBDE8008124425CBF01F5801E9B
:105450009EEAC47F02D4F0BCBDE80081244238D467
:10546000F0BCA1F1C041BDE8004100F071BA4FEAC3
:10547000D22242EA43524FEAD323A7FB02864FEAE5
:10548000D02040EA415007FB03661EEA0E0F4FEAA8
:10549000D12105FB026658BFA6EB0056B6EB0056BD
:1054A0004FEA520E4EEAC37E18EB0E0E56EB530E29
:1054B000BDD518EB02085E417F1C55F10005B6E72B
:1054C0004FF480154FF000074FF000064FF0000832
:1054D000ADE7F0BC4FF0000001F1C04101F0004128
:1054E000BDE8008111EA0C1F0CEA131500D00CE096
:1054F00013EA0C1F00F025804FF00000F0BC81EA99
:10550000030101F00041BDE80081F0BCBDE80041AD
:1055100081EA030100F01CBAF0BCBDE8004170B59F
:1055200000F0C8F9097EFC3E00F007B881EA0301EB
:105530004FF0000001F00041704781EA030100F0E4
:1055400007BAF0BCBDE800414FF0000021497047A8
:10555000FFFDFBF9F7F5F4F2F0EEEDEBE9E8E6E438
:10556000E3E1E0DEDDDBDAD8D7D5D4D3D1D0CFCDBF
:10557000CCCBCAC8C7C6C5C4C2C1C0BFBEBDBCBBF8
:10558000BAB9B8B7B6B5B4B3B2B1B0AFAEADACABF3
:10559000AAA9A8A8A7A6A5A4A3A3A2A1A09F9F9ECD
:1055A0009D9C9C9B9A99999897979695959493937F
:1055B000929191908F8F8E8E8D8C8C8B8B8A898916
:1055C0008888878786858584848383828281818099
:1055D0000000FF070000F87F4FEA41034FEA5353F2
:1055E000A3F58063D3F11E03C8BFD3F1210C0CDDFA
:1055F0004FF0004242EAC12242EA505232FA03FC22
:105600008CEAE17CACEBE1707047102BC4BF00204A
:10561000704703F5787CBCF1FF3F04D06FF0004287
:1056200082EA2100704770B500F044F94992248065
:1056300000207047F2E700004FEA1153A3F58063A2
:10564000D3F11E03A8BFD3F1200C08DB4FF00042BA
:1056500042EAC12252EA505232FA03F0704709423C
:105660000BD4102BC4BF0020704703F5787CBCF12D
:10567000FF3F05D04FF0FF3070474FF000007047FC
:1056800070B500F017F900BF4992248000207047E0
:10569000F0E710F0004248BF4042B0FA80F310FA41
:1056A00003F10AD0C3F11D0303F580634FEA4150B3
:1056B00002EB035202EBD12170474FF0000070471C
:1056C000B0FA80F310FA03F10AD0C3F11D0303F519
:1056D00080634FEA41504FEA035202EBD1217047F9
:1056E0004FF000007047000051EA030C17D41CF57E
:1056F000801F58BFBCF5801F00F10680994218BF7B
:10570000704708BF9042704707D711F5801F58BFF8
:1057100013F5801F19D499427047894270471CF5D0
:10572000801F08D5BCF5801FF7D58B4218BF704786
:1057300008BF824270474FF4001C1CEB410F38BF7A
:105740001CEB430F01D28B42704770B500F0B2F8EA
:10575000922449004FF000514FF08053FFF7D8BD1D
:10576000DFF848C170B51CEA111E1EBF1CEA1315F4
:105770009EEA0C0F95EA0C0F00F06F8081EA03049B
:1057800023EA4C134EEAD47E21EA4C1141F48011F5
:1057900043F48013AE44A1FB024CA0FB0365AEF1C1
:1057A0007F7E361955EB0C05A1FB034C4CF1000331
:1057B000A0FB021C16EB0C06654153F100030942E5
:1057C00018BF46F0010613F4007F0BD14FEA0331F6
:1057D0004FEA0530340341EA155140EA16506FF0A4
:1057E00003020AE04FEAC3214FEAC520F40241EA6E
:1057F000555140EA56506FF0020202EB2E4201EB87
:10580000025585EACE710AD05FEA440C18BF24F035
:10581000004450F1000041F1000120EAD47040F250
:10582000FE7C624500D270BDA84214BF4FF0804498
:105830004FF04044002E08BF0024BEF1806FA8BF87
:10584000A1F1C041BDE8704080F282804FF00000BD
:1058500001F1C04101F0004170479EEA0C0F0CEAD3
:10586000131518BF95EA0C0F06D04FF0000081EA1F
:10587000030E0EF0004170BD00F01CF88900013EDF
:1058800000F007B800F009B84FEA430C5FEA5C5C2F
:1058900008D081EA030100F05BB84FEA410C5FEAEF
:1058A0005C5CF6D14FF00000014970470000FF0733
:1058B0000000F87F0EF1020E2EF0030E5EF8046B6E
:1058C000364205D4012A43EB030515F5001F12D813
:1058D000012841EB010C1CF5001F0CD80ED14FEA3A
:1058E000D17C15F5001F0CEB4C0C0CF1020C08BF21
:1058F0004CEBD37C04E04FF0080C01E04FEAD37C82
:105900000CEB4C0526FA05F606F00706B6F1040C7A
:1059100006D20EEB860CBDE870404CF0010C6047DF
:10592000DFE80CF0090B02024FF000414FF00000DD
:10593000A1F5002170BD19461046012851EB010464
:1059400018BFD4F5001484BF002001F0004170BDE1
:105950000808A0F500114FEA3101704753EA010C25
:1059600017D41CF5801F58BFBCF5801F00F10680BE
:105970008B4218BF704708BF8242704707D713F5A4
:10598000801F58BF11F5801F19D48B4270479B426E
:1059900070471CF5801F08D5BCF5801FF7D59942CC
:1059A00018BF704708BF904270474FF4001C1CEBB3
:1059B000430F38BF1CEB410F01D2994270470FB41F
:1059C0000CBC03BCFFF7C1BE91EA030F10B581F018
:1059D00000413FF5F5AB83F0004300F0D5B800007F
:1059E0002DE9F04101F5801CBCF5001FC0F2A98033
:1059F0004FEA115C21EA0C510CF1FD0C41F48011CD
:105A00005FEA5C0C0CF5C07C01D34000494130A436
:105A1000890241EA905187028E0E0A0CA45D04FBB4
:105A200004F602FB06F6C6F14046A4FB0662F60D3C
:105A300046EA422606FB06F4A4FB01235242C3F1C8
:105A4000404338BF5B1EA6FB02420024E6FB032452
:105A5000D20B42EA4446A6FB0623A1FB02E2A3FBCB
:105A600007E4E3FB61426442C2F1404E38BFAEF14D
:105A7000010EA6FB04234FF00002E6FB0E32A2FB50
:105A800003463400E2FB6264A1FB06E6A4FB07E8E0
:105A9000E4FB61687642C8F1405838BFA8F10108BC
:105AA000A2FB06E4A3FB08E5E2FB6854A1FB05E6C4
:105AB000A7FB04E8E1FB648618F1200556F1000617
:105AC000A809A8F11B08B10908F03F08B8F10A0FAE
:105AD00040EA86601CD901EB0C51BDE8F08100BFA3
