:020000040800F2
:100000007805002045010008490D00084B0C000848
:10001000450D00087F0600083115000800000000AB
:10002000000000000000000000000000990E000821
:10003000190B0008000000004B0D0008850F000898
:100040005F0100085F0100085F0100085F01000810
:100050005F0100085F0100085F0100085F01000800
:100060005F0100085F0100085F0100085F010008F0
:100070005F0100085F0100085F0100085F010008E0
:100080005F0100085F0100085F0100085F010008D0
:100090005F0100085F0100085F0100085F010008C0
:1000A0005F0100085F0100085F0100085F010008B0
:1000B0005F0100085F010008E90F00085F01000808
:1000C0005F0100085F0100085F0100085F01000890
:1000D0005F010008011200085F0100085F010008CD
:1000E0005F0100085F0100085F0100085F01000870
:1000F0005F0100085F0100085F0100085F01000860
:100100005F0100085F0100085F0100085F0100084F
:100110005F0100085F0100085F0100085F0100083F
:100120005F0100085F0100085F0100085F0100082F
:10013000DFF80CD000F036F90048004755150008EC
:10014000780500200648804706480047FEE7FEE79E
:10015000FEE7FEE7FEE7FEE7FEE7FEE7FEE7FEE777
:10016000890F000831010008F0B480EA0102D40FC1
:100170004200B2EB410F02D20246084611464A0045
:1001800042D0C30DDDB2C1F3C752AD1A202D35DA0E
:10019000C1F3160141F4000204B15242C5F1200638
:1001A00002FA06F12A411044B3EBD05F23D0C4B168
:1001B000012DA0EBC35009DCF0BC4FF0004202EA75
:1001C000C352DBB200F5000000F0BDB8400000F102
:1001D000807000EBC350A0F1807040EAD1704900FC
:1001E00009E0490841EAC071A0EBC35000F50000E6
:1001F000400800EBC350F0BC00F09CB86142012203
:1002000002EB4101001BF6E7F0BC704781F00041B2
:10021000AAE780F00040A7E780EA010210B502F0EB
:100220000043400022D04A001FD0010E01EB1261B2
:10023000C0F35600C2F3560240F4000042F400023C
:10024000A0FB022000047F39140400D0401C50EAB7
:10025000124001D44000491EC2B20C0604EBD0107B
:10026000401C4008802A02D003E0002010BD20F08E
:100270000100002900DA0020184310BD30B480EAE4
:10028000010202F0004530F0004221F0004013D09E
:1002900090B1C30DD40DC2F31601C0F31600E41AD9
:1002A00041F4000140F400027D34914201D3641C0A
:1002B00000E04900002C02DA30BC002070474FF407
:1002C00000000023914201D3891A034340084FEAFA
:1002D0004101F7D151B1914202D14FF0004105E007
:1002E00002D24FF0010101E06FF0010103EBC450B5
:1002F000284430BC00F01EB896230022114600F0BE
:1003000022B800F0004220F00040C10DC0F31600FA
:1003100040F400007F2901DA00207047962903DCB1
:10032000C1F19601C84001E096398840002AF4D016
:10033000404270470029A8BF7047401C490008BFD1
:1003400020F00100704710B4B0FA80FC00FA0CF005
:1003500050EA010404BF10BC704749B1CCF120043D
:1003600021FA04F411FA0CF118BF012121430843CA
:10037000A3EB0C01CB1D4FEA00614FEA102042BFF6
:10038000002010BC704700EBC35010440029A4BFEC
:1003900010BC7047401C490008BF20F0010010BC91
:1003A00070470000064C074D06E0E06840F001038E
:1003B00094E8070098471034AC42F6D3FFF7BCFE30
:1003C000F01500081016000800B591B001211020AA
:1003D00000F0E8FC0121480200F0E4FC4FF400408A
:1003E00000F0B4FC0121084600F0BCFC1F20ADF871
:1003F000000000208DF8030069463B4800F08DFBAB
:1004000000200C9001208DF834008DF835004FF459
:1004100060200E9000200F9005208DF840000CA960
:10042000324800F093F8072301220A212F4800F0F8
:10043000B5F8072302220B212C4800F0AFF8072360
:1004400003220C21294800F0A9F8072304220D21DA
:10045000264800F0A3F8072305220E21234800F0C8
:100460009DF80121214800F052F801211F4800F0B9
:1004700043F81E4800F0EEF800BF1C4800F05CF89E
:100480000028FAD1194800F0F5F800BF174800F02D
:1004900049F80028FAD10121144800F0E0F8144886
:1004A00000F0FCF811484C300190124802900020F6
:1004B00003900520049000200590802006904000C5
:1004C0000790800008902020099000020A900020E8
:1004D0000B9001A9064800F087F90121044800F0BB
:1004E000D0F811B000BD0000001001400024014010
:1004F000080002405201002021B1826842F001024E
:10050000826003E0826822F001028260704721B1BC
:10051000826842F48072826003E0826822F4807212
:1005200082607047014600208A6802F004020AB126
:10053000012000E000207047014600208A6802F098
:1005400008020AB1012000E00020704730B50246E1
:100550000020002350680F4C20400D790C6844EABD
:1005600005242043506090680B4C2040D1E9025490
:100570002C434D7944EA450420439060D06A20F42E
:1005800070000C7C641EE4B2234340EA0350D06246
:1005900030BD0000FFFEF0FFFDF7F1FFF0B50446AF
:1005A0000D4600200021092D11DDE068A5F10A06A5
:1005B00006EB4607072606FA07F18843A5F10A0667
:1005C00006EB460603FA06F10843E0600CE02069FA
:1005D00005EB4507072606FA07F1884305EB4506B4
:1005E00003FA06F108432061072A0FDA606B561EF2
:1005F00006EB86071F2606FA07F18843561E06EB10
:10060000860605FA06F10843606322E00D2A0FDA38
:10061000206BD61F06EB86071F2606FA07F18843D4
:10062000D61F06EB860605FA06F10843206310E0A4
:10063000E06AA2F10D0606EB86071F2606FA07F10F
:100640008843A2F10D0606EB860605FA06F108437B
:10065000E062F0BD816841F008018160704721B11E
:10066000826842F4A002826003E0826822F4A00261
:1006700082607047816841F004018160704700BF6B
:10068000FEE721B1026842F00102026004E0026864
:100690004FF6FE731A4002607047000001684FF683
:1006A000FE72114001600021016041608160C16003
:1006B0004B49884208D14A490839496841F00F013D
:1006C000474A083A51608AE045491431884208D1C6
:1006D00043490839496841F0F001414A083A5160FC
:1006E0007DE03F492831884208D13D4908394968B1
:1006F00041F470613A4A083A516070E038493C313F
:10070000884208D136490839496841F47041344A71
:10071000083A516063E032495031884208D130498B
:100720000839496841F470212D4A083A516056E071
:100730002B496431884208D129490839496841F474
:100740007001274A083A516049E0254978318842CA
:1007500008D123490839496841F07061204A083AB4
:1007600051603CE01F49884206D1011F096841F0F1
:100770000F01021F116032E01A491431884208D17A
:100780001849091F096841F0F001164A121F11604B
:1007900025E014492831884208D11249091F096807
:1007A00041F470610F4A121F116018E00D493C318D
:1007B000884208D10B49091F096841F47041094A70
:1007C000121F11600BE007495031884207D10549DB
:1007D000091F096841F47021024A121F1160704715
:1007E000080002400804024010B50022026847F6E3
:1007F000F0739A430C6A8B6823430C6923434C695A
:1008000023438C692343CC6923434C6A23438C6A7A
:1008100023431A430260CB6843600B6883604B68D4
:10082000C36010BD70B54248008842490880404806
:10083000408848803E48808888803D48C088C8807D
:1008400010213D4800F0F4F918B901203949087227
:1008500002E00020374908728021374800F0E8F9AB
:1008600018B901213348417202E000213148417238
:100870002021314800F0DCF918B901212D4881729E
:1008800002E000212B48817240212B4800F0D0F972
:1008900018B901212748C17202E000212548C17220
:1008A0004FF40071254800F0C3F918B9012121481F
:1008B000017302E000211F48017340211F4800F02E
:1008C000B7F918B901211B48417302E0002119480A
:1008D00041734FF48071194800F0AAF918B9012149
:1008E0001448817302E0002112488173802113486B
:1008F00000F09EF918B901210E48C17302E00021F1
:100900000C48C1730A490889FFF7F6FC06464FF008
:100910008B41FFF7B3FC05460949FFF77DFC044610
:100920004FF08041FFF778FC0649086070BD000079
:10093000520100205C01002000080140001001402D
:1009400033335340080000202DE9F0416C490888FA
:10095000FFF7D2FC80466B49FFF790FC07466A49D7
:10096000FFF754FC80F0004668493046FFF754FC1E
:100970000546FFF7C6FC00B2654908806049488813
:10098000FFF7BAFC80465F49FFF778FC07465E49EF
:10099000FFF73CFC80F000465C493046FFF73CFC2A
:1009A0000546FFF7AEFC00B2594948805449888893
:1009B000FFF7A2FC80465349FFF760FC0746524907
:1009C000FFF724FC80F0004650493046FFF724FC36
:1009D0000546FFF796FC00B24D4988804849C88813
:1009E000FFF78AFC80464749FFF748FC074646491F
:1009F000FFF70CFC80F0004644493046FFF70CFC42
:100A00000546FFF77EFC00B24149C880002445E05E
:100A10003F4830F91400002804DA3D4830F914004A
:100A2000404202E03A4830F91400322804DA00204B
:100A3000374921F8140007E0354830F814003238FF
:100A400000B2334921F81400314830F9140000286D
:100A500004DA2F4830F91400404202E02C4830F903
:100A60001400B0F5FA7F17DD294830F9141030F979
:100A70001400002804DA264830F91400404202E04D
:100A8000234830F9140091FBF0F04FF4FA71484319
:100A900000B21F4921F81400601CC4B2042CB7DB5B
:100AA0001748017A407A41EA40011548807A41EAC4
:100AB00080011348C07A41EAC0011148007B41EA35
:100AC00000110F48407B41EA40110D48807B41EA0C
:100AD00080110B48C07B41EAC0100D490881AA2053
:100AE0000C490870AF2048700C208870C91C084859
:100AF00002680A6042684A6000890881BDE8F081A6
:100B00005C0100209A99014000007A447B140E3F5A
:100B10006C0100205200002070472DE9F041024690
:100B200000250026002000230024002791F803C0A0
:100B30000CF00F0591F803C00CF0100CBCF1000F85
:100B400003D091F802C04CEA050591F800C0BCF151
:100B5000000F31D0146800202BE04FF0010C0CFA8C
:100B600000F3B1F800C00CEA03069E4220D18300D6
:100B70004FF00F0C0CFA03F7BC4305FA03FC4CEAE8
:100B8000040491F803C0BCF1280F06D14FF0010C0A
:100B90000CFA00FCC2F814C00AE091F803C0BCF1E2
:100BA000480F05D14FF0010C0CFA00FCC2F810C040
:100BB000401C0828D1D31460B1F800C0BCF1FF0F6D
:100BC00034DD546800202EE000F1080C4FF00108DD
:100BD00008FA0CF3B1F800C00CEA03069E4221D1DA
:100BE00083004FF00F0C0CFA03F7BC4305FA03FC2B
:100BF0004CEA040491F803C0BCF1280F05D100F1C0
:100C0000080C08FA0CF8C2F8148091F803C0BCF183
:100C1000480F07D100F1080C4FF0010808FA0CF852
:100C2000C2F81080401C0828CED35460BDE8F08183
:100C30000246002093680B400BB1012000E0002029
:100C40007047416170470161704700BFFEE70000D7
:100C500008B50121042000F0A5F80121102000F0C2
:100C6000A1F848208DF8030001208DF80200F02043
:100C7000ADF8000069460648FFF74FFF4FF470706B
:100C8000ADF8000069460348FFF747FF08BD0000C4
:100C9000000801400010014010B51D480088B0F563
:100CA000FA7F0CDC80211B48FFF7CDFF402119485B
:100CB000FFF7C7FF20211748FFF7C3FF27E01448BD
:100CC0000088B0F57A7F0CDC80211248FFF7B9FF6D
:100CD00040211048FFF7B7FF20210E48FFF7B1FF72
:100CE00015E00B48008840F2DC5188420CDC802182
:100CF0000848FFF7A6FF40210648FFF7A2FF202182
:100D00000448FFF7A0FF02E000200149088010BD61
:100D100004000020000C014008B50121082000F06B
:100D200041F8E020ADF8000010208DF8030003200A
:100D30008DF8020069460248FFF7EFFE08BD00008B
:100D4000000C014000BFFEE77047704701460020DD
:100D5000034A506820F44040084350607047000048
:100D60000010024029B1064A52690243044B5A61FD
:100D700004E0034A52698243014B5A617047000004
:100D80000010024029B1064AD2690243044BDA61DD
:100D900004E0034AD2698243014BDA6170470000E4
:100DA0000010024029B1064A92690243044B9A613D
:100DB00004E0034A92698243014B9A617047000044
:100DC0000010024030B500210022002400232D4DE8
:100DD0006D6805F00C0121B1042905D0082923D143
:100DE00005E0294D056022E0274D05601FE0254DF7
:100DF0006D6805F47012234D6D6805F4803402258A
:100E000005EB92421CB9214D554305600BE01D4D89
:100E10006D6805F400351DB11C4D5543056002E0B9
:100E2000194D5543056002E0174D056000BF00BF36
:100E3000144D6D6805F0F0010909154D6B5C0568EE
:100E4000DD4045600F4D6D6805F4E061090A104D05
:100E50006B5C4568DD4085600A4D6D6805F4605146
:100E6000C90A0B4D6B5C4568DD40C560054D6D687A
:100E700005F44041890B074D6B5CC568B5FBF3F584
:100E8000056130BD0010024000127A0000093D00EB
:100E90000C0000201C000020704710B500F002F884
:100EA00010BD00000CB50020019000903348006890
:100EB00040F480303149086000BF3048006800F4D9
:100EC000003000900198401C0190009818B90198DA
:100ED000B0F5A06FF1D12948006800F4003010B1DE
:100EE0000120009001E0002000900098012843D1EB
:100EF0002348006840F01000214908600846006857
:100F000020F0030008600846006840F00200086016
:100F10001A484068194948600846406848600846D1
:100F2000406840F4806048600846406820F47C10C7
:100F300048600846406840F4E81048600846006889
:100F400040F08070086000BF0C48006800F000703E
:100F50000028F9D00948406820F00300074948609C
:100F60000846406840F00200486000BF03484068FF
:100F700000F00C000828F9D10CBD00000010024060
:100F8000002002407047000010B51348006840F090
:100F900001001149086008464068104908400E49A0
:100FA0004860084600680E4908400B49086008463A
:100FB000006820F4802008600846406820F4FE00A5
:100FC00048604FF41F008860FFF767FF4FF0006034
:100FD0000449086010BD0000001002400000FFF846
:100FE000FFFFF6FE08ED00E010B50121094800F012
:100FF0009AF801280DD10121064800F085F806482D
:101000000088401C0449088004480088401C0349AB
:10101000088010BD000800400200002004000020ED
:101020002DE9FE4F04460D4601210420FFF7AAFEDC
:10103000601E80B2ADF80400681E80B2ADF80000FA
:101040000020ADF80600ADF8020069462B4800F01C
:1010500085F801221146294800F076F81E20022268
:10106000012600271346C3F10709B9F1040F02D97D
:101070004FF0040901E0C3F10709C84603F1040970
:10108000B9F1070F02D24FF0000901E0A3F1030903
:10109000CC464FF0010909FA08F9A9F1010909EA5A
:1010A000060909FA0CF94FF0010A0AFA0CFAAAF13A
:1010B000010A0AEA070A49EA0A0100BF002807DA1A
:1010C0000A07160E0E4A00F00F031B1FD65403E04A
:1010D0000A07130E0B4A135400BF1E200121814042
:1010E0004209920002F1E022C2F8001100BF012182
:1010F000024800F00CF8BDE8FE8F00000008004038
:1011000018ED00E000E400E0CA430282704721B11C
:10111000028842F00102028004E002884FF6FE736A
:101120001A400280704730B5024600200023002498
:10113000158A05EA0103958905EA010413B10CB18A
:10114000012000E0002030BD1AB183890B43838168
:1011500002E083898B43838170470000002202886C
:101160001D4B98420ED01D4B98420BD0B0F1804FD2
:1011700008D01B4B984205D01A4B984202D01A4B0C
:10118000984204D14FF68F731A404B881A43174B7D
:10119000984207D0164B984204D04FF6FF431A40AE
:1011A000CB881A4302808B8883850B8803850A4B82
:1011B00098420BD0094B984208D00E4B984205D06C
:1011C0000D4B984202D00D4B984201D10B7A038609
:1011D0000123838270470000002C0140003401404D
:1011E0000004004000080040000C004000100040D7
:1011F000001400400040014000440140004801400C
:1012000010B540F22771114800F0D6F8E8B1104847
:1012100001780078401C0E4A10700E48405C0B4963
:10122000091D0880104600780B49097888420CD1C6
:101230000020114608700849087004480C300088E6
:1012400020F0800001490C31088010BD00380140B9
:101250000100002052000020000000202DE9F04392
:1012600085B0044601218803FFF79CFD012104207D
:10127000FFF798FD01210846FFF794FD4FF4007039
:10128000ADF8000018208DF8030003208DF802004F
:1012900069463F48FFF741FC4FF48060ADF800001D
:1012A00004208DF8030069463948FFF736FC2520F5
:1012B000022201252E461346C3F10708B8F1040F98
:1012C00002D94FF0040801E0C3F10708C44603F156
:1012D0000408B8F1070F02D24FF0000801E0A3F1B3
:1012E000030847464FF0010808FA0CF8A8F1010876
:1012F00008EA050808FA07F84FF0010909FA07F9A2
:10130000A9F1010909EA060948EA090100BF002814
:1013100007DA0A07150E1F4A00F00F031B1FD554EA
:1013200003E00A07130E1C4A135400BF252000F0E7
:101330001F02012191404209920002F1E022C2F80D
:10134000001100BF01940020ADF80800ADF81000B6
:101350000C20ADF80E000020ADF80C00ADF80A002E
:1013600001A90E4800F078F8002240F227710B48DE
:1013700000F04CF8012240F22551084800F046F8F0
:101380000121064800F00CF805B0BDE8F08300002C
:101390000008014018ED00E000E400E000380140E2
:1013A00021B1828942F40052828104E082894DF6A3
:1013B000FF731A408281704770B5024600240023F3
:1013C0000025002040F66A16B14200D100BFC1F3EB
:1013D000421501F01F03012606FA03F3012D02D185
:1013E0009689334006E0022D02D1168A334001E08F
:1013F000968A33400C12012606FA04F4168834400B
:1014000013B10CB1012000E0002070BDF0B503461F
:10141000002400260025002040F66A17B94200D1BA
:1014200000BF1846C1F3421401F01F06012707FA56
:1014300006F5012C01D10C3004E0022C01D1103052
:1014400000E014301AB107682F43076002E0076814
:10145000AF430760F0BD00002DE9F04786B00546B8
:101460000E460024A24600BFA1460027B08900B165
:1014700000BF2F462C8A4CF6FF700440F0880443CE
:101480002C82AC894EF6F3100440B08831890843B1
:10149000718908430443AC81AC8A4FF6FF40044095
:1014A000B0890443AC8201A8FFF78CFC1F48874237
:1014B00002D1DDF810A001E0DDF80CA0A88900F44D
:1014C000004040B10AEBCA0000EB0A103168490045
:1014D000B0FBF1F807E00AEBCA0000EB0A10316834
:1014E0008900B0FBF1F86420B8FBF0F0040120099A
:1014F000642101FB1089A88900F4004040B132202A
:1015000000EBC900B0FBF1F000F00700044308E075
:10151000322000EB09106421B0FBF1F000F00F0065
:1015200004432C8106B0BDE8F0870000003801407C
:1015300000BFFEE702E008C8121F08C1002AFAD166
:1015400070477047002001E001C1121F002AFBD143
:1015500070470000FFF718FDFFF7DEFBFFF778FB91
:101560004FF4E130FFF77AFEFEF72EFF24214FF40F
:101570007A70FFF755FD10E00848008819280ADB4B
:10158000002006490880FFF74DF9FFF7DDF90D212E
:10159000034800F007F8FFF77FFBEDE702000020AB
:1015A0005200002070B505460E460E48008800F037
:1015B0008000A8B900240AE0295D0B480278007871
:1015C000401C094B187009488154601CC4B2B442D5
:1015D000F2DB012240F2277102480C38FFF716FFB8
:1015E00070BD00000C3801400000002052000020B7
:1015F000101600080000002020000000341500082C
:10160000301600082000002058050000441500088E
:1016100000000000000000000000000000000000CA
:101620000102030401020304060708090204060874
:0400000508000131BD
:00000001FF
